{
  "_format": "hh-sol-artifact-1",
  "contractName": "Transactions",
  "sourceName": "contracts/Transactions.sol",
  "abi": [
    {
      "anonymous": false,
      "inputs": [
        {
          "indexed": false,
          "internalType": "address",
          "name": "invester",
          "type": "address"
        },
        {
          "indexed": false,
          "internalType": "address",
          "name": "receiver",
          "type": "address"
        },
        {
          "indexed": false,
          "internalType": "uint256",
          "name": "amount",
          "type": "uint256"
        },
        {
          "indexed": false,
          "internalType": "uint256",
          "name": "timeOfInvesment",
          "type": "uint256"
        },
        {
          "indexed": false,
          "internalType": "uint256",
          "name": "timeForRelease",
          "type": "uint256"
        },
        {
          "indexed": false,
          "internalType": "uint256",
          "name": "invesmentNo",
          "type": "uint256"
        }
      ],
      "name": "InvesmentInfo",
      "type": "event"
    },
    {
      "anonymous": false,
      "inputs": [
        {
          "indexed": false,
          "internalType": "address",
          "name": "from",
          "type": "address"
        },
        {
          "indexed": false,
          "internalType": "address",
          "name": "receiver",
          "type": "address"
        },
        {
          "indexed": false,
          "internalType": "uint256",
          "name": "amount",
          "type": "uint256"
        },
        {
          "indexed": false,
          "internalType": "uint256",
          "name": "timeOfInvesment",
          "type": "uint256"
        },
        {
          "indexed": false,
          "internalType": "uint256",
          "name": "timeForRelease",
          "type": "uint256"
        },
        {
          "indexed": false,
          "internalType": "bool",
          "name": "isactive",
          "type": "bool"
        },
        {
          "indexed": false,
          "internalType": "bool",
          "name": "test",
          "type": "bool"
        },
        {
          "indexed": false,
          "internalType": "uint256",
          "name": "transactionCount",
          "type": "uint256"
        }
      ],
      "name": "InvesmentiEkle",
      "type": "event"
    },
    {
      "anonymous": false,
      "inputs": [
        {
          "indexed": false,
          "internalType": "address",
          "name": "userAddress",
          "type": "address"
        }
      ],
      "name": "RegisteredUser",
      "type": "event"
    },
    {
      "anonymous": false,
      "inputs": [
        {
          "indexed": false,
          "internalType": "uint256",
          "name": "userNo",
          "type": "uint256"
        }
      ],
      "name": "newRegister",
      "type": "event"
    },
    {
      "inputs": [
        {
          "internalType": "address payable",
          "name": "receiver",
          "type": "address"
        },
        {
          "internalType": "uint256",
          "name": "amount",
          "type": "uint256"
        },
        {
          "internalType": "uint256",
          "name": "timeForRelease",
          "type": "uint256"
        }
      ],
      "name": "addToBlockchain",
      "outputs": [],
      "stateMutability": "nonpayable",
      "type": "function"
    },
    {
      "inputs": [
        {
          "internalType": "uint256",
          "name": "timeForRelease",
          "type": "uint256"
        }
      ],
      "name": "divideToRecipients",
      "outputs": [],
      "stateMutability": "nonpayable",
      "type": "function"
    },
    {
      "inputs": [],
      "name": "getAllinvesments",
      "outputs": [
        {
          "components": [
            {
              "internalType": "address",
              "name": "invester",
              "type": "address"
            },
            {
              "internalType": "address",
              "name": "receiver",
              "type": "address"
            },
            {
              "internalType": "uint256",
              "name": "amount",
              "type": "uint256"
            },
            {
              "internalType": "uint256",
              "name": "timeOfInvesment",
              "type": "uint256"
            },
            {
              "internalType": "uint256",
              "name": "timeForRelease",
              "type": "uint256"
            },
            {
              "internalType": "bool",
              "name": "isReversable",
              "type": "bool"
            },
            {
              "internalType": "bool",
              "name": "isActive",
              "type": "bool"
            },
            {
              "internalType": "uint256",
              "name": "invesmentNo",
              "type": "uint256"
            }
          ],
          "internalType": "struct Transactions.invesment[]",
          "name": "",
          "type": "tuple[]"
        }
      ],
      "stateMutability": "view",
      "type": "function"
    },
    {
      "inputs": [],
      "name": "getRecipients",
      "outputs": [],
      "stateMutability": "nonpayable",
      "type": "function"
    },
    {
      "inputs": [],
      "name": "getTransactionCount",
      "outputs": [
        {
          "internalType": "uint256",
          "name": "",
          "type": "uint256"
        }
      ],
      "stateMutability": "view",
      "type": "function"
    },
    {
      "inputs": [],
      "name": "invesmentsMadeToMe",
      "outputs": [],
      "stateMutability": "nonpayable",
      "type": "function"
    },
    {
      "inputs": [],
      "name": "logTimeForBlockTimeStamp",
      "outputs": [
        {
          "internalType": "uint256",
          "name": "",
          "type": "uint256"
        }
      ],
      "stateMutability": "view",
      "type": "function"
    },
    {
      "inputs": [
        {
          "internalType": "uint256",
          "name": "invesmentNo",
          "type": "uint256"
        }
      ],
      "name": "logTimeForRelease",
      "outputs": [
        {
          "internalType": "uint256",
          "name": "",
          "type": "uint256"
        }
      ],
      "stateMutability": "view",
      "type": "function"
    },
    {
      "inputs": [
        {
          "internalType": "address",
          "name": "receiver",
          "type": "address"
        },
        {
          "internalType": "uint256",
          "name": "timeForRelease",
          "type": "uint256"
        },
        {
          "internalType": "uint256",
          "name": "amount",
          "type": "uint256"
        }
      ],
      "name": "makeInvesment",
      "outputs": [],
      "stateMutability": "payable",
      "type": "function"
    },
    {
      "inputs": [],
      "name": "myInvesments",
      "outputs": [
        {
          "components": [
            {
              "internalType": "address",
              "name": "invester",
              "type": "address"
            },
            {
              "internalType": "address",
              "name": "receiver",
              "type": "address"
            },
            {
              "internalType": "uint256",
              "name": "amount",
              "type": "uint256"
            },
            {
              "internalType": "uint256",
              "name": "timeOfInvesment",
              "type": "uint256"
            },
            {
              "internalType": "uint256",
              "name": "timeForRelease",
              "type": "uint256"
            },
            {
              "internalType": "bool",
              "name": "isReversable",
              "type": "bool"
            },
            {
              "internalType": "bool",
              "name": "isActive",
              "type": "bool"
            },
            {
              "internalType": "uint256",
              "name": "invesmentNo",
              "type": "uint256"
            }
          ],
          "internalType": "struct Transactions.invesment[]",
          "name": "",
          "type": "tuple[]"
        }
      ],
      "stateMutability": "view",
      "type": "function"
    },
    {
      "inputs": [
        {
          "internalType": "address",
          "name": "userAddress",
          "type": "address"
        }
      ],
      "name": "register",
      "outputs": [],
      "stateMutability": "nonpayable",
      "type": "function"
    },
    {
      "inputs": [
        {
          "internalType": "address",
          "name": "receiver",
          "type": "address"
        }
      ],
      "name": "registerReceiver",
      "outputs": [],
      "stateMutability": "nonpayable",
      "type": "function"
    },
    {
      "inputs": [
        {
          "internalType": "uint256",
          "name": "invesmentNo",
          "type": "uint256"
        }
      ],
      "name": "reverseInvesment",
      "outputs": [],
      "stateMutability": "payable",
      "type": "function"
    },
    {
      "inputs": [
        {
          "internalType": "uint256",
          "name": "invesmentNo",
          "type": "uint256"
        },
        {
          "internalType": "uint256",
          "name": "amount",
          "type": "uint256"
        },
        {
          "internalType": "uint256",
          "name": "timeForRelease",
          "type": "uint256"
        }
      ],
      "name": "reviseInvesment",
      "outputs": [],
      "stateMutability": "nonpayable",
      "type": "function"
    },
    {
      "inputs": [
        {
          "internalType": "uint256",
          "name": "invesmentNo",
          "type": "uint256"
        }
      ],
      "name": "withdrawInvesment",
      "outputs": [],
      "stateMutability": "payable",
      "type": "function"
    }
  ],
  "bytecode": "0x608060405234801561001057600080fd5b50613754806100206000396000f3fe6080604052600436106100e85760003560e01c80639fa8bdab1161008a578063cbf8a7cf11610059578063cbf8a7cf146102ab578063cfdd4329146102d6578063d78d610b146102f2578063e24823d214610309576100e8565b80639fa8bdab14610212578063afb43a031461023b578063c57b1d7914610266578063cac5bf551461028f576100e8565b806338a2ec91116100c657806338a2ec911461016a5780634420e486146101955780639252410f146101be578063995d5d0a146101fb576100e8565b8063115493e1146100ed5780632e7700f0146101165780633587ce6a14610141575b600080fd5b3480156100f957600080fd5b50610114600480360381019061010f91906129ec565b610325565b005b34801561012257600080fd5b5061012b61051c565b6040516101389190613482565b60405180910390f35b34801561014d57600080fd5b5061016860048036038101906101639190612a8a565b610526565b005b34801561017657600080fd5b5061017f610a56565b60405161018c91906132a0565b60405180910390f35b3480156101a157600080fd5b506101bc60048036038101906101b791906129c3565b610bc0565b005b3480156101ca57600080fd5b506101e560048036038101906101e09190612a8a565b610e16565b6040516101f29190613482565b60405180910390f35b34801561020757600080fd5b50610210610e6a565b005b34801561021e57600080fd5b50610239600480360381019061023491906129c3565b6112d0565b005b34801561024757600080fd5b5061025061147d565b60405161025d9190613482565b60405180910390f35b34801561027257600080fd5b5061028d60048036038101906102889190612ab3565b611485565b005b6102a960048036038101906102a49190612a8a565b611a8c565b005b3480156102b757600080fd5b506102c0611d49565b6040516102cd91906132a0565b60405180910390f35b6102f060048036038101906102eb9190612a8a565b6120a5565b005b3480156102fe57600080fd5b5061030761239b565b005b610323600480360381019061031e9190612a3b565b61256a565b005b600180600082825461033791906134e7565b9250508190555060006040518061010001604052803373ffffffffffffffffffffffffffffffffffffffff1681526020018573ffffffffffffffffffffffffffffffffffffffff168152602001848152602001428152602001838152602001600015158152602001600115158152602001600154815250908060018154018082558091505060019003906000526020600020906007020160009091909190915060008201518160000160006101000a81548173ffffffffffffffffffffffffffffffffffffffff021916908373ffffffffffffffffffffffffffffffffffffffff16021790555060208201518160010160006101000a81548173ffffffffffffffffffffffffffffffffffffffff021916908373ffffffffffffffffffffffffffffffffffffffff16021790555060408201518160020155606082015181600301556080820151816004015560a08201518160050160006101000a81548160ff02191690831515021790555060c08201518160050160016101000a81548160ff02191690831515021790555060e0820151816006015550507f43ae1dd719252719bbe0f20d8b8df63edbc4a4cf057087cf42d750baff33abad338484428560006001805460405161050f9897969594939291906131c1565b60405180910390a1505050565b6000600154905090565b6000600360003373ffffffffffffffffffffffffffffffffffffffff1673ffffffffffffffffffffffffffffffffffffffff1681526020019081526020016000206004015414156105ac576040517f08c379a00000000000000000000000000000000000000000000000000000000081526004016105a3906133c2565b60405180910390fd5b6000600360003373ffffffffffffffffffffffffffffffffffffffff1673ffffffffffffffffffffffffffffffffffffffff168152602001908152602001600020600101805490501415610635576040517f08c379a000000000000000000000000000000000000000000000000000000000815260040161062c906132c2565b60405180910390fd5b6000600360003373ffffffffffffffffffffffffffffffffffffffff1673ffffffffffffffffffffffffffffffffffffffff16815260200190815260200160002060010180549050600360003373ffffffffffffffffffffffffffffffffffffffff1673ffffffffffffffffffffffffffffffffffffffff168152602001908152602001600020600401546106ca919061353d565b905060005b600360003373ffffffffffffffffffffffffffffffffffffffff1673ffffffffffffffffffffffffffffffffffffffff16815260200190815260200160002060010180549050811015610a51576000600360003373ffffffffffffffffffffffffffffffffffffffff1673ffffffffffffffffffffffffffffffffffffffff1681526020019081526020016000206001018281548110610798577f4e487b7100000000000000000000000000000000000000000000000000000000600052603260045260246000fd5b9060005260206000200160009054906101000a900473ffffffffffffffffffffffffffffffffffffffff169050600060016000805490506107d991906134e7565b905060006040518061010001604052803373ffffffffffffffffffffffffffffffffffffffff1681526020018473ffffffffffffffffffffffffffffffffffffffff16815260200186815260200142815260200187815260200160011515815260200160011515815260200183815250908060018154018082558091505060019003906000526020600020906007020160009091909190915060008201518160000160006101000a81548173ffffffffffffffffffffffffffffffffffffffff021916908373ffffffffffffffffffffffffffffffffffffffff16021790555060208201518160010160006101000a81548173ffffffffffffffffffffffffffffffffffffffff021916908373ffffffffffffffffffffffffffffffffffffffff16021790555060408201518160020155606082015181600301556080820151816004015560a08201518160050160006101000a81548160ff02191690831515021790555060c08201518160050160016101000a81548160ff02191690831515021790555060e082015181600601555050600360003373ffffffffffffffffffffffffffffffffffffffff1673ffffffffffffffffffffffffffffffffffffffff168152602001908152602001600020600201819080600181540180825580915050600190039060005260206000200160009091909190915055600360008373ffffffffffffffffffffffffffffffffffffffff1673ffffffffffffffffffffffffffffffffffffffff16815260200190815260200160002060030181908060018154018082558091505060019003906000526020600020016000909190919091505550508080610a4990613632565b9150506106cf565b505050565b60606000805480602002602001604051908101604052809291908181526020016000905b82821015610bb75783829060005260206000209060070201604051806101000160405290816000820160009054906101000a900473ffffffffffffffffffffffffffffffffffffffff1673ffffffffffffffffffffffffffffffffffffffff1673ffffffffffffffffffffffffffffffffffffffff1681526020016001820160009054906101000a900473ffffffffffffffffffffffffffffffffffffffff1673ffffffffffffffffffffffffffffffffffffffff1673ffffffffffffffffffffffffffffffffffffffff1681526020016002820154815260200160038201548152602001600482015481526020016005820160009054906101000a900460ff161515151581526020016005820160019054906101000a900460ff1615151515815260200160068201548152505081526020019060010190610a7a565b50505050905090565b600360008273ffffffffffffffffffffffffffffffffffffffff1673ffffffffffffffffffffffffffffffffffffffff16815260200190815260200160002060050160009054906101000a900460ff1615610c50576040517f08c379a0000000000000000000000000000000000000000000000000000000008152600401610c4790613402565b60405180910390fd5b60608060606000806040518060c001604052808773ffffffffffffffffffffffffffffffffffffffff16815260200186815260200185815260200184815260200183815260200160011515815250905080600360008873ffffffffffffffffffffffffffffffffffffffff1673ffffffffffffffffffffffffffffffffffffffff16815260200190815260200160002060008201518160000160006101000a81548173ffffffffffffffffffffffffffffffffffffffff021916908373ffffffffffffffffffffffffffffffffffffffff1602179055506020820151816001019080519060200190610d4392919061281b565b506040820151816002019080519060200190610d609291906128a5565b506060820151816003019080519060200190610d7d9291906128a5565b506080820151816004015560a08201518160050160006101000a81548160ff0219169083151502179055509050506002869080600181540180825580915050600190039060005260206000200160009091909190916101000a81548173ffffffffffffffffffffffffffffffffffffffff021916908373ffffffffffffffffffffffffffffffffffffffff160217905550505050505050565b6000808281548110610e51577f4e487b7100000000000000000000000000000000000000000000000000000000600052603260045260246000fd5b9060005260206000209060070201600401549050919050565b6000600360003373ffffffffffffffffffffffffffffffffffffffff1673ffffffffffffffffffffffffffffffffffffffff1681526020019081526020016000206003018054905011610ef2576040517f08c379a0000000000000000000000000000000000000000000000000000000008152600401610ee990613322565b60405180910390fd5b60006001905060005b600360003373ffffffffffffffffffffffffffffffffffffffff1673ffffffffffffffffffffffffffffffffffffffff1681526020019081526020016000206003018054905081101561128b576000600360003373ffffffffffffffffffffffffffffffffffffffff1673ffffffffffffffffffffffffffffffffffffffff1681526020019081526020016000206003018281548110610fc4577f4e487b7100000000000000000000000000000000000000000000000000000000600052603260045260246000fd5b906000526020600020015490506000818154811061100b577f4e487b7100000000000000000000000000000000000000000000000000000000600052603260045260246000fd5b906000526020600020906007020160050160019054906101000a900460ff1615611277577f404d0c3fc056af82f6c3daf413b0ea50c0c730ccced2a74136a9472aa7b3513e6000828154811061108a577f4e487b7100000000000000000000000000000000000000000000000000000000600052603260045260246000fd5b906000526020600020906007020160000160009054906101000a900473ffffffffffffffffffffffffffffffffffffffff16600083815481106110f6577f4e487b7100000000000000000000000000000000000000000000000000000000600052603260045260246000fd5b906000526020600020906007020160010160009054906101000a900473ffffffffffffffffffffffffffffffffffffffff1660008481548110611162577f4e487b7100000000000000000000000000000000000000000000000000000000600052603260045260246000fd5b906000526020600020906007020160020154600085815481106111ae577f4e487b7100000000000000000000000000000000000000000000000000000000600052603260045260246000fd5b906000526020600020906007020160030154600086815481106111fa577f4e487b7100000000000000000000000000000000000000000000000000000000600052603260045260246000fd5b90600052602060002090600702016004015460008781548110611246577f4e487b7100000000000000000000000000000000000000000000000000000000600052603260045260246000fd5b90600052602060002090600702016006015460405161126a9695949392919061323f565b60405180910390a1600092505b50808061128390613632565b915050610efb565b5080156112cd576040517f08c379a00000000000000000000000000000000000000000000000000000000081526004016112c490613322565b60405180910390fd5b50565b600360008273ffffffffffffffffffffffffffffffffffffffff1673ffffffffffffffffffffffffffffffffffffffff16815260200190815260200160002060050160009054906101000a900460ff16156113cd57600360003373ffffffffffffffffffffffffffffffffffffffff1673ffffffffffffffffffffffffffffffffffffffff168152602001908152602001600020600101819080600181540180825580915050600190039060005260206000200160009091909190916101000a81548173ffffffffffffffffffffffffffffffffffffffff021916908373ffffffffffffffffffffffffffffffffffffffff16021790555061147a565b6113d681610bc0565b600360003373ffffffffffffffffffffffffffffffffffffffff1673ffffffffffffffffffffffffffffffffffffffff168152602001908152602001600020600101819080600181540180825580915050600190039060005260206000200160009091909190916101000a81548173ffffffffffffffffffffffffffffffffffffffff021916908373ffffffffffffffffffffffffffffffffffffffff1602179055505b50565b600042905090565b3373ffffffffffffffffffffffffffffffffffffffff16600084815481106114d6577f4e487b7100000000000000000000000000000000000000000000000000000000600052603260045260246000fd5b906000526020600020906007020160000160009054906101000a900473ffffffffffffffffffffffffffffffffffffffff1673ffffffffffffffffffffffffffffffffffffffff161461155e576040517f08c379a000000000000000000000000000000000000000000000000000000000815260040161155590613302565b60405180910390fd5b60008381548110611598577f4e487b7100000000000000000000000000000000000000000000000000000000600052603260045260246000fd5b906000526020600020906007020160050160019054906101000a900460ff166115f6576040517f08c379a00000000000000000000000000000000000000000000000000000000081526004016115ed90613342565b60405180910390fd5b428160008581548110611632577f4e487b7100000000000000000000000000000000000000000000000000000000600052603260045260246000fd5b90600052602060002090600702016003015461164e91906134e7565b101561168f576040517f08c379a0000000000000000000000000000000000000000000000000000000008152600401611686906132e2565b60405180910390fd5b600083815481106116c9577f4e487b7100000000000000000000000000000000000000000000000000000000600052603260045260246000fd5b9060005260206000209060070201600201548211156118fc576000838154811061171c577f4e487b7100000000000000000000000000000000000000000000000000000000600052603260045260246000fd5b90600052602060002090600702016002015482611739919061356e565b600360003373ffffffffffffffffffffffffffffffffffffffff1673ffffffffffffffffffffffffffffffffffffffff1681526020019081526020016000206004015410156117bd576040517f08c379a00000000000000000000000000000000000000000000000000000000081526004016117b490613362565b60405180910390fd5b81600084815481106117f8577f4e487b7100000000000000000000000000000000000000000000000000000000600052603260045260246000fd5b906000526020600020906007020160020154611814919061356e565b600360003373ffffffffffffffffffffffffffffffffffffffff1673ffffffffffffffffffffffffffffffffffffffff16815260200190815260200160002060040154611861919061356e565b600360003373ffffffffffffffffffffffffffffffffffffffff1673ffffffffffffffffffffffffffffffffffffffff1681526020019081526020016000206004018190555081600084815481106118e2577f4e487b7100000000000000000000000000000000000000000000000000000000600052603260045260246000fd5b906000526020600020906007020160020181905550611a37565b8160008481548110611937577f4e487b7100000000000000000000000000000000000000000000000000000000600052603260045260246000fd5b906000526020600020906007020160020154611953919061356e565b600360003373ffffffffffffffffffffffffffffffffffffffff1673ffffffffffffffffffffffffffffffffffffffff168152602001908152602001600020600401546119a091906134e7565b600360003373ffffffffffffffffffffffffffffffffffffffff1673ffffffffffffffffffffffffffffffffffffffff168152602001908152602001600020600401819055508160008481548110611a21577f4e487b7100000000000000000000000000000000000000000000000000000000600052603260045260246000fd5b9060005260206000209060070201600201819055505b8060008481548110611a72577f4e487b7100000000000000000000000000000000000000000000000000000000600052603260045260246000fd5b906000526020600020906007020160040181905550505050565b3373ffffffffffffffffffffffffffffffffffffffff1660008281548110611add577f4e487b7100000000000000000000000000000000000000000000000000000000600052603260045260246000fd5b906000526020600020906007020160000160009054906101000a900473ffffffffffffffffffffffffffffffffffffffff1673ffffffffffffffffffffffffffffffffffffffff1614611b65576040517f08c379a0000000000000000000000000000000000000000000000000000000008152600401611b5c906133a2565b60405180910390fd5b6001151560008281548110611ba3577f4e487b7100000000000000000000000000000000000000000000000000000000600052603260045260246000fd5b906000526020600020906007020160050160019054906101000a900460ff16151514611c04576040517f08c379a0000000000000000000000000000000000000000000000000000000008152600401611bfb90613382565b60405180910390fd5b6000808281548110611c3f577f4e487b7100000000000000000000000000000000000000000000000000000000600052603260045260246000fd5b906000526020600020906007020160050160016101000a81548160ff02191690831515021790555060008181548110611ca1577f4e487b7100000000000000000000000000000000000000000000000000000000600052603260045260246000fd5b906000526020600020906007020160020154600360003373ffffffffffffffffffffffffffffffffffffffff1673ffffffffffffffffffffffffffffffffffffffff16815260200190815260200160002060040154611d0091906134e7565b600360003373ffffffffffffffffffffffffffffffffffffffff1673ffffffffffffffffffffffffffffffffffffffff1681526020019081526020016000206004018190555050565b60606000600360003373ffffffffffffffffffffffffffffffffffffffff1673ffffffffffffffffffffffffffffffffffffffff1681526020019081526020016000206002018054905067ffffffffffffffff811115611dd2577f4e487b7100000000000000000000000000000000000000000000000000000000600052604160045260246000fd5b604051908082528060200260200182016040528015611e0b57816020015b611df86128f2565b815260200190600190039081611df05790505b50905060005b600360003373ffffffffffffffffffffffffffffffffffffffff1673ffffffffffffffffffffffffffffffffffffffff1681526020019081526020016000206002018054905081101561209d576000600360003373ffffffffffffffffffffffffffffffffffffffff1673ffffffffffffffffffffffffffffffffffffffff1681526020019081526020016000206002018281548110611eda577f4e487b7100000000000000000000000000000000000000000000000000000000600052603260045260246000fd5b9060005260206000200154905060008181548110611f21577f4e487b7100000000000000000000000000000000000000000000000000000000600052603260045260246000fd5b9060005260206000209060070201604051806101000160405290816000820160009054906101000a900473ffffffffffffffffffffffffffffffffffffffff1673ffffffffffffffffffffffffffffffffffffffff1673ffffffffffffffffffffffffffffffffffffffff1681526020016001820160009054906101000a900473ffffffffffffffffffffffffffffffffffffffff1673ffffffffffffffffffffffffffffffffffffffff1673ffffffffffffffffffffffffffffffffffffffff1681526020016002820154815260200160038201548152602001600482015481526020016005820160009054906101000a900460ff161515151581526020016005820160019054906101000a900460ff1615151515815260200160068201548152505083838151811061207e577f4e487b7100000000000000000000000000000000000000000000000000000000600052603260045260246000fd5b602002602001018190525050808061209590613632565b915050611e11565b508091505090565b3373ffffffffffffffffffffffffffffffffffffffff16600082815481106120f6577f4e487b7100000000000000000000000000000000000000000000000000000000600052603260045260246000fd5b906000526020600020906007020160010160009054906101000a900473ffffffffffffffffffffffffffffffffffffffff1673ffffffffffffffffffffffffffffffffffffffff161461217e576040517f08c379a000000000000000000000000000000000000000000000000000000000815260040161217590613442565b60405180910390fd5b600081815481106121b8577f4e487b7100000000000000000000000000000000000000000000000000000000600052603260045260246000fd5b906000526020600020906007020160050160019054906101000a900460ff16612216576040517f08c379a000000000000000000000000000000000000000000000000000000000815260040161220d90613462565b60405180910390fd5b4260008281548110612251577f4e487b7100000000000000000000000000000000000000000000000000000000600052603260045260246000fd5b906000526020600020906007020160040154106122a3576040517f08c379a000000000000000000000000000000000000000000000000000000000815260040161229a906133e2565b60405180910390fd5b60008082815481106122de577f4e487b7100000000000000000000000000000000000000000000000000000000600052603260045260246000fd5b906000526020600020906007020160050160016101000a81548160ff0219169083151502179055503373ffffffffffffffffffffffffffffffffffffffff166108fc6000838154811061235a577f4e487b7100000000000000000000000000000000000000000000000000000000600052603260045260246000fd5b9060005260206000209060070201600201549081150290604051600060405180830381858888f19350505050158015612397573d6000803e3d6000fd5b5050565b6000600360003373ffffffffffffffffffffffffffffffffffffffff1673ffffffffffffffffffffffffffffffffffffffff1681526020019081526020016000206001018054905011612423576040517f08c379a000000000000000000000000000000000000000000000000000000000815260040161241a90613422565b60405180910390fd5b60005b600360003373ffffffffffffffffffffffffffffffffffffffff1673ffffffffffffffffffffffffffffffffffffffff16815260200190815260200160002060010180549050811015612567576000600360003373ffffffffffffffffffffffffffffffffffffffff1673ffffffffffffffffffffffffffffffffffffffff16815260200190815260200160002060010182815481106124ef577f4e487b7100000000000000000000000000000000000000000000000000000000600052603260045260246000fd5b9060005260206000200160009054906101000a900473ffffffffffffffffffffffffffffffffffffffff1690507fbb74e68fafbea9c1a78e7c8ed9d68158f5acc55124596158170e635ff13d271c8160405161254b91906131a6565b60405180910390a150808061255f90613632565b915050612426565b50565b600080805490509050600360003373ffffffffffffffffffffffffffffffffffffffff1673ffffffffffffffffffffffffffffffffffffffff168152602001908152602001600020600201819080600181540180825580915050600190039060005260206000200160009091909190915055600360008573ffffffffffffffffffffffffffffffffffffffff1673ffffffffffffffffffffffffffffffffffffffff1681526020019081526020016000206003018190806001815401808255809150506001900390600052602060002001600090919091909150557f404d0c3fc056af82f6c3daf413b0ea50c0c730ccced2a74136a9472aa7b3513e33858442878660405161267e9695949392919061323f565b60405180910390a160006040518061010001604052803373ffffffffffffffffffffffffffffffffffffffff1681526020018673ffffffffffffffffffffffffffffffffffffffff16815260200184815260200142815260200185815260200160011515815260200160011515815260200183815250908060018154018082558091505060019003906000526020600020906007020160009091909190915060008201518160000160006101000a81548173ffffffffffffffffffffffffffffffffffffffff021916908373ffffffffffffffffffffffffffffffffffffffff16021790555060208201518160010160006101000a81548173ffffffffffffffffffffffffffffffffffffffff021916908373ffffffffffffffffffffffffffffffffffffffff16021790555060408201518160020155606082015181600301556080820151816004015560a08201518160050160006101000a81548160ff02191690831515021790555060c08201518160050160016101000a81548160ff02191690831515021790555060e08201518160060155505050505050565b828054828255906000526020600020908101928215612894579160200282015b828111156128935782518260006101000a81548173ffffffffffffffffffffffffffffffffffffffff021916908373ffffffffffffffffffffffffffffffffffffffff1602179055509160200191906001019061283b565b5b5090506128a19190612967565b5090565b8280548282559060005260206000209081019282156128e1579160200282015b828111156128e05782518255916020019190600101906128c5565b5b5090506128ee9190612967565b5090565b604051806101000160405280600073ffffffffffffffffffffffffffffffffffffffff168152602001600073ffffffffffffffffffffffffffffffffffffffff168152602001600081526020016000815260200160008152602001600015158152602001600015158152602001600081525090565b5b80821115612980576000816000905550600101612968565b5090565b600081359050612993816136d9565b92915050565b6000813590506129a8816136f0565b92915050565b6000813590506129bd81613707565b92915050565b6000602082840312156129d557600080fd5b60006129e384828501612984565b91505092915050565b600080600060608486031215612a0157600080fd5b6000612a0f86828701612999565b9350506020612a20868287016129ae565b9250506040612a31868287016129ae565b9150509250925092565b600080600060608486031215612a5057600080fd5b6000612a5e86828701612984565b9350506020612a6f868287016129ae565b9250506040612a80868287016129ae565b9150509250925092565b600060208284031215612a9c57600080fd5b6000612aaa848285016129ae565b91505092915050565b600080600060608486031215612ac857600080fd5b6000612ad6868287016129ae565b9350506020612ae7868287016129ae565b9250506040612af8868287016129ae565b9150509250925092565b6000612b0e83836130e6565b6101008301905092915050565b612b24816135fc565b82525050565b612b33816135a2565b82525050565b612b42816135a2565b82525050565b6000612b53826134ad565b612b5d81856134c5565b9350612b688361349d565b8060005b83811015612b99578151612b808882612b02565b9750612b8b836134b8565b925050600181019050612b6c565b5085935050505092915050565b612baf816135c6565b82525050565b612bbe816135c6565b82525050565b6000612bd16024836134d6565b91507f596f752068617665206e6f20726563697069656e747320746f20696e7665737460008301527f20746f2e000000000000000000000000000000000000000000000000000000006020830152604082019050919050565b6000612c37603a836134d6565b91507f596f752063616e206e6f742073657420616e20696e7665736d656e7420746f2060008301527f62652072656c6173656420696e2061207061737420646174652e0000000000006020830152604082019050919050565b6000612c9d6031836134d6565b91507f596f752063616e206e6f742072657669736520616e20696e7665736d656e742060008301527f796f7520646964206e6f74206d616b652e0000000000000000000000000000006020830152604082019050919050565b6000612d036024836134d6565b91507f546865726520617265206e6f20696e7665736d656e7473206d61646520666f7260008301527f20796f75000000000000000000000000000000000000000000000000000000006020830152604082019050919050565b6000612d69601e836134d6565b91507f5468697320697320616e20696e61637469766520696e7665736d656e742e00006000830152602082019050919050565b6000612da96026836134d6565b91507f496e737566666963656e742066756e647320746f2072657669736520696e766560008301527f736d656e742e00000000000000000000000000000000000000000000000000006020830152604082019050919050565b6000612e0f6029836134d6565b91507f596f752063616e206e6f742063616e63656c20616e20696e616374697665206960008301527f6e7665736d656e742e00000000000000000000000000000000000000000000006020830152604082019050919050565b6000612e756041836134d6565b91507f596f7520617265206e6f742074686520696e766573746f722c206f6e6c79206960008301527f6e766573746f72732063616e2063616e63656c20616e20696e7665736d656e7460208301527f2e000000000000000000000000000000000000000000000000000000000000006040830152606082019050919050565b6000612f01601c836134d6565b91507f596f752068617665206e6f2066756e647320746f206469766964652e000000006000830152602082019050919050565b6000612f416023836134d6565b91507f596f752063616e206e6f74207769746864726177207468652066756e6473207960008301527f65742100000000000000000000000000000000000000000000000000000000006020830152604082019050919050565b6000612fa7601b836134d6565b91507f596f752061726520616c726561647920726567697374657265642100000000006000830152602082019050919050565b6000612fe76017836134d6565b91507f4e6f20726563697069656e7420726567697374657265640000000000000000006000830152602082019050919050565b60006130276027836134d6565b91507f5468697320696e7665736d656e74206973206e6f7420666f722074686973206160008301527f64647265737321000000000000000000000000000000000000000000000000006020830152604082019050919050565b600061308d6030836134d6565b91507f596f752063616e206e6f742077697468647261772066726f6d20616e20696e6160008301527f637469766520696e7665736d656e742e000000000000000000000000000000006020830152604082019050919050565b610100820160008201516130fd6000850182612b2a565b5060208201516131106020850182612b2a565b5060408201516131236040850182613188565b5060608201516131366060850182613188565b5060808201516131496080850182613188565b5060a082015161315c60a0850182612ba6565b5060c082015161316f60c0850182612ba6565b5060e082015161318260e0850182613188565b50505050565b613191816135f2565b82525050565b6131a0816135f2565b82525050565b60006020820190506131bb6000830184612b39565b92915050565b6000610100820190506131d7600083018b612b39565b6131e4602083018a612b1b565b6131f16040830189613197565b6131fe6060830188613197565b61320b6080830187613197565b61321860a0830186612bb5565b61322560c0830185612bb5565b61323260e0830184613197565b9998505050505050505050565b600060c0820190506132546000830189612b39565b6132616020830188612b39565b61326e6040830187613197565b61327b6060830186613197565b6132886080830185613197565b61329560a0830184613197565b979650505050505050565b600060208201905081810360008301526132ba8184612b48565b905092915050565b600060208201905081810360008301526132db81612bc4565b9050919050565b600060208201905081810360008301526132fb81612c2a565b9050919050565b6000602082019050818103600083015261331b81612c90565b9050919050565b6000602082019050818103600083015261333b81612cf6565b9050919050565b6000602082019050818103600083015261335b81612d5c565b9050919050565b6000602082019050818103600083015261337b81612d9c565b9050919050565b6000602082019050818103600083015261339b81612e02565b9050919050565b600060208201905081810360008301526133bb81612e68565b9050919050565b600060208201905081810360008301526133db81612ef4565b9050919050565b600060208201905081810360008301526133fb81612f34565b9050919050565b6000602082019050818103600083015261341b81612f9a565b9050919050565b6000602082019050818103600083015261343b81612fda565b9050919050565b6000602082019050818103600083015261345b8161301a565b9050919050565b6000602082019050818103600083015261347b81613080565b9050919050565b60006020820190506134976000830184613197565b92915050565b6000819050602082019050919050565b600081519050919050565b6000602082019050919050565b600082825260208201905092915050565b600082825260208201905092915050565b60006134f2826135f2565b91506134fd836135f2565b9250827fffffffffffffffffffffffffffffffffffffffffffffffffffffffffffffffff038211156135325761353161367b565b5b828201905092915050565b6000613548826135f2565b9150613553836135f2565b925082613563576135626136aa565b5b828204905092915050565b6000613579826135f2565b9150613584836135f2565b9250828210156135975761359661367b565b5b828203905092915050565b60006135ad826135d2565b9050919050565b60006135bf826135d2565b9050919050565b60008115159050919050565b600073ffffffffffffffffffffffffffffffffffffffff82169050919050565b6000819050919050565b60006136078261360e565b9050919050565b600061361982613620565b9050919050565b600061362b826135d2565b9050919050565b600061363d826135f2565b91507fffffffffffffffffffffffffffffffffffffffffffffffffffffffffffffffff8214156136705761366f61367b565b5b600182019050919050565b7f4e487b7100000000000000000000000000000000000000000000000000000000600052601160045260246000fd5b7f4e487b7100000000000000000000000000000000000000000000000000000000600052601260045260246000fd5b6136e2816135a2565b81146136ed57600080fd5b50565b6136f9816135b4565b811461370457600080fd5b50565b613710816135f2565b811461371b57600080fd5b5056fea26469706673582212206d0ede67348dcebd79c0e39cb33839253372e1998a75824ba5c60b459057df9564736f6c63430008000033",
  "linkReferences": {},
  "deployedLinkReferences": {}
}