{
  "_format": "hh-sol-artifact-1",
  "contractName": "Transactions",
  "sourceName": "contracts/Transactions.sol",
  "abi": [
    {
      "anonymous": false,
      "inputs": [
        {
          "indexed": false,
          "internalType": "address",
          "name": "invester",
          "type": "address"
        },
        {
          "indexed": false,
          "internalType": "address",
          "name": "receiver",
          "type": "address"
        },
        {
          "indexed": false,
          "internalType": "uint256",
          "name": "amount",
          "type": "uint256"
        },
        {
          "indexed": false,
          "internalType": "uint256",
          "name": "timeOfInvesment",
          "type": "uint256"
        },
        {
          "indexed": false,
          "internalType": "uint256",
          "name": "timeForRelease",
          "type": "uint256"
        },
        {
          "indexed": false,
          "internalType": "uint256",
          "name": "invesmentNo",
          "type": "uint256"
        }
      ],
      "name": "InvesmentInfo",
      "type": "event"
    },
    {
      "anonymous": false,
      "inputs": [
        {
          "indexed": false,
          "internalType": "address",
          "name": "from",
          "type": "address"
        },
        {
          "indexed": false,
          "internalType": "address",
          "name": "receiver",
          "type": "address"
        },
        {
          "indexed": false,
          "internalType": "uint256",
          "name": "amount",
          "type": "uint256"
        },
        {
          "indexed": false,
          "internalType": "uint256",
          "name": "timeOfInvesment",
          "type": "uint256"
        },
        {
          "indexed": false,
          "internalType": "uint256",
          "name": "timeForRelease",
          "type": "uint256"
        },
        {
          "indexed": false,
          "internalType": "bool",
          "name": "isactive",
          "type": "bool"
        },
        {
          "indexed": false,
          "internalType": "bool",
          "name": "test",
          "type": "bool"
        },
        {
          "indexed": false,
          "internalType": "uint256",
          "name": "transactionCount",
          "type": "uint256"
        }
      ],
      "name": "InvesmentiEkle",
      "type": "event"
    },
    {
      "anonymous": false,
      "inputs": [
        {
          "indexed": false,
          "internalType": "address",
          "name": "userAddress",
          "type": "address"
        }
      ],
      "name": "RegisteredUser",
      "type": "event"
    },
    {
      "anonymous": false,
      "inputs": [
        {
          "indexed": false,
          "internalType": "uint256",
          "name": "userNo",
          "type": "uint256"
        }
      ],
      "name": "newRegister",
      "type": "event"
    },
    {
      "inputs": [
        {
          "internalType": "address payable",
          "name": "receiver",
          "type": "address"
        },
        {
          "internalType": "uint256",
          "name": "amount",
          "type": "uint256"
        },
        {
          "internalType": "uint256",
          "name": "timeForRelease",
          "type": "uint256"
        }
      ],
      "name": "addToBlockchain",
      "outputs": [],
      "stateMutability": "nonpayable",
      "type": "function"
    },
    {
      "inputs": [
        {
          "internalType": "uint256",
          "name": "timeForRelease",
          "type": "uint256"
        }
      ],
      "name": "divideToRecipients",
      "outputs": [],
      "stateMutability": "nonpayable",
      "type": "function"
    },
    {
      "inputs": [],
      "name": "getAllinvesments",
      "outputs": [
        {
          "components": [
            {
              "internalType": "address",
              "name": "invester",
              "type": "address"
            },
            {
              "internalType": "address",
              "name": "receiver",
              "type": "address"
            },
            {
              "internalType": "uint256",
              "name": "amount",
              "type": "uint256"
            },
            {
              "internalType": "uint256",
              "name": "timeOfInvesment",
              "type": "uint256"
            },
            {
              "internalType": "uint256",
              "name": "timeForRelease",
              "type": "uint256"
            },
            {
              "internalType": "bool",
              "name": "isReversable",
              "type": "bool"
            },
            {
              "internalType": "bool",
              "name": "isActive",
              "type": "bool"
            },
            {
              "internalType": "uint256",
              "name": "invesmentNo",
              "type": "uint256"
            }
          ],
          "internalType": "struct Transactions.invesment[]",
          "name": "",
          "type": "tuple[]"
        }
      ],
      "stateMutability": "view",
      "type": "function"
    },
    {
      "inputs": [],
      "name": "getRecipients",
      "outputs": [],
      "stateMutability": "nonpayable",
      "type": "function"
    },
    {
      "inputs": [],
      "name": "getTransactionCount",
      "outputs": [
        {
          "internalType": "uint256",
          "name": "",
          "type": "uint256"
        }
      ],
      "stateMutability": "view",
      "type": "function"
    },
    {
      "inputs": [],
      "name": "invesmentsMadeToMe",
      "outputs": [],
      "stateMutability": "nonpayable",
      "type": "function"
    },
    {
      "inputs": [
        {
          "internalType": "address",
          "name": "receiver",
          "type": "address"
        },
        {
          "internalType": "uint256",
          "name": "timeForRelease",
          "type": "uint256"
        }
      ],
      "name": "makeInvesment",
      "outputs": [],
      "stateMutability": "payable",
      "type": "function"
    },
    {
      "inputs": [],
      "name": "myInvesments",
      "outputs": [],
      "stateMutability": "nonpayable",
      "type": "function"
    },
    {
      "inputs": [
        {
          "internalType": "address",
          "name": "userAddress",
          "type": "address"
        }
      ],
      "name": "register",
      "outputs": [],
      "stateMutability": "nonpayable",
      "type": "function"
    },
    {
      "inputs": [
        {
          "internalType": "address",
          "name": "receiver",
          "type": "address"
        }
      ],
      "name": "registerReceiver",
      "outputs": [],
      "stateMutability": "nonpayable",
      "type": "function"
    },
    {
      "inputs": [
        {
          "internalType": "uint256",
          "name": "invesmentNo",
          "type": "uint256"
        }
      ],
      "name": "reverseInvesment",
      "outputs": [],
      "stateMutability": "payable",
      "type": "function"
    },
    {
      "inputs": [
        {
          "internalType": "uint256",
          "name": "invesmentNo",
          "type": "uint256"
        },
        {
          "internalType": "uint256",
          "name": "amount",
          "type": "uint256"
        },
        {
          "internalType": "uint256",
          "name": "timeForRelease",
          "type": "uint256"
        }
      ],
      "name": "reviseInvesment",
      "outputs": [],
      "stateMutability": "nonpayable",
      "type": "function"
    },
    {
      "inputs": [
        {
          "internalType": "uint256",
          "name": "invesmentNo",
          "type": "uint256"
        }
      ],
      "name": "withdrawInvesment",
      "outputs": [],
      "stateMutability": "payable",
      "type": "function"
    }
  ],
  "bytecode": "0x608060405234801561001057600080fd5b506135fa806100206000396000f3fe6080604052600436106100c25760003560e01c80639fa8bdab1161007f578063cbf8a7cf11610059578063cbf8a7cf1461021d578063cfdd432914610234578063d78d610b14610250578063e26e7abd14610267576100c2565b80639fa8bdab146101af578063c57b1d79146101d8578063cac5bf5514610201576100c2565b8063115493e1146100c75780632e7700f0146100f05780633587ce6a1461011b57806338a2ec91146101445780634420e4861461016f578063995d5d0a14610198575b600080fd5b3480156100d357600080fd5b506100ee60048036038101906100e991906128a5565b610283565b005b3480156100fc57600080fd5b5061010561047a565b6040516101129190613328565b60405180910390f35b34801561012757600080fd5b50610142600480360381019061013d9190612930565b610484565b005b34801561015057600080fd5b506101596109b4565b6040516101669190613146565b60405180910390f35b34801561017b57600080fd5b506101966004803603810190610191919061287c565b610b1e565b005b3480156101a457600080fd5b506101ad610d74565b005b3480156101bb57600080fd5b506101d660048036038101906101d1919061287c565b6111da565b005b3480156101e457600080fd5b506101ff60048036038101906101fa9190612959565b611387565b005b61021b60048036038101906102169190612930565b61198e565b005b34801561022957600080fd5b50610232611c4b565b005b61024e60048036038101906102499190612930565b611f7e565b005b34801561025c57600080fd5b506102656122ca565b005b610281600480360381019061027c91906128f4565b612499565b005b6001806000828254610295919061338d565b9250508190555060006040518061010001604052803373ffffffffffffffffffffffffffffffffffffffff1681526020018573ffffffffffffffffffffffffffffffffffffffff168152602001848152602001428152602001838152602001600015158152602001600115158152602001600154815250908060018154018082558091505060019003906000526020600020906007020160009091909190915060008201518160000160006101000a81548173ffffffffffffffffffffffffffffffffffffffff021916908373ffffffffffffffffffffffffffffffffffffffff16021790555060208201518160010160006101000a81548173ffffffffffffffffffffffffffffffffffffffff021916908373ffffffffffffffffffffffffffffffffffffffff16021790555060408201518160020155606082015181600301556080820151816004015560a08201518160050160006101000a81548160ff02191690831515021790555060c08201518160050160016101000a81548160ff02191690831515021790555060e0820151816006015550507f43ae1dd719252719bbe0f20d8b8df63edbc4a4cf057087cf42d750baff33abad338484428560006001805460405161046d989796959493929190613067565b60405180910390a1505050565b6000600154905090565b6000600360003373ffffffffffffffffffffffffffffffffffffffff1673ffffffffffffffffffffffffffffffffffffffff16815260200190815260200160002060040154141561050a576040517f08c379a000000000000000000000000000000000000000000000000000000000815260040161050190613268565b60405180910390fd5b6000600360003373ffffffffffffffffffffffffffffffffffffffff1673ffffffffffffffffffffffffffffffffffffffff168152602001908152602001600020600101805490501415610593576040517f08c379a000000000000000000000000000000000000000000000000000000000815260040161058a90613168565b60405180910390fd5b6000600360003373ffffffffffffffffffffffffffffffffffffffff1673ffffffffffffffffffffffffffffffffffffffff16815260200190815260200160002060010180549050600360003373ffffffffffffffffffffffffffffffffffffffff1673ffffffffffffffffffffffffffffffffffffffff1681526020019081526020016000206004015461062891906133e3565b905060005b600360003373ffffffffffffffffffffffffffffffffffffffff1673ffffffffffffffffffffffffffffffffffffffff168152602001908152602001600020600101805490508110156109af576000600360003373ffffffffffffffffffffffffffffffffffffffff1673ffffffffffffffffffffffffffffffffffffffff16815260200190815260200160002060010182815481106106f6577f4e487b7100000000000000000000000000000000000000000000000000000000600052603260045260246000fd5b9060005260206000200160009054906101000a900473ffffffffffffffffffffffffffffffffffffffff16905060006001600080549050610737919061338d565b905060006040518061010001604052803373ffffffffffffffffffffffffffffffffffffffff1681526020018473ffffffffffffffffffffffffffffffffffffffff16815260200186815260200142815260200187815260200160011515815260200160011515815260200183815250908060018154018082558091505060019003906000526020600020906007020160009091909190915060008201518160000160006101000a81548173ffffffffffffffffffffffffffffffffffffffff021916908373ffffffffffffffffffffffffffffffffffffffff16021790555060208201518160010160006101000a81548173ffffffffffffffffffffffffffffffffffffffff021916908373ffffffffffffffffffffffffffffffffffffffff16021790555060408201518160020155606082015181600301556080820151816004015560a08201518160050160006101000a81548160ff02191690831515021790555060c08201518160050160016101000a81548160ff02191690831515021790555060e082015181600601555050600360003373ffffffffffffffffffffffffffffffffffffffff1673ffffffffffffffffffffffffffffffffffffffff168152602001908152602001600020600201819080600181540180825580915050600190039060005260206000200160009091909190915055600360008373ffffffffffffffffffffffffffffffffffffffff1673ffffffffffffffffffffffffffffffffffffffff168152602001908152602001600020600301819080600181540180825580915050600190039060005260206000200160009091909190915055505080806109a7906134d8565b91505061062d565b505050565b60606000805480602002602001604051908101604052809291908181526020016000905b82821015610b155783829060005260206000209060070201604051806101000160405290816000820160009054906101000a900473ffffffffffffffffffffffffffffffffffffffff1673ffffffffffffffffffffffffffffffffffffffff1673ffffffffffffffffffffffffffffffffffffffff1681526020016001820160009054906101000a900473ffffffffffffffffffffffffffffffffffffffff1673ffffffffffffffffffffffffffffffffffffffff1673ffffffffffffffffffffffffffffffffffffffff1681526020016002820154815260200160038201548152602001600482015481526020016005820160009054906101000a900460ff161515151581526020016005820160019054906101000a900460ff16151515158152602001600682015481525050815260200190600101906109d8565b50505050905090565b600360008273ffffffffffffffffffffffffffffffffffffffff1673ffffffffffffffffffffffffffffffffffffffff16815260200190815260200160002060050160009054906101000a900460ff1615610bae576040517f08c379a0000000000000000000000000000000000000000000000000000000008152600401610ba5906132a8565b60405180910390fd5b60608060606000806040518060c001604052808773ffffffffffffffffffffffffffffffffffffffff16815260200186815260200185815260200184815260200183815260200160011515815250905080600360008873ffffffffffffffffffffffffffffffffffffffff1673ffffffffffffffffffffffffffffffffffffffff16815260200190815260200160002060008201518160000160006101000a81548173ffffffffffffffffffffffffffffffffffffffff021916908373ffffffffffffffffffffffffffffffffffffffff1602179055506020820151816001019080519060200190610ca1929190612749565b506040820151816002019080519060200190610cbe9291906127d3565b506060820151816003019080519060200190610cdb9291906127d3565b506080820151816004015560a08201518160050160006101000a81548160ff0219169083151502179055509050506002869080600181540180825580915050600190039060005260206000200160009091909190916101000a81548173ffffffffffffffffffffffffffffffffffffffff021916908373ffffffffffffffffffffffffffffffffffffffff160217905550505050505050565b6000600360003373ffffffffffffffffffffffffffffffffffffffff1673ffffffffffffffffffffffffffffffffffffffff1681526020019081526020016000206003018054905011610dfc576040517f08c379a0000000000000000000000000000000000000000000000000000000008152600401610df3906131c8565b60405180910390fd5b60006001905060005b600360003373ffffffffffffffffffffffffffffffffffffffff1673ffffffffffffffffffffffffffffffffffffffff16815260200190815260200160002060030180549050811015611195576000600360003373ffffffffffffffffffffffffffffffffffffffff1673ffffffffffffffffffffffffffffffffffffffff1681526020019081526020016000206003018281548110610ece577f4e487b7100000000000000000000000000000000000000000000000000000000600052603260045260246000fd5b9060005260206000200154905060008181548110610f15577f4e487b7100000000000000000000000000000000000000000000000000000000600052603260045260246000fd5b906000526020600020906007020160050160019054906101000a900460ff1615611181577f404d0c3fc056af82f6c3daf413b0ea50c0c730ccced2a74136a9472aa7b3513e60008281548110610f94577f4e487b7100000000000000000000000000000000000000000000000000000000600052603260045260246000fd5b906000526020600020906007020160000160009054906101000a900473ffffffffffffffffffffffffffffffffffffffff1660008381548110611000577f4e487b7100000000000000000000000000000000000000000000000000000000600052603260045260246000fd5b906000526020600020906007020160010160009054906101000a900473ffffffffffffffffffffffffffffffffffffffff166000848154811061106c577f4e487b7100000000000000000000000000000000000000000000000000000000600052603260045260246000fd5b906000526020600020906007020160020154600085815481106110b8577f4e487b7100000000000000000000000000000000000000000000000000000000600052603260045260246000fd5b90600052602060002090600702016003015460008681548110611104577f4e487b7100000000000000000000000000000000000000000000000000000000600052603260045260246000fd5b90600052602060002090600702016004015460008781548110611150577f4e487b7100000000000000000000000000000000000000000000000000000000600052603260045260246000fd5b906000526020600020906007020160060154604051611174969594939291906130e5565b60405180910390a1600092505b50808061118d906134d8565b915050610e05565b5080156111d7576040517f08c379a00000000000000000000000000000000000000000000000000000000081526004016111ce906131c8565b60405180910390fd5b50565b600360008273ffffffffffffffffffffffffffffffffffffffff1673ffffffffffffffffffffffffffffffffffffffff16815260200190815260200160002060050160009054906101000a900460ff16156112d757600360003373ffffffffffffffffffffffffffffffffffffffff1673ffffffffffffffffffffffffffffffffffffffff168152602001908152602001600020600101819080600181540180825580915050600190039060005260206000200160009091909190916101000a81548173ffffffffffffffffffffffffffffffffffffffff021916908373ffffffffffffffffffffffffffffffffffffffff160217905550611384565b6112e081610b1e565b600360003373ffffffffffffffffffffffffffffffffffffffff1673ffffffffffffffffffffffffffffffffffffffff168152602001908152602001600020600101819080600181540180825580915050600190039060005260206000200160009091909190916101000a81548173ffffffffffffffffffffffffffffffffffffffff021916908373ffffffffffffffffffffffffffffffffffffffff1602179055505b50565b3373ffffffffffffffffffffffffffffffffffffffff16600084815481106113d8577f4e487b7100000000000000000000000000000000000000000000000000000000600052603260045260246000fd5b906000526020600020906007020160000160009054906101000a900473ffffffffffffffffffffffffffffffffffffffff1673ffffffffffffffffffffffffffffffffffffffff1614611460576040517f08c379a0000000000000000000000000000000000000000000000000000000008152600401611457906131a8565b60405180910390fd5b6000838154811061149a577f4e487b7100000000000000000000000000000000000000000000000000000000600052603260045260246000fd5b906000526020600020906007020160050160019054906101000a900460ff166114f8576040517f08c379a00000000000000000000000000000000000000000000000000000000081526004016114ef906131e8565b60405180910390fd5b428160008581548110611534577f4e487b7100000000000000000000000000000000000000000000000000000000600052603260045260246000fd5b906000526020600020906007020160030154611550919061338d565b1015611591576040517f08c379a000000000000000000000000000000000000000000000000000000000815260040161158890613188565b60405180910390fd5b600083815481106115cb577f4e487b7100000000000000000000000000000000000000000000000000000000600052603260045260246000fd5b9060005260206000209060070201600201548211156117fe576000838154811061161e577f4e487b7100000000000000000000000000000000000000000000000000000000600052603260045260246000fd5b9060005260206000209060070201600201548261163b9190613414565b600360003373ffffffffffffffffffffffffffffffffffffffff1673ffffffffffffffffffffffffffffffffffffffff1681526020019081526020016000206004015410156116bf576040517f08c379a00000000000000000000000000000000000000000000000000000000081526004016116b690613208565b60405180910390fd5b81600084815481106116fa577f4e487b7100000000000000000000000000000000000000000000000000000000600052603260045260246000fd5b9060005260206000209060070201600201546117169190613414565b600360003373ffffffffffffffffffffffffffffffffffffffff1673ffffffffffffffffffffffffffffffffffffffff168152602001908152602001600020600401546117639190613414565b600360003373ffffffffffffffffffffffffffffffffffffffff1673ffffffffffffffffffffffffffffffffffffffff1681526020019081526020016000206004018190555081600084815481106117e4577f4e487b7100000000000000000000000000000000000000000000000000000000600052603260045260246000fd5b906000526020600020906007020160020181905550611939565b8160008481548110611839577f4e487b7100000000000000000000000000000000000000000000000000000000600052603260045260246000fd5b9060005260206000209060070201600201546118559190613414565b600360003373ffffffffffffffffffffffffffffffffffffffff1673ffffffffffffffffffffffffffffffffffffffff168152602001908152602001600020600401546118a2919061338d565b600360003373ffffffffffffffffffffffffffffffffffffffff1673ffffffffffffffffffffffffffffffffffffffff168152602001908152602001600020600401819055508160008481548110611923577f4e487b7100000000000000000000000000000000000000000000000000000000600052603260045260246000fd5b9060005260206000209060070201600201819055505b8060008481548110611974577f4e487b7100000000000000000000000000000000000000000000000000000000600052603260045260246000fd5b906000526020600020906007020160040181905550505050565b3373ffffffffffffffffffffffffffffffffffffffff16600082815481106119df577f4e487b7100000000000000000000000000000000000000000000000000000000600052603260045260246000fd5b906000526020600020906007020160000160009054906101000a900473ffffffffffffffffffffffffffffffffffffffff1673ffffffffffffffffffffffffffffffffffffffff1614611a67576040517f08c379a0000000000000000000000000000000000000000000000000000000008152600401611a5e90613248565b60405180910390fd5b6001151560008281548110611aa5577f4e487b7100000000000000000000000000000000000000000000000000000000600052603260045260246000fd5b906000526020600020906007020160050160019054906101000a900460ff16151514611b06576040517f08c379a0000000000000000000000000000000000000000000000000000000008152600401611afd90613228565b60405180910390fd5b6000808281548110611b41577f4e487b7100000000000000000000000000000000000000000000000000000000600052603260045260246000fd5b906000526020600020906007020160050160016101000a81548160ff02191690831515021790555060008181548110611ba3577f4e487b7100000000000000000000000000000000000000000000000000000000600052603260045260246000fd5b906000526020600020906007020160020154600360003373ffffffffffffffffffffffffffffffffffffffff1673ffffffffffffffffffffffffffffffffffffffff16815260200190815260200160002060040154611c02919061338d565b600360003373ffffffffffffffffffffffffffffffffffffffff1673ffffffffffffffffffffffffffffffffffffffff1681526020019081526020016000206004018190555050565b60005b600360003373ffffffffffffffffffffffffffffffffffffffff1673ffffffffffffffffffffffffffffffffffffffff16815260200190815260200160002060020180549050811015611f7b576000600360003373ffffffffffffffffffffffffffffffffffffffff1673ffffffffffffffffffffffffffffffffffffffff1681526020019081526020016000206002018281548110611d17577f4e487b7100000000000000000000000000000000000000000000000000000000600052603260045260246000fd5b906000526020600020015490507f404d0c3fc056af82f6c3daf413b0ea50c0c730ccced2a74136a9472aa7b3513e60008281548110611d7f577f4e487b7100000000000000000000000000000000000000000000000000000000600052603260045260246000fd5b906000526020600020906007020160000160009054906101000a900473ffffffffffffffffffffffffffffffffffffffff1660008381548110611deb577f4e487b7100000000000000000000000000000000000000000000000000000000600052603260045260246000fd5b906000526020600020906007020160010160009054906101000a900473ffffffffffffffffffffffffffffffffffffffff1660008481548110611e57577f4e487b7100000000000000000000000000000000000000000000000000000000600052603260045260246000fd5b90600052602060002090600702016002015460008581548110611ea3577f4e487b7100000000000000000000000000000000000000000000000000000000600052603260045260246000fd5b90600052602060002090600702016003015460008681548110611eef577f4e487b7100000000000000000000000000000000000000000000000000000000600052603260045260246000fd5b90600052602060002090600702016004015460008781548110611f3b577f4e487b7100000000000000000000000000000000000000000000000000000000600052603260045260246000fd5b906000526020600020906007020160060154604051611f5f969594939291906130e5565b60405180910390a1508080611f73906134d8565b915050611c4e565b50565b3373ffffffffffffffffffffffffffffffffffffffff1660008281548110611fcf577f4e487b7100000000000000000000000000000000000000000000000000000000600052603260045260246000fd5b906000526020600020906007020160010160009054906101000a900473ffffffffffffffffffffffffffffffffffffffff1673ffffffffffffffffffffffffffffffffffffffff1614612057576040517f08c379a000000000000000000000000000000000000000000000000000000000815260040161204e906132e8565b60405180910390fd5b60008181548110612091577f4e487b7100000000000000000000000000000000000000000000000000000000600052603260045260246000fd5b906000526020600020906007020160050160019054906101000a900460ff166120ef576040517f08c379a00000000000000000000000000000000000000000000000000000000081526004016120e690613308565b60405180910390fd5b426000828154811061212a577f4e487b7100000000000000000000000000000000000000000000000000000000600052603260045260246000fd5b90600052602060002090600702016004015460008381548110612176577f4e487b7100000000000000000000000000000000000000000000000000000000600052603260045260246000fd5b906000526020600020906007020160030154612192919061338d565b106121d2576040517f08c379a00000000000000000000000000000000000000000000000000000000081526004016121c990613288565b60405180910390fd5b600080828154811061220d577f4e487b7100000000000000000000000000000000000000000000000000000000600052603260045260246000fd5b906000526020600020906007020160050160016101000a81548160ff0219169083151502179055503373ffffffffffffffffffffffffffffffffffffffff166108fc60008381548110612289577f4e487b7100000000000000000000000000000000000000000000000000000000600052603260045260246000fd5b9060005260206000209060070201600201549081150290604051600060405180830381858888f193505050501580156122c6573d6000803e3d6000fd5b5050565b6000600360003373ffffffffffffffffffffffffffffffffffffffff1673ffffffffffffffffffffffffffffffffffffffff1681526020019081526020016000206001018054905011612352576040517f08c379a0000000000000000000000000000000000000000000000000000000008152600401612349906132c8565b60405180910390fd5b60005b600360003373ffffffffffffffffffffffffffffffffffffffff1673ffffffffffffffffffffffffffffffffffffffff16815260200190815260200160002060010180549050811015612496576000600360003373ffffffffffffffffffffffffffffffffffffffff1673ffffffffffffffffffffffffffffffffffffffff168152602001908152602001600020600101828154811061241e577f4e487b7100000000000000000000000000000000000000000000000000000000600052603260045260246000fd5b9060005260206000200160009054906101000a900473ffffffffffffffffffffffffffffffffffffffff1690507fbb74e68fafbea9c1a78e7c8ed9d68158f5acc55124596158170e635ff13d271c8160405161247a919061304c565b60405180910390a150808061248e906134d8565b915050612355565b50565b600080805490509050600360003373ffffffffffffffffffffffffffffffffffffffff1673ffffffffffffffffffffffffffffffffffffffff168152602001908152602001600020600201819080600181540180825580915050600190039060005260206000200160009091909190915055600360008473ffffffffffffffffffffffffffffffffffffffff1673ffffffffffffffffffffffffffffffffffffffff1681526020019081526020016000206003018190806001815401808255809150506001900390600052602060002001600090919091909150557f404d0c3fc056af82f6c3daf413b0ea50c0c730ccced2a74136a9472aa7b3513e3384344286866040516125ad969594939291906130e5565b60405180910390a160006040518061010001604052803373ffffffffffffffffffffffffffffffffffffffff1681526020018573ffffffffffffffffffffffffffffffffffffffff16815260200134815260200142815260200184815260200160011515815260200160011515815260200183815250908060018154018082558091505060019003906000526020600020906007020160009091909190915060008201518160000160006101000a81548173ffffffffffffffffffffffffffffffffffffffff021916908373ffffffffffffffffffffffffffffffffffffffff16021790555060208201518160010160006101000a81548173ffffffffffffffffffffffffffffffffffffffff021916908373ffffffffffffffffffffffffffffffffffffffff16021790555060408201518160020155606082015181600301556080820151816004015560a08201518160050160006101000a81548160ff02191690831515021790555060c08201518160050160016101000a81548160ff02191690831515021790555060e082015181600601555050505050565b8280548282559060005260206000209081019282156127c2579160200282015b828111156127c15782518260006101000a81548173ffffffffffffffffffffffffffffffffffffffff021916908373ffffffffffffffffffffffffffffffffffffffff16021790555091602001919060010190612769565b5b5090506127cf9190612820565b5090565b82805482825590600052602060002090810192821561280f579160200282015b8281111561280e5782518255916020019190600101906127f3565b5b50905061281c9190612820565b5090565b5b80821115612839576000816000905550600101612821565b5090565b60008135905061284c8161357f565b92915050565b60008135905061286181613596565b92915050565b600081359050612876816135ad565b92915050565b60006020828403121561288e57600080fd5b600061289c8482850161283d565b91505092915050565b6000806000606084860312156128ba57600080fd5b60006128c886828701612852565b93505060206128d986828701612867565b92505060406128ea86828701612867565b9150509250925092565b6000806040838503121561290757600080fd5b60006129158582860161283d565b925050602061292685828601612867565b9150509250929050565b60006020828403121561294257600080fd5b600061295084828501612867565b91505092915050565b60008060006060848603121561296e57600080fd5b600061297c86828701612867565b935050602061298d86828701612867565b925050604061299e86828701612867565b9150509250925092565b60006129b48383612f8c565b6101008301905092915050565b6129ca816134a2565b82525050565b6129d981613448565b82525050565b6129e881613448565b82525050565b60006129f982613353565b612a03818561336b565b9350612a0e83613343565b8060005b83811015612a3f578151612a2688826129a8565b9750612a318361335e565b925050600181019050612a12565b5085935050505092915050565b612a558161346c565b82525050565b612a648161346c565b82525050565b6000612a7760248361337c565b91507f596f752068617665206e6f20726563697069656e747320746f20696e7665737460008301527f20746f2e000000000000000000000000000000000000000000000000000000006020830152604082019050919050565b6000612add603a8361337c565b91507f596f752063616e206e6f742073657420616e20696e7665736d656e7420746f2060008301527f62652072656c6173656420696e2061207061737420646174652e0000000000006020830152604082019050919050565b6000612b4360318361337c565b91507f596f752063616e206e6f742072657669736520616e20696e7665736d656e742060008301527f796f7520646964206e6f74206d616b652e0000000000000000000000000000006020830152604082019050919050565b6000612ba960248361337c565b91507f546865726520617265206e6f20696e7665736d656e7473206d61646520666f7260008301527f20796f75000000000000000000000000000000000000000000000000000000006020830152604082019050919050565b6000612c0f601e8361337c565b91507f5468697320697320616e20696e61637469766520696e7665736d656e742e00006000830152602082019050919050565b6000612c4f60268361337c565b91507f496e737566666963656e742066756e647320746f2072657669736520696e766560008301527f736d656e742e00000000000000000000000000000000000000000000000000006020830152604082019050919050565b6000612cb560298361337c565b91507f596f752063616e206e6f742063616e63656c20616e20696e616374697665206960008301527f6e7665736d656e742e00000000000000000000000000000000000000000000006020830152604082019050919050565b6000612d1b60418361337c565b91507f596f7520617265206e6f742074686520696e766573746f722c206f6e6c79206960008301527f6e766573746f72732063616e2063616e63656c20616e20696e7665736d656e7460208301527f2e000000000000000000000000000000000000000000000000000000000000006040830152606082019050919050565b6000612da7601c8361337c565b91507f596f752068617665206e6f2066756e647320746f206469766964652e000000006000830152602082019050919050565b6000612de760238361337c565b91507f596f752063616e206e6f74207769746864726177207468652066756e6473207960008301527f65742100000000000000000000000000000000000000000000000000000000006020830152604082019050919050565b6000612e4d601b8361337c565b91507f596f752061726520616c726561647920726567697374657265642100000000006000830152602082019050919050565b6000612e8d60178361337c565b91507f4e6f20726563697069656e7420726567697374657265640000000000000000006000830152602082019050919050565b6000612ecd60278361337c565b91507f5468697320696e7665736d656e74206973206e6f7420666f722074686973206160008301527f64647265737321000000000000000000000000000000000000000000000000006020830152604082019050919050565b6000612f3360308361337c565b91507f596f752063616e206e6f742077697468647261772066726f6d20616e20696e6160008301527f637469766520696e7665736d656e742e000000000000000000000000000000006020830152604082019050919050565b61010082016000820151612fa360008501826129d0565b506020820151612fb660208501826129d0565b506040820151612fc9604085018261302e565b506060820151612fdc606085018261302e565b506080820151612fef608085018261302e565b5060a082015161300260a0850182612a4c565b5060c082015161301560c0850182612a4c565b5060e082015161302860e085018261302e565b50505050565b61303781613498565b82525050565b61304681613498565b82525050565b600060208201905061306160008301846129df565b92915050565b60006101008201905061307d600083018b6129df565b61308a602083018a6129c1565b613097604083018961303d565b6130a4606083018861303d565b6130b1608083018761303d565b6130be60a0830186612a5b565b6130cb60c0830185612a5b565b6130d860e083018461303d565b9998505050505050505050565b600060c0820190506130fa60008301896129df565b61310760208301886129df565b613114604083018761303d565b613121606083018661303d565b61312e608083018561303d565b61313b60a083018461303d565b979650505050505050565b6000602082019050818103600083015261316081846129ee565b905092915050565b6000602082019050818103600083015261318181612a6a565b9050919050565b600060208201905081810360008301526131a181612ad0565b9050919050565b600060208201905081810360008301526131c181612b36565b9050919050565b600060208201905081810360008301526131e181612b9c565b9050919050565b6000602082019050818103600083015261320181612c02565b9050919050565b6000602082019050818103600083015261322181612c42565b9050919050565b6000602082019050818103600083015261324181612ca8565b9050919050565b6000602082019050818103600083015261326181612d0e565b9050919050565b6000602082019050818103600083015261328181612d9a565b9050919050565b600060208201905081810360008301526132a181612dda565b9050919050565b600060208201905081810360008301526132c181612e40565b9050919050565b600060208201905081810360008301526132e181612e80565b9050919050565b6000602082019050818103600083015261330181612ec0565b9050919050565b6000602082019050818103600083015261332181612f26565b9050919050565b600060208201905061333d600083018461303d565b92915050565b6000819050602082019050919050565b600081519050919050565b6000602082019050919050565b600082825260208201905092915050565b600082825260208201905092915050565b600061339882613498565b91506133a383613498565b9250827fffffffffffffffffffffffffffffffffffffffffffffffffffffffffffffffff038211156133d8576133d7613521565b5b828201905092915050565b60006133ee82613498565b91506133f983613498565b92508261340957613408613550565b5b828204905092915050565b600061341f82613498565b915061342a83613498565b92508282101561343d5761343c613521565b5b828203905092915050565b600061345382613478565b9050919050565b600061346582613478565b9050919050565b60008115159050919050565b600073ffffffffffffffffffffffffffffffffffffffff82169050919050565b6000819050919050565b60006134ad826134b4565b9050919050565b60006134bf826134c6565b9050919050565b60006134d182613478565b9050919050565b60006134e382613498565b91507fffffffffffffffffffffffffffffffffffffffffffffffffffffffffffffffff82141561351657613515613521565b5b600182019050919050565b7f4e487b7100000000000000000000000000000000000000000000000000000000600052601160045260246000fd5b7f4e487b7100000000000000000000000000000000000000000000000000000000600052601260045260246000fd5b61358881613448565b811461359357600080fd5b50565b61359f8161345a565b81146135aa57600080fd5b50565b6135b681613498565b81146135c157600080fd5b5056fea26469706673582212207052d2e3f9d16212782d744e9fd732acf9e07f8b722985ac503191681ac1227064736f6c63430008000033",
  "linkReferences": {},
  "deployedLinkReferences": {}
}