{
  "_format": "hh-sol-artifact-1",
  "contractName": "Transactions",
  "sourceName": "contracts/Transactions.sol",
  "abi": [
    {
      "inputs": [
        {
          "internalType": "uint256",
          "name": "timeForRelease",
          "type": "uint256"
        }
      ],
      "name": "divideToRecipients",
      "outputs": [],
      "stateMutability": "payable",
      "type": "function"
    },
    {
      "inputs": [],
      "name": "getRecipients",
      "outputs": [
        {
          "internalType": "address[]",
          "name": "",
          "type": "address[]"
        }
      ],
      "stateMutability": "view",
      "type": "function"
    },
    {
      "inputs": [],
      "name": "getTransactionCount",
      "outputs": [
        {
          "internalType": "uint256",
          "name": "",
          "type": "uint256"
        }
      ],
      "stateMutability": "view",
      "type": "function"
    },
    {
      "inputs": [],
      "name": "invesmentsMadeToMe",
      "outputs": [
        {
          "components": [
            {
              "internalType": "string",
              "name": "name",
              "type": "string"
            },
            {
              "internalType": "address",
              "name": "invester",
              "type": "address"
            },
            {
              "internalType": "address",
              "name": "receiver",
              "type": "address"
            },
            {
              "internalType": "uint256",
              "name": "amount",
              "type": "uint256"
            },
            {
              "internalType": "uint256",
              "name": "timeOfInvesment",
              "type": "uint256"
            },
            {
              "internalType": "uint256",
              "name": "timeForRelease",
              "type": "uint256"
            },
            {
              "internalType": "enum Transactions.Status",
              "name": "invesmentStatus",
              "type": "uint8"
            },
            {
              "internalType": "uint256",
              "name": "invesmentNo",
              "type": "uint256"
            }
          ],
          "internalType": "struct Transactions.invesment[]",
          "name": "",
          "type": "tuple[]"
        }
      ],
      "stateMutability": "view",
      "type": "function"
    },
    {
      "inputs": [
        {
          "internalType": "address",
          "name": "receiver",
          "type": "address"
        },
        {
          "internalType": "uint256",
          "name": "timeForRelease",
          "type": "uint256"
        },
        {
          "internalType": "string",
          "name": "name",
          "type": "string"
        }
      ],
      "name": "makeInvesment",
      "outputs": [],
      "stateMutability": "payable",
      "type": "function"
    },
    {
      "inputs": [],
      "name": "myInvesments",
      "outputs": [
        {
          "components": [
            {
              "internalType": "string",
              "name": "name",
              "type": "string"
            },
            {
              "internalType": "address",
              "name": "invester",
              "type": "address"
            },
            {
              "internalType": "address",
              "name": "receiver",
              "type": "address"
            },
            {
              "internalType": "uint256",
              "name": "amount",
              "type": "uint256"
            },
            {
              "internalType": "uint256",
              "name": "timeOfInvesment",
              "type": "uint256"
            },
            {
              "internalType": "uint256",
              "name": "timeForRelease",
              "type": "uint256"
            },
            {
              "internalType": "enum Transactions.Status",
              "name": "invesmentStatus",
              "type": "uint8"
            },
            {
              "internalType": "uint256",
              "name": "invesmentNo",
              "type": "uint256"
            }
          ],
          "internalType": "struct Transactions.invesment[]",
          "name": "",
          "type": "tuple[]"
        }
      ],
      "stateMutability": "view",
      "type": "function"
    },
    {
      "inputs": [
        {
          "internalType": "address",
          "name": "userAddress",
          "type": "address"
        }
      ],
      "name": "register",
      "outputs": [],
      "stateMutability": "nonpayable",
      "type": "function"
    },
    {
      "inputs": [
        {
          "internalType": "address",
          "name": "receiver",
          "type": "address"
        }
      ],
      "name": "registerReceiver",
      "outputs": [],
      "stateMutability": "nonpayable",
      "type": "function"
    },
    {
      "inputs": [
        {
          "internalType": "uint256",
          "name": "invesmentNo",
          "type": "uint256"
        }
      ],
      "name": "reverseInvesment",
      "outputs": [],
      "stateMutability": "payable",
      "type": "function"
    },
    {
      "inputs": [
        {
          "internalType": "uint256",
          "name": "invesmentNo",
          "type": "uint256"
        },
        {
          "internalType": "uint256",
          "name": "amount",
          "type": "uint256"
        },
        {
          "internalType": "uint256",
          "name": "timeForRelease",
          "type": "uint256"
        }
      ],
      "name": "reviseInvesment",
      "outputs": [],
      "stateMutability": "nonpayable",
      "type": "function"
    },
    {
      "inputs": [
        {
          "internalType": "uint256",
          "name": "invesmentNo",
          "type": "uint256"
        }
      ],
      "name": "withdrawInvesment",
      "outputs": [],
      "stateMutability": "payable",
      "type": "function"
    }
  ],
  "bytecode": "0x608060405234801561001057600080fd5b50613146806100206000396000f3fe60806040526004361061009c5760003560e01c8063c57b1d7911610064578063c57b1d7914610165578063cac5bf551461018e578063cbf8a7cf146101aa578063cfdd4329146101d5578063d78d610b146101f1578063e4d08cf21461021c5761009c565b80632e7700f0146100a15780633587ce6a146100cc5780634420e486146100e8578063995d5d0a146101115780639fa8bdab1461013c575b600080fd5b3480156100ad57600080fd5b506100b6610238565b6040516100c391906128e4565b60405180910390f35b6100e660048036038101906100e19190612295565b610241565b005b3480156100f457600080fd5b5061010f600480360381019061010a91906121f9565b61070a565b005b34801561011d57600080fd5b506101266108fd565b6040516101339190612722565b60405180910390f35b34801561014857600080fd5b50610163600480360381019061015e91906121f9565b610c63565b005b34801561017157600080fd5b5061018c600480360381019061018791906122c2565b610e10565b005b6101a860048036038101906101a39190612295565b611292565b005b3480156101b657600080fd5b506101bf61149b565b6040516101cc9190612722565b60405180910390f35b6101ef60048036038101906101ea9190612295565b6117f6565b005b3480156101fd57600080fd5b50610206611a65565b6040516102139190612700565b60405180910390f35b61023660048036038101906102319190612226565b611cbe565b005b60008054905090565b6000341415610285576040517f08c379a000000000000000000000000000000000000000000000000000000000815260040161027c90612824565b60405180910390fd5b6000600360003373ffffffffffffffffffffffffffffffffffffffff1673ffffffffffffffffffffffffffffffffffffffff16815260200190815260200160002060010180549050141561030e576040517f08c379a000000000000000000000000000000000000000000000000000000000815260040161030590612744565b60405180910390fd5b6000600360003373ffffffffffffffffffffffffffffffffffffffff1673ffffffffffffffffffffffffffffffffffffffff16815260200190815260200160002060010180549050346103619190612a4a565b905060005b600360003373ffffffffffffffffffffffffffffffffffffffff1673ffffffffffffffffffffffffffffffffffffffff16815260200190815260200160002060010180549050811015610705576000600360003373ffffffffffffffffffffffffffffffffffffffff1673ffffffffffffffffffffffffffffffffffffffff168152602001908152602001600020600101828154811061040957610408612cba565b5b9060005260206000200160009054906101000a900473ffffffffffffffffffffffffffffffffffffffff1690506000600180549050905060016040518061010001604052806040518060400160405280601281526020017f4469766964656420696e7665736d656e742e000000000000000000000000000081525081526020013373ffffffffffffffffffffffffffffffffffffffff1681526020018473ffffffffffffffffffffffffffffffffffffffff168152602001868152602001428152602001878152602001600060028111156104e7576104e6612c5c565b5b81526020018381525090806001815401808255809150506001900390600052602060002090600802016000909190919091506000820151816000019080519060200190610535929190611f62565b5060208201518160010160006101000a81548173ffffffffffffffffffffffffffffffffffffffff021916908373ffffffffffffffffffffffffffffffffffffffff16021790555060408201518160020160006101000a81548173ffffffffffffffffffffffffffffffffffffffff021916908373ffffffffffffffffffffffffffffffffffffffff160217905550606082015181600301556080820151816004015560a0820151816005015560c08201518160060160006101000a81548160ff0219169083600281111561060d5761060c612c5c565b5b021790555060e082015181600701555050600360003373ffffffffffffffffffffffffffffffffffffffff1673ffffffffffffffffffffffffffffffffffffffff168152602001908152602001600020600201819080600181540180825580915050600190039060005260206000200160009091909190915055600360008373ffffffffffffffffffffffffffffffffffffffff1673ffffffffffffffffffffffffffffffffffffffff168152602001908152602001600020600301819080600181540180825580915050600190039060005260206000200160009091909190915055505080806106fd90612bb5565b915050610366565b505050565b600360008273ffffffffffffffffffffffffffffffffffffffff1673ffffffffffffffffffffffffffffffffffffffff16815260200190815260200160002060050160009054906101000a900460ff161561079a576040517f08c379a000000000000000000000000000000000000000000000000000000000815260040161079190612864565b60405180910390fd5b60608060606000806040518060c001604052808773ffffffffffffffffffffffffffffffffffffffff16815260200186815260200185815260200184815260200183815260200160011515815250905080600360008873ffffffffffffffffffffffffffffffffffffffff1673ffffffffffffffffffffffffffffffffffffffff16815260200190815260200160002060008201518160000160006101000a81548173ffffffffffffffffffffffffffffffffffffffff021916908373ffffffffffffffffffffffffffffffffffffffff160217905550602082015181600101908051906020019061088d929190611fe8565b5060408201518160020190805190602001906108aa929190612072565b5060608201518160030190805190602001906108c7929190612072565b506080820151816004015560a08201518160050160006101000a81548160ff021916908315150217905550905050505050505050565b60606000600360003373ffffffffffffffffffffffffffffffffffffffff1673ffffffffffffffffffffffffffffffffffffffff1681526020019081526020016000206003018054905067ffffffffffffffff8111156109605761095f612ce9565b5b60405190808252806020026020018201604052801561099957816020015b6109866120bf565b81526020019060019003908161097e5790505b50905060006001905060005b600360003373ffffffffffffffffffffffffffffffffffffffff1673ffffffffffffffffffffffffffffffffffffffff16815260200190815260200160002060030180549050811015610c5a576000600360003373ffffffffffffffffffffffffffffffffffffffff1673ffffffffffffffffffffffffffffffffffffffff1681526020019081526020016000206003018281548110610a4857610a47612cba565b5b9060005260206000200154905060018181548110610a6957610a68612cba565b5b906000526020600020906008020160405180610100016040529081600082018054610a9390612b52565b80601f0160208091040260200160405190810160405280929190818152602001828054610abf90612b52565b8015610b0c5780601f10610ae157610100808354040283529160200191610b0c565b820191906000526020600020905b815481529060010190602001808311610aef57829003601f168201915b505050505081526020016001820160009054906101000a900473ffffffffffffffffffffffffffffffffffffffff1673ffffffffffffffffffffffffffffffffffffffff1673ffffffffffffffffffffffffffffffffffffffff1681526020016002820160009054906101000a900473ffffffffffffffffffffffffffffffffffffffff1673ffffffffffffffffffffffffffffffffffffffff1673ffffffffffffffffffffffffffffffffffffffff1681526020016003820154815260200160048201548152602001600582015481526020016006820160009054906101000a900460ff166002811115610c0457610c03612c5c565b5b6002811115610c1657610c15612c5c565b5b8152602001600782015481525050848381518110610c3757610c36612cba565b5b602002602001018190525060009250508080610c5290612bb5565b9150506109a5565b50819250505090565b600360008273ffffffffffffffffffffffffffffffffffffffff1673ffffffffffffffffffffffffffffffffffffffff16815260200190815260200160002060050160009054906101000a900460ff1615610d6057600360003373ffffffffffffffffffffffffffffffffffffffff1673ffffffffffffffffffffffffffffffffffffffff168152602001908152602001600020600101819080600181540180825580915050600190039060005260206000200160009091909190916101000a81548173ffffffffffffffffffffffffffffffffffffffff021916908373ffffffffffffffffffffffffffffffffffffffff160217905550610e0d565b610d698161070a565b600360003373ffffffffffffffffffffffffffffffffffffffff1673ffffffffffffffffffffffffffffffffffffffff168152602001908152602001600020600101819080600181540180825580915050600190039060005260206000200160009091909190916101000a81548173ffffffffffffffffffffffffffffffffffffffff021916908373ffffffffffffffffffffffffffffffffffffffff1602179055505b50565b3373ffffffffffffffffffffffffffffffffffffffff1660018481548110610e3b57610e3a612cba565b5b906000526020600020906008020160010160009054906101000a900473ffffffffffffffffffffffffffffffffffffffff1673ffffffffffffffffffffffffffffffffffffffff1614610ec3576040517f08c379a0000000000000000000000000000000000000000000000000000000008152600401610eba90612784565b60405180910390fd5b60006002811115610ed757610ed6612c5c565b5b60018481548110610eeb57610eea612cba565b5b906000526020600020906008020160060160009054906101000a900460ff166002811115610f1c57610f1b612c5c565b5b14610f5c576040517f08c379a0000000000000000000000000000000000000000000000000000000008152600401610f53906127a4565b60405180910390fd5b42811015610f9f576040517f08c379a0000000000000000000000000000000000000000000000000000000008152600401610f9690612764565b60405180910390fd5b60018381548110610fb357610fb2612cba565b5b9060005260206000209060080201600301548211156111745760018381548110610fe057610fdf612cba565b5b90600052602060002090600802016003015482610ffd9190612a7b565b600360003373ffffffffffffffffffffffffffffffffffffffff1673ffffffffffffffffffffffffffffffffffffffff168152602001908152602001600020600401541015611081576040517f08c379a0000000000000000000000000000000000000000000000000000000008152600401611078906127c4565b60405180910390fd5b816001848154811061109657611095612cba565b5b9060005260206000209060080201600301546110b29190612a7b565b600360003373ffffffffffffffffffffffffffffffffffffffff1673ffffffffffffffffffffffffffffffffffffffff168152602001908152602001600020600401546110ff9190612a7b565b600360003373ffffffffffffffffffffffffffffffffffffffff1673ffffffffffffffffffffffffffffffffffffffff16815260200190815260200160002060040181905550816001848154811061115a57611159612cba565b5b906000526020600020906008020160030181905550611263565b816001848154811061118957611188612cba565b5b9060005260206000209060080201600301546111a59190612a7b565b600360003373ffffffffffffffffffffffffffffffffffffffff1673ffffffffffffffffffffffffffffffffffffffff168152602001908152602001600020600401546111f291906129f4565b600360003373ffffffffffffffffffffffffffffffffffffffff1673ffffffffffffffffffffffffffffffffffffffff16815260200190815260200160002060040181905550816001848154811061124d5761124c612cba565b5b9060005260206000209060080201600301819055505b806001848154811061127857611277612cba565b5b906000526020600020906008020160050181905550505050565b3373ffffffffffffffffffffffffffffffffffffffff16600182815481106112bd576112bc612cba565b5b906000526020600020906008020160010160009054906101000a900473ffffffffffffffffffffffffffffffffffffffff1673ffffffffffffffffffffffffffffffffffffffff1614611345576040517f08c379a000000000000000000000000000000000000000000000000000000000815260040161133c90612804565b60405180910390fd5b6000600281111561135957611358612c5c565b5b6001828154811061136d5761136c612cba565b5b906000526020600020906008020160060160009054906101000a900460ff16600281111561139e5761139d612c5c565b5b146113de576040517f08c379a00000000000000000000000000000000000000000000000000000000081526004016113d5906127e4565b60405180910390fd5b6002600182815481106113f4576113f3612cba565b5b906000526020600020906008020160060160006101000a81548160ff0219169083600281111561142757611426612c5c565b5b02179055503373ffffffffffffffffffffffffffffffffffffffff166108fc6001838154811061145a57611459612cba565b5b9060005260206000209060080201600301549081150290604051600060405180830381858888f19350505050158015611497573d6000803e3d6000fd5b5050565b60606000600360003373ffffffffffffffffffffffffffffffffffffffff1673ffffffffffffffffffffffffffffffffffffffff1681526020019081526020016000206002018054905067ffffffffffffffff8111156114fe576114fd612ce9565b5b60405190808252806020026020018201604052801561153757816020015b6115246120bf565b81526020019060019003908161151c5790505b50905060005b600360003373ffffffffffffffffffffffffffffffffffffffff1673ffffffffffffffffffffffffffffffffffffffff168152602001908152602001600020600201805490508110156117ee576000600360003373ffffffffffffffffffffffffffffffffffffffff1673ffffffffffffffffffffffffffffffffffffffff16815260200190815260200160002060020182815481106115e0576115df612cba565b5b906000526020600020015490506001818154811061160157611600612cba565b5b90600052602060002090600802016040518061010001604052908160008201805461162b90612b52565b80601f016020809104026020016040519081016040528092919081815260200182805461165790612b52565b80156116a45780601f10611679576101008083540402835291602001916116a4565b820191906000526020600020905b81548152906001019060200180831161168757829003601f168201915b505050505081526020016001820160009054906101000a900473ffffffffffffffffffffffffffffffffffffffff1673ffffffffffffffffffffffffffffffffffffffff1673ffffffffffffffffffffffffffffffffffffffff1681526020016002820160009054906101000a900473ffffffffffffffffffffffffffffffffffffffff1673ffffffffffffffffffffffffffffffffffffffff1673ffffffffffffffffffffffffffffffffffffffff1681526020016003820154815260200160048201548152602001600582015481526020016006820160009054906101000a900460ff16600281111561179c5761179b612c5c565b5b60028111156117ae576117ad612c5c565b5b81526020016007820154815250508383815181106117cf576117ce612cba565b5b60200260200101819052505080806117e690612bb5565b91505061153d565b508091505090565b3373ffffffffffffffffffffffffffffffffffffffff166001828154811061182157611820612cba565b5b906000526020600020906008020160020160009054906101000a900473ffffffffffffffffffffffffffffffffffffffff1673ffffffffffffffffffffffffffffffffffffffff16146118a9576040517f08c379a00000000000000000000000000000000000000000000000000000000081526004016118a0906128a4565b60405180910390fd5b600060028111156118bd576118bc612c5c565b5b600182815481106118d1576118d0612cba565b5b906000526020600020906008020160060160009054906101000a900460ff16600281111561190257611901612c5c565b5b14611942576040517f08c379a0000000000000000000000000000000000000000000000000000000008152600401611939906128c4565b60405180910390fd5b426001828154811061195757611956612cba565b5b906000526020600020906008020160050154106119a9576040517f08c379a00000000000000000000000000000000000000000000000000000000081526004016119a090612844565b60405180910390fd5b60018082815481106119be576119bd612cba565b5b906000526020600020906008020160060160006101000a81548160ff021916908360028111156119f1576119f0612c5c565b5b02179055503373ffffffffffffffffffffffffffffffffffffffff166108fc60018381548110611a2457611a23612cba565b5b9060005260206000209060080201600301549081150290604051600060405180830381858888f19350505050158015611a61573d6000803e3d6000fd5b5050565b60606000600360003373ffffffffffffffffffffffffffffffffffffffff1673ffffffffffffffffffffffffffffffffffffffff1681526020019081526020016000206001018054905011611aef576040517f08c379a0000000000000000000000000000000000000000000000000000000008152600401611ae690612884565b60405180910390fd5b6000600360003373ffffffffffffffffffffffffffffffffffffffff1673ffffffffffffffffffffffffffffffffffffffff1681526020019081526020016000206001018054905067ffffffffffffffff811115611b5057611b4f612ce9565b5b604051908082528060200260200182016040528015611b7e5781602001602082028036833780820191505090505b50905060005b600360003373ffffffffffffffffffffffffffffffffffffffff1673ffffffffffffffffffffffffffffffffffffffff16815260200190815260200160002060010180549050811015611cb6576000600360003373ffffffffffffffffffffffffffffffffffffffff1673ffffffffffffffffffffffffffffffffffffffff1681526020019081526020016000206001018281548110611c2757611c26612cba565b5b9060005260206000200160009054906101000a900473ffffffffffffffffffffffffffffffffffffffff16905080838381518110611c6857611c67612cba565b5b602002602001019073ffffffffffffffffffffffffffffffffffffffff16908173ffffffffffffffffffffffffffffffffffffffff1681525050508080611cae90612bb5565b915050611b84565b508091505090565b60006001805490509050600360003373ffffffffffffffffffffffffffffffffffffffff1673ffffffffffffffffffffffffffffffffffffffff168152602001908152602001600020600201819080600181540180825580915050600190039060005260206000200160009091909190915055600360008573ffffffffffffffffffffffffffffffffffffffff1673ffffffffffffffffffffffffffffffffffffffff1681526020019081526020016000206003018190806001815401808255809150506001900390600052602060002001600090919091909150556001600080828254611dac91906129f4565b9250508190555060016040518061010001604052808481526020013373ffffffffffffffffffffffffffffffffffffffff1681526020018673ffffffffffffffffffffffffffffffffffffffff16815260200134815260200142815260200185815260200160006002811115611e2557611e24612c5c565b5b81526020018381525090806001815401808255809150506001900390600052602060002090600802016000909190919091506000820151816000019080519060200190611e73929190611f62565b5060208201518160010160006101000a81548173ffffffffffffffffffffffffffffffffffffffff021916908373ffffffffffffffffffffffffffffffffffffffff16021790555060408201518160020160006101000a81548173ffffffffffffffffffffffffffffffffffffffff021916908373ffffffffffffffffffffffffffffffffffffffff160217905550606082015181600301556080820151816004015560a0820151816005015560c08201518160060160006101000a81548160ff02191690836002811115611f4b57611f4a612c5c565b5b021790555060e08201518160070155505050505050565b828054611f6e90612b52565b90600052602060002090601f016020900481019282611f905760008555611fd7565b82601f10611fa957805160ff1916838001178555611fd7565b82800160010185558215611fd7579182015b82811115611fd6578251825591602001919060010190611fbb565b5b509050611fe49190612142565b5090565b828054828255906000526020600020908101928215612061579160200282015b828111156120605782518260006101000a81548173ffffffffffffffffffffffffffffffffffffffff021916908373ffffffffffffffffffffffffffffffffffffffff16021790555091602001919060010190612008565b5b50905061206e9190612142565b5090565b8280548282559060005260206000209081019282156120ae579160200282015b828111156120ad578251825591602001919060010190612092565b5b5090506120bb9190612142565b5090565b60405180610100016040528060608152602001600073ffffffffffffffffffffffffffffffffffffffff168152602001600073ffffffffffffffffffffffffffffffffffffffff1681526020016000815260200160008152602001600081526020016000600281111561213557612134612c5c565b5b8152602001600081525090565b5b8082111561215b576000816000905550600101612143565b5090565b600061217261216d84612924565b6128ff565b90508281526020810184848401111561218e5761218d612d1d565b5b612199848285612b10565b509392505050565b6000813590506121b0816130e2565b92915050565b600082601f8301126121cb576121ca612d18565b5b81356121db84826020860161215f565b91505092915050565b6000813590506121f3816130f9565b92915050565b60006020828403121561220f5761220e612d27565b5b600061221d848285016121a1565b91505092915050565b60008060006060848603121561223f5761223e612d27565b5b600061224d868287016121a1565b935050602061225e868287016121e4565b925050604084013567ffffffffffffffff81111561227f5761227e612d22565b5b61228b868287016121b6565b9150509250925092565b6000602082840312156122ab576122aa612d27565b5b60006122b9848285016121e4565b91505092915050565b6000806000606084860312156122db576122da612d27565b5b60006122e9868287016121e4565b93505060206122fa868287016121e4565b925050604061230b868287016121e4565b9150509250925092565b60006123218383612341565b60208301905092915050565b60006123398383612632565b905092915050565b61234a81612aaf565b82525050565b600061235b82612975565b61236581856129b0565b935061237083612955565b8060005b838110156123a15781516123888882612315565b975061239383612996565b925050600181019050612374565b5085935050505092915050565b60006123b982612980565b6123c381856129c1565b9350836020820285016123d585612965565b8060005b8581101561241157848403895281516123f2858261232d565b94506123fd836129a3565b925060208a019950506001810190506123d9565b50829750879550505050505092915050565b61242c81612afe565b82525050565b600061243d8261298b565b61244781856129d2565b9350612457818560208601612b1f565b61246081612d2c565b840191505092915050565b60006124786024836129e3565b915061248382612d3d565b604082019050919050565b600061249b603a836129e3565b91506124a682612d8c565b604082019050919050565b60006124be6031836129e3565b91506124c982612ddb565b604082019050919050565b60006124e1601e836129e3565b91506124ec82612e2a565b602082019050919050565b60006125046026836129e3565b915061250f82612e53565b604082019050919050565b60006125276029836129e3565b915061253282612ea2565b604082019050919050565b600061254a6041836129e3565b915061255582612ef1565b606082019050919050565b600061256d601c836129e3565b915061257882612f66565b602082019050919050565b60006125906023836129e3565b915061259b82612f8f565b604082019050919050565b60006125b3601b836129e3565b91506125be82612fde565b602082019050919050565b60006125d66017836129e3565b91506125e182613007565b602082019050919050565b60006125f96027836129e3565b915061260482613030565b604082019050919050565b600061261c6030836129e3565b91506126278261307f565b604082019050919050565b60006101008301600083015184820360008601526126508282612432565b91505060208301516126656020860182612341565b5060408301516126786040860182612341565b50606083015161268b60608601826126e2565b50608083015161269e60808601826126e2565b5060a08301516126b160a08601826126e2565b5060c08301516126c460c0860182612423565b5060e08301516126d760e08601826126e2565b508091505092915050565b6126eb81612af4565b82525050565b6126fa81612af4565b82525050565b6000602082019050818103600083015261271a8184612350565b905092915050565b6000602082019050818103600083015261273c81846123ae565b905092915050565b6000602082019050818103600083015261275d8161246b565b9050919050565b6000602082019050818103600083015261277d8161248e565b9050919050565b6000602082019050818103600083015261279d816124b1565b9050919050565b600060208201905081810360008301526127bd816124d4565b9050919050565b600060208201905081810360008301526127dd816124f7565b9050919050565b600060208201905081810360008301526127fd8161251a565b9050919050565b6000602082019050818103600083015261281d8161253d565b9050919050565b6000602082019050818103600083015261283d81612560565b9050919050565b6000602082019050818103600083015261285d81612583565b9050919050565b6000602082019050818103600083015261287d816125a6565b9050919050565b6000602082019050818103600083015261289d816125c9565b9050919050565b600060208201905081810360008301526128bd816125ec565b9050919050565b600060208201905081810360008301526128dd8161260f565b9050919050565b60006020820190506128f960008301846126f1565b92915050565b600061290961291a565b90506129158282612b84565b919050565b6000604051905090565b600067ffffffffffffffff82111561293f5761293e612ce9565b5b61294882612d2c565b9050602081019050919050565b6000819050602082019050919050565b6000819050602082019050919050565b600081519050919050565b600081519050919050565b600081519050919050565b6000602082019050919050565b6000602082019050919050565b600082825260208201905092915050565b600082825260208201905092915050565b600082825260208201905092915050565b600082825260208201905092915050565b60006129ff82612af4565b9150612a0a83612af4565b9250827fffffffffffffffffffffffffffffffffffffffffffffffffffffffffffffffff03821115612a3f57612a3e612bfe565b5b828201905092915050565b6000612a5582612af4565b9150612a6083612af4565b925082612a7057612a6f612c2d565b5b828204905092915050565b6000612a8682612af4565b9150612a9183612af4565b925082821015612aa457612aa3612bfe565b5b828203905092915050565b6000612aba82612ad4565b9050919050565b6000819050612acf826130ce565b919050565b600073ffffffffffffffffffffffffffffffffffffffff82169050919050565b6000819050919050565b6000612b0982612ac1565b9050919050565b82818337600083830152505050565b60005b83811015612b3d578082015181840152602081019050612b22565b83811115612b4c576000848401525b50505050565b60006002820490506001821680612b6a57607f821691505b60208210811415612b7e57612b7d612c8b565b5b50919050565b612b8d82612d2c565b810181811067ffffffffffffffff82111715612bac57612bab612ce9565b5b80604052505050565b6000612bc082612af4565b91507fffffffffffffffffffffffffffffffffffffffffffffffffffffffffffffffff821415612bf357612bf2612bfe565b5b600182019050919050565b7f4e487b7100000000000000000000000000000000000000000000000000000000600052601160045260246000fd5b7f4e487b7100000000000000000000000000000000000000000000000000000000600052601260045260246000fd5b7f4e487b7100000000000000000000000000000000000000000000000000000000600052602160045260246000fd5b7f4e487b7100000000000000000000000000000000000000000000000000000000600052602260045260246000fd5b7f4e487b7100000000000000000000000000000000000000000000000000000000600052603260045260246000fd5b7f4e487b7100000000000000000000000000000000000000000000000000000000600052604160045260246000fd5b600080fd5b600080fd5b600080fd5b600080fd5b6000601f19601f8301169050919050565b7f596f752068617665206e6f20726563697069656e747320746f20696e7665737460008201527f20746f2e00000000000000000000000000000000000000000000000000000000602082015250565b7f596f752063616e206e6f742073657420616e20696e7665736d656e7420746f2060008201527f62652072656c6173656420696e2061207061737420646174652e000000000000602082015250565b7f596f752063616e206e6f742072657669736520616e20696e7665736d656e742060008201527f796f7520646964206e6f74206d616b652e000000000000000000000000000000602082015250565b7f5468697320697320616e20696e61637469766520696e7665736d656e742e0000600082015250565b7f496e737566666963656e742066756e647320746f2072657669736520696e766560008201527f736d656e742e0000000000000000000000000000000000000000000000000000602082015250565b7f596f752063616e206e6f742063616e63656c20616e20696e616374697665206960008201527f6e7665736d656e742e0000000000000000000000000000000000000000000000602082015250565b7f596f7520617265206e6f742074686520696e766573746f722c206f6e6c79206960008201527f6e766573746f72732063616e2063616e63656c20616e20696e7665736d656e7460208201527f2e00000000000000000000000000000000000000000000000000000000000000604082015250565b7f596f752068617665206e6f2066756e647320746f206469766964652e00000000600082015250565b7f596f752063616e206e6f74207769746864726177207468652066756e6473207960008201527f6574210000000000000000000000000000000000000000000000000000000000602082015250565b7f596f752061726520616c72656164792072656769737465726564210000000000600082015250565b7f4e6f20726563697069656e742072656769737465726564000000000000000000600082015250565b7f5468697320696e7665736d656e74206973206e6f7420666f722074686973206160008201527f6464726573732100000000000000000000000000000000000000000000000000602082015250565b7f596f752063616e206e6f742077697468647261772066726f6d20616e20696e6160008201527f637469766520696e7665736d656e742e00000000000000000000000000000000602082015250565b600381106130df576130de612c5c565b5b50565b6130eb81612aaf565b81146130f657600080fd5b50565b61310281612af4565b811461310d57600080fd5b5056fea26469706673582212206695df8ebd7e9e79021cdc96a16f733d8af665f72b3e640a64289826aa75a9b064736f6c63430008070033",
  "linkReferences": {},
  "deployedLinkReferences": {}
}