{
  "_format": "hh-sol-artifact-1",
  "contractName": "Transactions",
  "sourceName": "contracts/Transactions.sol",
  "abi": [
    {
      "anonymous": false,
      "inputs": [
        {
          "indexed": false,
          "internalType": "address",
          "name": "invester",
          "type": "address"
        },
        {
          "indexed": false,
          "internalType": "address",
          "name": "receiver",
          "type": "address"
        },
        {
          "indexed": false,
          "internalType": "uint256",
          "name": "amount",
          "type": "uint256"
        },
        {
          "indexed": false,
          "internalType": "uint256",
          "name": "timeOfInvesment",
          "type": "uint256"
        },
        {
          "indexed": false,
          "internalType": "uint256",
          "name": "timeForRelease",
          "type": "uint256"
        },
        {
          "indexed": false,
          "internalType": "uint256",
          "name": "invesmentNo",
          "type": "uint256"
        }
      ],
      "name": "InvesmentInfo",
      "type": "event"
    },
    {
      "anonymous": false,
      "inputs": [
        {
          "indexed": false,
          "internalType": "address",
          "name": "from",
          "type": "address"
        },
        {
          "indexed": false,
          "internalType": "address",
          "name": "receiver",
          "type": "address"
        },
        {
          "indexed": false,
          "internalType": "uint256",
          "name": "amount",
          "type": "uint256"
        },
        {
          "indexed": false,
          "internalType": "uint256",
          "name": "timeOfInvesment",
          "type": "uint256"
        },
        {
          "indexed": false,
          "internalType": "uint256",
          "name": "timeForRelease",
          "type": "uint256"
        },
        {
          "indexed": false,
          "internalType": "bool",
          "name": "isactive",
          "type": "bool"
        },
        {
          "indexed": false,
          "internalType": "bool",
          "name": "test",
          "type": "bool"
        },
        {
          "indexed": false,
          "internalType": "uint256",
          "name": "transactionCount",
          "type": "uint256"
        }
      ],
      "name": "InvesmentiEkle",
      "type": "event"
    },
    {
      "anonymous": false,
      "inputs": [
        {
          "indexed": false,
          "internalType": "address",
          "name": "userAddress",
          "type": "address"
        }
      ],
      "name": "RegisteredUser",
      "type": "event"
    },
    {
      "anonymous": false,
      "inputs": [
        {
          "indexed": false,
          "internalType": "uint256",
          "name": "userNo",
          "type": "uint256"
        }
      ],
      "name": "newRegister",
      "type": "event"
    },
    {
      "inputs": [
        {
          "internalType": "address payable",
          "name": "receiver",
          "type": "address"
        },
        {
          "internalType": "uint256",
          "name": "amount",
          "type": "uint256"
        },
        {
          "internalType": "uint256",
          "name": "timeForRelease",
          "type": "uint256"
        }
      ],
      "name": "addToBlockchain",
      "outputs": [],
      "stateMutability": "nonpayable",
      "type": "function"
    },
    {
      "inputs": [
        {
          "internalType": "uint256",
          "name": "timeForRelease",
          "type": "uint256"
        }
      ],
      "name": "divideToRecipients",
      "outputs": [],
      "stateMutability": "nonpayable",
      "type": "function"
    },
    {
      "inputs": [],
      "name": "getAllinvesments",
      "outputs": [
        {
          "components": [
            {
              "internalType": "address",
              "name": "invester",
              "type": "address"
            },
            {
              "internalType": "address",
              "name": "receiver",
              "type": "address"
            },
            {
              "internalType": "uint256",
              "name": "amount",
              "type": "uint256"
            },
            {
              "internalType": "uint256",
              "name": "timeOfInvesment",
              "type": "uint256"
            },
            {
              "internalType": "uint256",
              "name": "timeForRelease",
              "type": "uint256"
            },
            {
              "internalType": "bool",
              "name": "isReversable",
              "type": "bool"
            },
            {
              "internalType": "bool",
              "name": "isActive",
              "type": "bool"
            },
            {
              "internalType": "uint256",
              "name": "invesmentNo",
              "type": "uint256"
            }
          ],
          "internalType": "struct Transactions.invesment[]",
          "name": "",
          "type": "tuple[]"
        }
      ],
      "stateMutability": "view",
      "type": "function"
    },
    {
      "inputs": [],
      "name": "getRecipients",
      "outputs": [],
      "stateMutability": "nonpayable",
      "type": "function"
    },
    {
      "inputs": [],
      "name": "getTransactionCount",
      "outputs": [
        {
          "internalType": "uint256",
          "name": "",
          "type": "uint256"
        }
      ],
      "stateMutability": "view",
      "type": "function"
    },
    {
      "inputs": [],
      "name": "invesmentsMadeToMe",
      "outputs": [],
      "stateMutability": "nonpayable",
      "type": "function"
    },
    {
      "inputs": [
        {
          "internalType": "address",
          "name": "receiver",
          "type": "address"
        },
        {
          "internalType": "uint256",
          "name": "timeForRelease",
          "type": "uint256"
        },
        {
          "internalType": "uint256",
          "name": "amount",
          "type": "uint256"
        }
      ],
      "name": "makeInvesment",
      "outputs": [],
      "stateMutability": "payable",
      "type": "function"
    },
    {
      "inputs": [],
      "name": "myInvesments",
      "outputs": [
        {
          "components": [
            {
              "internalType": "address",
              "name": "invester",
              "type": "address"
            },
            {
              "internalType": "address",
              "name": "receiver",
              "type": "address"
            },
            {
              "internalType": "uint256",
              "name": "amount",
              "type": "uint256"
            },
            {
              "internalType": "uint256",
              "name": "timeOfInvesment",
              "type": "uint256"
            },
            {
              "internalType": "uint256",
              "name": "timeForRelease",
              "type": "uint256"
            },
            {
              "internalType": "bool",
              "name": "isReversable",
              "type": "bool"
            },
            {
              "internalType": "bool",
              "name": "isActive",
              "type": "bool"
            },
            {
              "internalType": "uint256",
              "name": "invesmentNo",
              "type": "uint256"
            }
          ],
          "internalType": "struct Transactions.invesment[]",
          "name": "",
          "type": "tuple[]"
        }
      ],
      "stateMutability": "view",
      "type": "function"
    },
    {
      "inputs": [
        {
          "internalType": "address",
          "name": "userAddress",
          "type": "address"
        }
      ],
      "name": "register",
      "outputs": [],
      "stateMutability": "nonpayable",
      "type": "function"
    },
    {
      "inputs": [
        {
          "internalType": "address",
          "name": "receiver",
          "type": "address"
        }
      ],
      "name": "registerReceiver",
      "outputs": [],
      "stateMutability": "nonpayable",
      "type": "function"
    },
    {
      "inputs": [
        {
          "internalType": "uint256",
          "name": "invesmentNo",
          "type": "uint256"
        }
      ],
      "name": "reverseInvesment",
      "outputs": [],
      "stateMutability": "payable",
      "type": "function"
    },
    {
      "inputs": [
        {
          "internalType": "uint256",
          "name": "invesmentNo",
          "type": "uint256"
        },
        {
          "internalType": "uint256",
          "name": "amount",
          "type": "uint256"
        },
        {
          "internalType": "uint256",
          "name": "timeForRelease",
          "type": "uint256"
        }
      ],
      "name": "reviseInvesment",
      "outputs": [],
      "stateMutability": "nonpayable",
      "type": "function"
    },
    {
      "inputs": [
        {
          "internalType": "uint256",
          "name": "invesmentNo",
          "type": "uint256"
        }
      ],
      "name": "withdrawInvesment",
      "outputs": [],
      "stateMutability": "payable",
      "type": "function"
    }
  ],
  "bytecode": "0x608060405234801561001057600080fd5b506136c0806100206000396000f3fe6080604052600436106100c25760003560e01c80639fa8bdab1161007f578063cbf8a7cf11610059578063cbf8a7cf1461021d578063cfdd432914610248578063d78d610b14610264578063e24823d21461027b576100c2565b80639fa8bdab146101af578063c57b1d79146101d8578063cac5bf5514610201576100c2565b8063115493e1146100c75780632e7700f0146100f05780633587ce6a1461011b57806338a2ec91146101445780634420e4861461016f578063995d5d0a14610198575b600080fd5b3480156100d357600080fd5b506100ee60048036038101906100e99190612958565b610297565b005b3480156100fc57600080fd5b5061010561048e565b60405161011291906133ee565b60405180910390f35b34801561012757600080fd5b50610142600480360381019061013d91906129f6565b610498565b005b34801561015057600080fd5b506101596109c8565b604051610166919061320c565b60405180910390f35b34801561017b57600080fd5b506101966004803603810190610191919061292f565b610b32565b005b3480156101a457600080fd5b506101ad610d88565b005b3480156101bb57600080fd5b506101d660048036038101906101d1919061292f565b6111ee565b005b3480156101e457600080fd5b506101ff60048036038101906101fa9190612a1f565b61139b565b005b61021b600480360381019061021691906129f6565b6119a2565b005b34801561022957600080fd5b50610232611c5f565b60405161023f919061320c565b60405180910390f35b610262600480360381019061025d91906129f6565b611fbb565b005b34801561027057600080fd5b50610279612307565b005b610295600480360381019061029091906129a7565b6124d6565b005b60018060008282546102a99190613453565b9250508190555060006040518061010001604052803373ffffffffffffffffffffffffffffffffffffffff1681526020018573ffffffffffffffffffffffffffffffffffffffff168152602001848152602001428152602001838152602001600015158152602001600115158152602001600154815250908060018154018082558091505060019003906000526020600020906007020160009091909190915060008201518160000160006101000a81548173ffffffffffffffffffffffffffffffffffffffff021916908373ffffffffffffffffffffffffffffffffffffffff16021790555060208201518160010160006101000a81548173ffffffffffffffffffffffffffffffffffffffff021916908373ffffffffffffffffffffffffffffffffffffffff16021790555060408201518160020155606082015181600301556080820151816004015560a08201518160050160006101000a81548160ff02191690831515021790555060c08201518160050160016101000a81548160ff02191690831515021790555060e0820151816006015550507f43ae1dd719252719bbe0f20d8b8df63edbc4a4cf057087cf42d750baff33abad338484428560006001805460405161048198979695949392919061312d565b60405180910390a1505050565b6000600154905090565b6000600360003373ffffffffffffffffffffffffffffffffffffffff1673ffffffffffffffffffffffffffffffffffffffff16815260200190815260200160002060040154141561051e576040517f08c379a00000000000000000000000000000000000000000000000000000000081526004016105159061332e565b60405180910390fd5b6000600360003373ffffffffffffffffffffffffffffffffffffffff1673ffffffffffffffffffffffffffffffffffffffff1681526020019081526020016000206001018054905014156105a7576040517f08c379a000000000000000000000000000000000000000000000000000000000815260040161059e9061322e565b60405180910390fd5b6000600360003373ffffffffffffffffffffffffffffffffffffffff1673ffffffffffffffffffffffffffffffffffffffff16815260200190815260200160002060010180549050600360003373ffffffffffffffffffffffffffffffffffffffff1673ffffffffffffffffffffffffffffffffffffffff1681526020019081526020016000206004015461063c91906134a9565b905060005b600360003373ffffffffffffffffffffffffffffffffffffffff1673ffffffffffffffffffffffffffffffffffffffff168152602001908152602001600020600101805490508110156109c3576000600360003373ffffffffffffffffffffffffffffffffffffffff1673ffffffffffffffffffffffffffffffffffffffff168152602001908152602001600020600101828154811061070a577f4e487b7100000000000000000000000000000000000000000000000000000000600052603260045260246000fd5b9060005260206000200160009054906101000a900473ffffffffffffffffffffffffffffffffffffffff1690506000600160008054905061074b9190613453565b905060006040518061010001604052803373ffffffffffffffffffffffffffffffffffffffff1681526020018473ffffffffffffffffffffffffffffffffffffffff16815260200186815260200142815260200187815260200160011515815260200160011515815260200183815250908060018154018082558091505060019003906000526020600020906007020160009091909190915060008201518160000160006101000a81548173ffffffffffffffffffffffffffffffffffffffff021916908373ffffffffffffffffffffffffffffffffffffffff16021790555060208201518160010160006101000a81548173ffffffffffffffffffffffffffffffffffffffff021916908373ffffffffffffffffffffffffffffffffffffffff16021790555060408201518160020155606082015181600301556080820151816004015560a08201518160050160006101000a81548160ff02191690831515021790555060c08201518160050160016101000a81548160ff02191690831515021790555060e082015181600601555050600360003373ffffffffffffffffffffffffffffffffffffffff1673ffffffffffffffffffffffffffffffffffffffff168152602001908152602001600020600201819080600181540180825580915050600190039060005260206000200160009091909190915055600360008373ffffffffffffffffffffffffffffffffffffffff1673ffffffffffffffffffffffffffffffffffffffff168152602001908152602001600020600301819080600181540180825580915050600190039060005260206000200160009091909190915055505080806109bb9061359e565b915050610641565b505050565b60606000805480602002602001604051908101604052809291908181526020016000905b82821015610b295783829060005260206000209060070201604051806101000160405290816000820160009054906101000a900473ffffffffffffffffffffffffffffffffffffffff1673ffffffffffffffffffffffffffffffffffffffff1673ffffffffffffffffffffffffffffffffffffffff1681526020016001820160009054906101000a900473ffffffffffffffffffffffffffffffffffffffff1673ffffffffffffffffffffffffffffffffffffffff1673ffffffffffffffffffffffffffffffffffffffff1681526020016002820154815260200160038201548152602001600482015481526020016005820160009054906101000a900460ff161515151581526020016005820160019054906101000a900460ff16151515158152602001600682015481525050815260200190600101906109ec565b50505050905090565b600360008273ffffffffffffffffffffffffffffffffffffffff1673ffffffffffffffffffffffffffffffffffffffff16815260200190815260200160002060050160009054906101000a900460ff1615610bc2576040517f08c379a0000000000000000000000000000000000000000000000000000000008152600401610bb99061336e565b60405180910390fd5b60608060606000806040518060c001604052808773ffffffffffffffffffffffffffffffffffffffff16815260200186815260200185815260200184815260200183815260200160011515815250905080600360008873ffffffffffffffffffffffffffffffffffffffff1673ffffffffffffffffffffffffffffffffffffffff16815260200190815260200160002060008201518160000160006101000a81548173ffffffffffffffffffffffffffffffffffffffff021916908373ffffffffffffffffffffffffffffffffffffffff1602179055506020820151816001019080519060200190610cb5929190612787565b506040820151816002019080519060200190610cd2929190612811565b506060820151816003019080519060200190610cef929190612811565b506080820151816004015560a08201518160050160006101000a81548160ff0219169083151502179055509050506002869080600181540180825580915050600190039060005260206000200160009091909190916101000a81548173ffffffffffffffffffffffffffffffffffffffff021916908373ffffffffffffffffffffffffffffffffffffffff160217905550505050505050565b6000600360003373ffffffffffffffffffffffffffffffffffffffff1673ffffffffffffffffffffffffffffffffffffffff1681526020019081526020016000206003018054905011610e10576040517f08c379a0000000000000000000000000000000000000000000000000000000008152600401610e079061328e565b60405180910390fd5b60006001905060005b600360003373ffffffffffffffffffffffffffffffffffffffff1673ffffffffffffffffffffffffffffffffffffffff168152602001908152602001600020600301805490508110156111a9576000600360003373ffffffffffffffffffffffffffffffffffffffff1673ffffffffffffffffffffffffffffffffffffffff1681526020019081526020016000206003018281548110610ee2577f4e487b7100000000000000000000000000000000000000000000000000000000600052603260045260246000fd5b9060005260206000200154905060008181548110610f29577f4e487b7100000000000000000000000000000000000000000000000000000000600052603260045260246000fd5b906000526020600020906007020160050160019054906101000a900460ff1615611195577f404d0c3fc056af82f6c3daf413b0ea50c0c730ccced2a74136a9472aa7b3513e60008281548110610fa8577f4e487b7100000000000000000000000000000000000000000000000000000000600052603260045260246000fd5b906000526020600020906007020160000160009054906101000a900473ffffffffffffffffffffffffffffffffffffffff1660008381548110611014577f4e487b7100000000000000000000000000000000000000000000000000000000600052603260045260246000fd5b906000526020600020906007020160010160009054906101000a900473ffffffffffffffffffffffffffffffffffffffff1660008481548110611080577f4e487b7100000000000000000000000000000000000000000000000000000000600052603260045260246000fd5b906000526020600020906007020160020154600085815481106110cc577f4e487b7100000000000000000000000000000000000000000000000000000000600052603260045260246000fd5b90600052602060002090600702016003015460008681548110611118577f4e487b7100000000000000000000000000000000000000000000000000000000600052603260045260246000fd5b90600052602060002090600702016004015460008781548110611164577f4e487b7100000000000000000000000000000000000000000000000000000000600052603260045260246000fd5b906000526020600020906007020160060154604051611188969594939291906131ab565b60405180910390a1600092505b5080806111a19061359e565b915050610e19565b5080156111eb576040517f08c379a00000000000000000000000000000000000000000000000000000000081526004016111e29061328e565b60405180910390fd5b50565b600360008273ffffffffffffffffffffffffffffffffffffffff1673ffffffffffffffffffffffffffffffffffffffff16815260200190815260200160002060050160009054906101000a900460ff16156112eb57600360003373ffffffffffffffffffffffffffffffffffffffff1673ffffffffffffffffffffffffffffffffffffffff168152602001908152602001600020600101819080600181540180825580915050600190039060005260206000200160009091909190916101000a81548173ffffffffffffffffffffffffffffffffffffffff021916908373ffffffffffffffffffffffffffffffffffffffff160217905550611398565b6112f481610b32565b600360003373ffffffffffffffffffffffffffffffffffffffff1673ffffffffffffffffffffffffffffffffffffffff168152602001908152602001600020600101819080600181540180825580915050600190039060005260206000200160009091909190916101000a81548173ffffffffffffffffffffffffffffffffffffffff021916908373ffffffffffffffffffffffffffffffffffffffff1602179055505b50565b3373ffffffffffffffffffffffffffffffffffffffff16600084815481106113ec577f4e487b7100000000000000000000000000000000000000000000000000000000600052603260045260246000fd5b906000526020600020906007020160000160009054906101000a900473ffffffffffffffffffffffffffffffffffffffff1673ffffffffffffffffffffffffffffffffffffffff1614611474576040517f08c379a000000000000000000000000000000000000000000000000000000000815260040161146b9061326e565b60405180910390fd5b600083815481106114ae577f4e487b7100000000000000000000000000000000000000000000000000000000600052603260045260246000fd5b906000526020600020906007020160050160019054906101000a900460ff1661150c576040517f08c379a0000000000000000000000000000000000000000000000000000000008152600401611503906132ae565b60405180910390fd5b428160008581548110611548577f4e487b7100000000000000000000000000000000000000000000000000000000600052603260045260246000fd5b9060005260206000209060070201600301546115649190613453565b10156115a5576040517f08c379a000000000000000000000000000000000000000000000000000000000815260040161159c9061324e565b60405180910390fd5b600083815481106115df577f4e487b7100000000000000000000000000000000000000000000000000000000600052603260045260246000fd5b9060005260206000209060070201600201548211156118125760008381548110611632577f4e487b7100000000000000000000000000000000000000000000000000000000600052603260045260246000fd5b9060005260206000209060070201600201548261164f91906134da565b600360003373ffffffffffffffffffffffffffffffffffffffff1673ffffffffffffffffffffffffffffffffffffffff1681526020019081526020016000206004015410156116d3576040517f08c379a00000000000000000000000000000000000000000000000000000000081526004016116ca906132ce565b60405180910390fd5b816000848154811061170e577f4e487b7100000000000000000000000000000000000000000000000000000000600052603260045260246000fd5b90600052602060002090600702016002015461172a91906134da565b600360003373ffffffffffffffffffffffffffffffffffffffff1673ffffffffffffffffffffffffffffffffffffffff1681526020019081526020016000206004015461177791906134da565b600360003373ffffffffffffffffffffffffffffffffffffffff1673ffffffffffffffffffffffffffffffffffffffff1681526020019081526020016000206004018190555081600084815481106117f8577f4e487b7100000000000000000000000000000000000000000000000000000000600052603260045260246000fd5b90600052602060002090600702016002018190555061194d565b816000848154811061184d577f4e487b7100000000000000000000000000000000000000000000000000000000600052603260045260246000fd5b90600052602060002090600702016002015461186991906134da565b600360003373ffffffffffffffffffffffffffffffffffffffff1673ffffffffffffffffffffffffffffffffffffffff168152602001908152602001600020600401546118b69190613453565b600360003373ffffffffffffffffffffffffffffffffffffffff1673ffffffffffffffffffffffffffffffffffffffff168152602001908152602001600020600401819055508160008481548110611937577f4e487b7100000000000000000000000000000000000000000000000000000000600052603260045260246000fd5b9060005260206000209060070201600201819055505b8060008481548110611988577f4e487b7100000000000000000000000000000000000000000000000000000000600052603260045260246000fd5b906000526020600020906007020160040181905550505050565b3373ffffffffffffffffffffffffffffffffffffffff16600082815481106119f3577f4e487b7100000000000000000000000000000000000000000000000000000000600052603260045260246000fd5b906000526020600020906007020160000160009054906101000a900473ffffffffffffffffffffffffffffffffffffffff1673ffffffffffffffffffffffffffffffffffffffff1614611a7b576040517f08c379a0000000000000000000000000000000000000000000000000000000008152600401611a729061330e565b60405180910390fd5b6001151560008281548110611ab9577f4e487b7100000000000000000000000000000000000000000000000000000000600052603260045260246000fd5b906000526020600020906007020160050160019054906101000a900460ff16151514611b1a576040517f08c379a0000000000000000000000000000000000000000000000000000000008152600401611b11906132ee565b60405180910390fd5b6000808281548110611b55577f4e487b7100000000000000000000000000000000000000000000000000000000600052603260045260246000fd5b906000526020600020906007020160050160016101000a81548160ff02191690831515021790555060008181548110611bb7577f4e487b7100000000000000000000000000000000000000000000000000000000600052603260045260246000fd5b906000526020600020906007020160020154600360003373ffffffffffffffffffffffffffffffffffffffff1673ffffffffffffffffffffffffffffffffffffffff16815260200190815260200160002060040154611c169190613453565b600360003373ffffffffffffffffffffffffffffffffffffffff1673ffffffffffffffffffffffffffffffffffffffff1681526020019081526020016000206004018190555050565b60606000600360003373ffffffffffffffffffffffffffffffffffffffff1673ffffffffffffffffffffffffffffffffffffffff1681526020019081526020016000206002018054905067ffffffffffffffff811115611ce8577f4e487b7100000000000000000000000000000000000000000000000000000000600052604160045260246000fd5b604051908082528060200260200182016040528015611d2157816020015b611d0e61285e565b815260200190600190039081611d065790505b50905060005b600360003373ffffffffffffffffffffffffffffffffffffffff1673ffffffffffffffffffffffffffffffffffffffff16815260200190815260200160002060020180549050811015611fb3576000600360003373ffffffffffffffffffffffffffffffffffffffff1673ffffffffffffffffffffffffffffffffffffffff1681526020019081526020016000206002018281548110611df0577f4e487b7100000000000000000000000000000000000000000000000000000000600052603260045260246000fd5b9060005260206000200154905060008181548110611e37577f4e487b7100000000000000000000000000000000000000000000000000000000600052603260045260246000fd5b9060005260206000209060070201604051806101000160405290816000820160009054906101000a900473ffffffffffffffffffffffffffffffffffffffff1673ffffffffffffffffffffffffffffffffffffffff1673ffffffffffffffffffffffffffffffffffffffff1681526020016001820160009054906101000a900473ffffffffffffffffffffffffffffffffffffffff1673ffffffffffffffffffffffffffffffffffffffff1673ffffffffffffffffffffffffffffffffffffffff1681526020016002820154815260200160038201548152602001600482015481526020016005820160009054906101000a900460ff161515151581526020016005820160019054906101000a900460ff16151515158152602001600682015481525050838381518110611f94577f4e487b7100000000000000000000000000000000000000000000000000000000600052603260045260246000fd5b6020026020010181905250508080611fab9061359e565b915050611d27565b508091505090565b3373ffffffffffffffffffffffffffffffffffffffff166000828154811061200c577f4e487b7100000000000000000000000000000000000000000000000000000000600052603260045260246000fd5b906000526020600020906007020160010160009054906101000a900473ffffffffffffffffffffffffffffffffffffffff1673ffffffffffffffffffffffffffffffffffffffff1614612094576040517f08c379a000000000000000000000000000000000000000000000000000000000815260040161208b906133ae565b60405180910390fd5b600081815481106120ce577f4e487b7100000000000000000000000000000000000000000000000000000000600052603260045260246000fd5b906000526020600020906007020160050160019054906101000a900460ff1661212c576040517f08c379a0000000000000000000000000000000000000000000000000000000008152600401612123906133ce565b60405180910390fd5b4260008281548110612167577f4e487b7100000000000000000000000000000000000000000000000000000000600052603260045260246000fd5b906000526020600020906007020160040154600083815481106121b3577f4e487b7100000000000000000000000000000000000000000000000000000000600052603260045260246000fd5b9060005260206000209060070201600301546121cf9190613453565b1061220f576040517f08c379a00000000000000000000000000000000000000000000000000000000081526004016122069061334e565b60405180910390fd5b600080828154811061224a577f4e487b7100000000000000000000000000000000000000000000000000000000600052603260045260246000fd5b906000526020600020906007020160050160016101000a81548160ff0219169083151502179055503373ffffffffffffffffffffffffffffffffffffffff166108fc600083815481106122c6577f4e487b7100000000000000000000000000000000000000000000000000000000600052603260045260246000fd5b9060005260206000209060070201600201549081150290604051600060405180830381858888f19350505050158015612303573d6000803e3d6000fd5b5050565b6000600360003373ffffffffffffffffffffffffffffffffffffffff1673ffffffffffffffffffffffffffffffffffffffff168152602001908152602001600020600101805490501161238f576040517f08c379a00000000000000000000000000000000000000000000000000000000081526004016123869061338e565b60405180910390fd5b60005b600360003373ffffffffffffffffffffffffffffffffffffffff1673ffffffffffffffffffffffffffffffffffffffff168152602001908152602001600020600101805490508110156124d3576000600360003373ffffffffffffffffffffffffffffffffffffffff1673ffffffffffffffffffffffffffffffffffffffff168152602001908152602001600020600101828154811061245b577f4e487b7100000000000000000000000000000000000000000000000000000000600052603260045260246000fd5b9060005260206000200160009054906101000a900473ffffffffffffffffffffffffffffffffffffffff1690507fbb74e68fafbea9c1a78e7c8ed9d68158f5acc55124596158170e635ff13d271c816040516124b79190613112565b60405180910390a15080806124cb9061359e565b915050612392565b50565b600080805490509050600360003373ffffffffffffffffffffffffffffffffffffffff1673ffffffffffffffffffffffffffffffffffffffff168152602001908152602001600020600201819080600181540180825580915050600190039060005260206000200160009091909190915055600360008573ffffffffffffffffffffffffffffffffffffffff1673ffffffffffffffffffffffffffffffffffffffff1681526020019081526020016000206003018190806001815401808255809150506001900390600052602060002001600090919091909150557f404d0c3fc056af82f6c3daf413b0ea50c0c730ccced2a74136a9472aa7b3513e3385844287866040516125ea969594939291906131ab565b60405180910390a160006040518061010001604052803373ffffffffffffffffffffffffffffffffffffffff1681526020018673ffffffffffffffffffffffffffffffffffffffff16815260200184815260200142815260200185815260200160011515815260200160011515815260200183815250908060018154018082558091505060019003906000526020600020906007020160009091909190915060008201518160000160006101000a81548173ffffffffffffffffffffffffffffffffffffffff021916908373ffffffffffffffffffffffffffffffffffffffff16021790555060208201518160010160006101000a81548173ffffffffffffffffffffffffffffffffffffffff021916908373ffffffffffffffffffffffffffffffffffffffff16021790555060408201518160020155606082015181600301556080820151816004015560a08201518160050160006101000a81548160ff02191690831515021790555060c08201518160050160016101000a81548160ff02191690831515021790555060e08201518160060155505050505050565b828054828255906000526020600020908101928215612800579160200282015b828111156127ff5782518260006101000a81548173ffffffffffffffffffffffffffffffffffffffff021916908373ffffffffffffffffffffffffffffffffffffffff160217905550916020019190600101906127a7565b5b50905061280d91906128d3565b5090565b82805482825590600052602060002090810192821561284d579160200282015b8281111561284c578251825591602001919060010190612831565b5b50905061285a91906128d3565b5090565b604051806101000160405280600073ffffffffffffffffffffffffffffffffffffffff168152602001600073ffffffffffffffffffffffffffffffffffffffff168152602001600081526020016000815260200160008152602001600015158152602001600015158152602001600081525090565b5b808211156128ec5760008160009055506001016128d4565b5090565b6000813590506128ff81613645565b92915050565b6000813590506129148161365c565b92915050565b60008135905061292981613673565b92915050565b60006020828403121561294157600080fd5b600061294f848285016128f0565b91505092915050565b60008060006060848603121561296d57600080fd5b600061297b86828701612905565b935050602061298c8682870161291a565b925050604061299d8682870161291a565b9150509250925092565b6000806000606084860312156129bc57600080fd5b60006129ca868287016128f0565b93505060206129db8682870161291a565b92505060406129ec8682870161291a565b9150509250925092565b600060208284031215612a0857600080fd5b6000612a168482850161291a565b91505092915050565b600080600060608486031215612a3457600080fd5b6000612a428682870161291a565b9350506020612a538682870161291a565b9250506040612a648682870161291a565b9150509250925092565b6000612a7a8383613052565b6101008301905092915050565b612a9081613568565b82525050565b612a9f8161350e565b82525050565b612aae8161350e565b82525050565b6000612abf82613419565b612ac98185613431565b9350612ad483613409565b8060005b83811015612b05578151612aec8882612a6e565b9750612af783613424565b925050600181019050612ad8565b5085935050505092915050565b612b1b81613532565b82525050565b612b2a81613532565b82525050565b6000612b3d602483613442565b91507f596f752068617665206e6f20726563697069656e747320746f20696e7665737460008301527f20746f2e000000000000000000000000000000000000000000000000000000006020830152604082019050919050565b6000612ba3603a83613442565b91507f596f752063616e206e6f742073657420616e20696e7665736d656e7420746f2060008301527f62652072656c6173656420696e2061207061737420646174652e0000000000006020830152604082019050919050565b6000612c09603183613442565b91507f596f752063616e206e6f742072657669736520616e20696e7665736d656e742060008301527f796f7520646964206e6f74206d616b652e0000000000000000000000000000006020830152604082019050919050565b6000612c6f602483613442565b91507f546865726520617265206e6f20696e7665736d656e7473206d61646520666f7260008301527f20796f75000000000000000000000000000000000000000000000000000000006020830152604082019050919050565b6000612cd5601e83613442565b91507f5468697320697320616e20696e61637469766520696e7665736d656e742e00006000830152602082019050919050565b6000612d15602683613442565b91507f496e737566666963656e742066756e647320746f2072657669736520696e766560008301527f736d656e742e00000000000000000000000000000000000000000000000000006020830152604082019050919050565b6000612d7b602983613442565b91507f596f752063616e206e6f742063616e63656c20616e20696e616374697665206960008301527f6e7665736d656e742e00000000000000000000000000000000000000000000006020830152604082019050919050565b6000612de1604183613442565b91507f596f7520617265206e6f742074686520696e766573746f722c206f6e6c79206960008301527f6e766573746f72732063616e2063616e63656c20616e20696e7665736d656e7460208301527f2e000000000000000000000000000000000000000000000000000000000000006040830152606082019050919050565b6000612e6d601c83613442565b91507f596f752068617665206e6f2066756e647320746f206469766964652e000000006000830152602082019050919050565b6000612ead602383613442565b91507f596f752063616e206e6f74207769746864726177207468652066756e6473207960008301527f65742100000000000000000000000000000000000000000000000000000000006020830152604082019050919050565b6000612f13601b83613442565b91507f596f752061726520616c726561647920726567697374657265642100000000006000830152602082019050919050565b6000612f53601783613442565b91507f4e6f20726563697069656e7420726567697374657265640000000000000000006000830152602082019050919050565b6000612f93602783613442565b91507f5468697320696e7665736d656e74206973206e6f7420666f722074686973206160008301527f64647265737321000000000000000000000000000000000000000000000000006020830152604082019050919050565b6000612ff9603083613442565b91507f596f752063616e206e6f742077697468647261772066726f6d20616e20696e6160008301527f637469766520696e7665736d656e742e000000000000000000000000000000006020830152604082019050919050565b610100820160008201516130696000850182612a96565b50602082015161307c6020850182612a96565b50604082015161308f60408501826130f4565b5060608201516130a260608501826130f4565b5060808201516130b560808501826130f4565b5060a08201516130c860a0850182612b12565b5060c08201516130db60c0850182612b12565b5060e08201516130ee60e08501826130f4565b50505050565b6130fd8161355e565b82525050565b61310c8161355e565b82525050565b60006020820190506131276000830184612aa5565b92915050565b600061010082019050613143600083018b612aa5565b613150602083018a612a87565b61315d6040830189613103565b61316a6060830188613103565b6131776080830187613103565b61318460a0830186612b21565b61319160c0830185612b21565b61319e60e0830184613103565b9998505050505050505050565b600060c0820190506131c06000830189612aa5565b6131cd6020830188612aa5565b6131da6040830187613103565b6131e76060830186613103565b6131f46080830185613103565b61320160a0830184613103565b979650505050505050565b600060208201905081810360008301526132268184612ab4565b905092915050565b6000602082019050818103600083015261324781612b30565b9050919050565b6000602082019050818103600083015261326781612b96565b9050919050565b6000602082019050818103600083015261328781612bfc565b9050919050565b600060208201905081810360008301526132a781612c62565b9050919050565b600060208201905081810360008301526132c781612cc8565b9050919050565b600060208201905081810360008301526132e781612d08565b9050919050565b6000602082019050818103600083015261330781612d6e565b9050919050565b6000602082019050818103600083015261332781612dd4565b9050919050565b6000602082019050818103600083015261334781612e60565b9050919050565b6000602082019050818103600083015261336781612ea0565b9050919050565b6000602082019050818103600083015261338781612f06565b9050919050565b600060208201905081810360008301526133a781612f46565b9050919050565b600060208201905081810360008301526133c781612f86565b9050919050565b600060208201905081810360008301526133e781612fec565b9050919050565b60006020820190506134036000830184613103565b92915050565b6000819050602082019050919050565b600081519050919050565b6000602082019050919050565b600082825260208201905092915050565b600082825260208201905092915050565b600061345e8261355e565b91506134698361355e565b9250827fffffffffffffffffffffffffffffffffffffffffffffffffffffffffffffffff0382111561349e5761349d6135e7565b5b828201905092915050565b60006134b48261355e565b91506134bf8361355e565b9250826134cf576134ce613616565b5b828204905092915050565b60006134e58261355e565b91506134f08361355e565b925082821015613503576135026135e7565b5b828203905092915050565b60006135198261353e565b9050919050565b600061352b8261353e565b9050919050565b60008115159050919050565b600073ffffffffffffffffffffffffffffffffffffffff82169050919050565b6000819050919050565b60006135738261357a565b9050919050565b60006135858261358c565b9050919050565b60006135978261353e565b9050919050565b60006135a98261355e565b91507fffffffffffffffffffffffffffffffffffffffffffffffffffffffffffffffff8214156135dc576135db6135e7565b5b600182019050919050565b7f4e487b7100000000000000000000000000000000000000000000000000000000600052601160045260246000fd5b7f4e487b7100000000000000000000000000000000000000000000000000000000600052601260045260246000fd5b61364e8161350e565b811461365957600080fd5b50565b61366581613520565b811461367057600080fd5b50565b61367c8161355e565b811461368757600080fd5b5056fea264697066735822122023f58a6fb133401b3c4c958989a187cc875e2c0b4bd83c0e0af5a2750938e46264736f6c63430008000033",
  "linkReferences": {},
  "deployedLinkReferences": {}
}