{
  "_format": "hh-sol-artifact-1",
  "contractName": "Transactions",
  "sourceName": "contracts/Transactions.sol",
  "abi": [
    {
      "anonymous": false,
      "inputs": [
        {
          "indexed": false,
          "internalType": "uint256",
          "name": "userNo",
          "type": "uint256"
        }
      ],
      "name": "newRegister",
      "type": "event"
    },
    {
      "inputs": [
        {
          "internalType": "uint256",
          "name": "timeForRelease",
          "type": "uint256"
        }
      ],
      "name": "divideToRecipients",
      "outputs": [],
      "stateMutability": "nonpayable",
      "type": "function"
    },
    {
      "inputs": [],
      "name": "getRecipients",
      "outputs": [
        {
          "internalType": "address[]",
          "name": "",
          "type": "address[]"
        }
      ],
      "stateMutability": "view",
      "type": "function"
    },
    {
      "inputs": [],
      "name": "getTransactionCount",
      "outputs": [
        {
          "internalType": "uint256",
          "name": "",
          "type": "uint256"
        }
      ],
      "stateMutability": "view",
      "type": "function"
    },
    {
      "inputs": [],
      "name": "invesmentsMadeToMe",
      "outputs": [
        {
          "components": [
            {
              "internalType": "address",
              "name": "invester",
              "type": "address"
            },
            {
              "internalType": "address",
              "name": "receiver",
              "type": "address"
            },
            {
              "internalType": "uint256",
              "name": "amount",
              "type": "uint256"
            },
            {
              "internalType": "uint256",
              "name": "timeOfInvesment",
              "type": "uint256"
            },
            {
              "internalType": "uint256",
              "name": "timeForRelease",
              "type": "uint256"
            },
            {
              "internalType": "bool",
              "name": "isReversable",
              "type": "bool"
            },
            {
              "internalType": "bool",
              "name": "isActive",
              "type": "bool"
            },
            {
              "internalType": "uint256",
              "name": "invesmentNo",
              "type": "uint256"
            }
          ],
          "internalType": "struct Transactions.invesment[]",
          "name": "",
          "type": "tuple[]"
        }
      ],
      "stateMutability": "view",
      "type": "function"
    },
    {
      "inputs": [
        {
          "internalType": "address",
          "name": "receiver",
          "type": "address"
        },
        {
          "internalType": "uint256",
          "name": "timeForRelease",
          "type": "uint256"
        }
      ],
      "name": "makeInvesment",
      "outputs": [],
      "stateMutability": "payable",
      "type": "function"
    },
    {
      "inputs": [],
      "name": "myInvesments",
      "outputs": [
        {
          "components": [
            {
              "internalType": "address",
              "name": "invester",
              "type": "address"
            },
            {
              "internalType": "address",
              "name": "receiver",
              "type": "address"
            },
            {
              "internalType": "uint256",
              "name": "amount",
              "type": "uint256"
            },
            {
              "internalType": "uint256",
              "name": "timeOfInvesment",
              "type": "uint256"
            },
            {
              "internalType": "uint256",
              "name": "timeForRelease",
              "type": "uint256"
            },
            {
              "internalType": "bool",
              "name": "isReversable",
              "type": "bool"
            },
            {
              "internalType": "bool",
              "name": "isActive",
              "type": "bool"
            },
            {
              "internalType": "uint256",
              "name": "invesmentNo",
              "type": "uint256"
            }
          ],
          "internalType": "struct Transactions.invesment[]",
          "name": "",
          "type": "tuple[]"
        }
      ],
      "stateMutability": "view",
      "type": "function"
    },
    {
      "inputs": [
        {
          "internalType": "address",
          "name": "userAddress",
          "type": "address"
        }
      ],
      "name": "register",
      "outputs": [],
      "stateMutability": "nonpayable",
      "type": "function"
    },
    {
      "inputs": [
        {
          "internalType": "address",
          "name": "receiver",
          "type": "address"
        }
      ],
      "name": "registerReceiver",
      "outputs": [],
      "stateMutability": "nonpayable",
      "type": "function"
    },
    {
      "inputs": [
        {
          "internalType": "uint256",
          "name": "invesmentNo",
          "type": "uint256"
        }
      ],
      "name": "reverseInvesment",
      "outputs": [],
      "stateMutability": "payable",
      "type": "function"
    },
    {
      "inputs": [
        {
          "internalType": "uint256",
          "name": "invesmentNo",
          "type": "uint256"
        },
        {
          "internalType": "uint256",
          "name": "amount",
          "type": "uint256"
        },
        {
          "internalType": "uint256",
          "name": "timeForRelease",
          "type": "uint256"
        }
      ],
      "name": "reviseInvesment",
      "outputs": [],
      "stateMutability": "nonpayable",
      "type": "function"
    },
    {
      "inputs": [
        {
          "internalType": "uint256",
          "name": "invesmentNo",
          "type": "uint256"
        }
      ],
      "name": "withdrawInvesment",
      "outputs": [],
      "stateMutability": "payable",
      "type": "function"
    }
  ],
  "bytecode": "0x608060405234801561001057600080fd5b50612db8806100206000396000f3fe60806040526004361061009c5760003560e01c8063c57b1d7911610064578063c57b1d7914610172578063cac5bf551461019b578063cbf8a7cf146101b7578063cfdd4329146101e2578063d78d610b146101fe578063e26e7abd146102295761009c565b80632e7700f0146100a15780633587ce6a146100cc5780634420e486146100f5578063995d5d0a1461011e5780639fa8bdab14610149575b600080fd5b3480156100ad57600080fd5b506100b6610245565b6040516100c39190612718565b60405180910390f35b3480156100d857600080fd5b506100f360048036038101906100ee9190612122565b61024e565b005b34801561010157600080fd5b5061011c600480360381019061011791906120b5565b610757565b005b34801561012a57600080fd5b506101336109ad565b6040516101409190612556565b60405180910390f35b34801561015557600080fd5b50610170600480360381019061016b91906120b5565b610cb5565b005b34801561017e57600080fd5b506101996004803603810190610194919061214f565b610e62565b005b6101b560048036038101906101b09190612122565b6112ed565b005b3480156101c357600080fd5b506101cc611513565b6040516101d99190612556565b60405180910390f35b6101fc60048036038101906101f79190612122565b6117d7565b005b34801561020a57600080fd5b50610213611a40565b6040516102209190612534565b60405180910390f35b610243600480360381019061023e91906120e2565b611c99565b005b60008054905090565b6000600360003373ffffffffffffffffffffffffffffffffffffffff1673ffffffffffffffffffffffffffffffffffffffff1681526020019081526020016000206004015414156102d4576040517f08c379a00000000000000000000000000000000000000000000000000000000081526004016102cb90612658565b60405180910390fd5b6000600360003373ffffffffffffffffffffffffffffffffffffffff1673ffffffffffffffffffffffffffffffffffffffff16815260200190815260200160002060010180549050141561035d576040517f08c379a000000000000000000000000000000000000000000000000000000000815260040161035490612578565b60405180910390fd5b6000600360003373ffffffffffffffffffffffffffffffffffffffff1673ffffffffffffffffffffffffffffffffffffffff16815260200190815260200160002060010180549050600360003373ffffffffffffffffffffffffffffffffffffffff1673ffffffffffffffffffffffffffffffffffffffff168152602001908152602001600020600401546103f2919061280c565b905060005b600360003373ffffffffffffffffffffffffffffffffffffffff1673ffffffffffffffffffffffffffffffffffffffff16815260200190815260200160002060010180549050811015610752576000600360003373ffffffffffffffffffffffffffffffffffffffff1673ffffffffffffffffffffffffffffffffffffffff168152602001908152602001600020600101828154811061049a57610499612960565b5b9060005260206000200160009054906101000a900473ffffffffffffffffffffffffffffffffffffffff1690506000600180805490506104da91906127b6565b905060016040518061010001604052803373ffffffffffffffffffffffffffffffffffffffff1681526020018473ffffffffffffffffffffffffffffffffffffffff16815260200186815260200142815260200187815260200160011515815260200160011515815260200183815250908060018154018082558091505060019003906000526020600020906007020160009091909190915060008201518160000160006101000a81548173ffffffffffffffffffffffffffffffffffffffff021916908373ffffffffffffffffffffffffffffffffffffffff16021790555060208201518160010160006101000a81548173ffffffffffffffffffffffffffffffffffffffff021916908373ffffffffffffffffffffffffffffffffffffffff16021790555060408201518160020155606082015181600301556080820151816004015560a08201518160050160006101000a81548160ff02191690831515021790555060c08201518160050160016101000a81548160ff02191690831515021790555060e082015181600601555050600360003373ffffffffffffffffffffffffffffffffffffffff1673ffffffffffffffffffffffffffffffffffffffff168152602001908152602001600020600201819080600181540180825580915050600190039060005260206000200160009091909190915055600360008373ffffffffffffffffffffffffffffffffffffffff1673ffffffffffffffffffffffffffffffffffffffff1681526020019081526020016000206003018190806001815401808255809150506001900390600052602060002001600090919091909150555050808061074a906128b9565b9150506103f7565b505050565b600360008273ffffffffffffffffffffffffffffffffffffffff1673ffffffffffffffffffffffffffffffffffffffff16815260200190815260200160002060050160009054906101000a900460ff16156107e7576040517f08c379a00000000000000000000000000000000000000000000000000000000081526004016107de90612698565b60405180910390fd5b60608060606000806040518060c001604052808773ffffffffffffffffffffffffffffffffffffffff16815260200186815260200185815260200184815260200183815260200160011515815250905080600360008873ffffffffffffffffffffffffffffffffffffffff1673ffffffffffffffffffffffffffffffffffffffff16815260200190815260200160002060008201518160000160006101000a81548173ffffffffffffffffffffffffffffffffffffffff021916908373ffffffffffffffffffffffffffffffffffffffff16021790555060208201518160010190805190602001906108da929190611f22565b5060408201518160020190805190602001906108f7929190611fac565b506060820151816003019080519060200190610914929190611fac565b506080820151816004015560a08201518160050160006101000a81548160ff0219169083151502179055509050506002869080600181540180825580915050600190039060005260206000200160009091909190916101000a81548173ffffffffffffffffffffffffffffffffffffffff021916908373ffffffffffffffffffffffffffffffffffffffff160217905550505050505050565b60606000600360003373ffffffffffffffffffffffffffffffffffffffff1673ffffffffffffffffffffffffffffffffffffffff1681526020019081526020016000206003018054905067ffffffffffffffff811115610a1057610a0f61298f565b5b604051908082528060200260200182016040528015610a4957816020015b610a36611ff9565b815260200190600190039081610a2e5790505b50905060006001905060005b600360003373ffffffffffffffffffffffffffffffffffffffff1673ffffffffffffffffffffffffffffffffffffffff16815260200190815260200160002060030180549050811015610cac576000600360003373ffffffffffffffffffffffffffffffffffffffff1673ffffffffffffffffffffffffffffffffffffffff1681526020019081526020016000206003018281548110610af857610af7612960565b5b9060005260206000200154905060018181548110610b1957610b18612960565b5b9060005260206000209060070201604051806101000160405290816000820160009054906101000a900473ffffffffffffffffffffffffffffffffffffffff1673ffffffffffffffffffffffffffffffffffffffff1673ffffffffffffffffffffffffffffffffffffffff1681526020016001820160009054906101000a900473ffffffffffffffffffffffffffffffffffffffff1673ffffffffffffffffffffffffffffffffffffffff1673ffffffffffffffffffffffffffffffffffffffff1681526020016002820154815260200160038201548152602001600482015481526020016005820160009054906101000a900460ff161515151581526020016005820160019054906101000a900460ff16151515158152602001600682015481525050848381518110610c5057610c4f612960565b5b602002602001018190525060018181548110610c6f57610c6e612960565b5b906000526020600020906007020160050160019054906101000a900460ff1615610c9857600092505b508080610ca4906128b9565b915050610a55565b50819250505090565b600360008273ffffffffffffffffffffffffffffffffffffffff1673ffffffffffffffffffffffffffffffffffffffff16815260200190815260200160002060050160009054906101000a900460ff1615610db257600360003373ffffffffffffffffffffffffffffffffffffffff1673ffffffffffffffffffffffffffffffffffffffff168152602001908152602001600020600101819080600181540180825580915050600190039060005260206000200160009091909190916101000a81548173ffffffffffffffffffffffffffffffffffffffff021916908373ffffffffffffffffffffffffffffffffffffffff160217905550610e5f565b610dbb81610757565b600360003373ffffffffffffffffffffffffffffffffffffffff1673ffffffffffffffffffffffffffffffffffffffff168152602001908152602001600020600101819080600181540180825580915050600190039060005260206000200160009091909190916101000a81548173ffffffffffffffffffffffffffffffffffffffff021916908373ffffffffffffffffffffffffffffffffffffffff1602179055505b50565b3373ffffffffffffffffffffffffffffffffffffffff1660018481548110610e8d57610e8c612960565b5b906000526020600020906007020160000160009054906101000a900473ffffffffffffffffffffffffffffffffffffffff1673ffffffffffffffffffffffffffffffffffffffff1614610f15576040517f08c379a0000000000000000000000000000000000000000000000000000000008152600401610f0c906125b8565b60405180910390fd5b60018381548110610f2957610f28612960565b5b906000526020600020906007020160050160019054906101000a900460ff16610f87576040517f08c379a0000000000000000000000000000000000000000000000000000000008152600401610f7e906125d8565b60405180910390fd5b428160018581548110610f9d57610f9c612960565b5b906000526020600020906007020160030154610fb991906127b6565b1015610ffa576040517f08c379a0000000000000000000000000000000000000000000000000000000008152600401610ff190612598565b60405180910390fd5b6001838154811061100e5761100d612960565b5b9060005260206000209060070201600201548211156111cf576001838154811061103b5761103a612960565b5b90600052602060002090600702016002015482611058919061283d565b600360003373ffffffffffffffffffffffffffffffffffffffff1673ffffffffffffffffffffffffffffffffffffffff1681526020019081526020016000206004015410156110dc576040517f08c379a00000000000000000000000000000000000000000000000000000000081526004016110d3906125f8565b60405180910390fd5b81600184815481106110f1576110f0612960565b5b90600052602060002090600702016002015461110d919061283d565b600360003373ffffffffffffffffffffffffffffffffffffffff1673ffffffffffffffffffffffffffffffffffffffff1681526020019081526020016000206004015461115a919061283d565b600360003373ffffffffffffffffffffffffffffffffffffffff1673ffffffffffffffffffffffffffffffffffffffff1681526020019081526020016000206004018190555081600184815481106111b5576111b4612960565b5b9060005260206000209060070201600201819055506112be565b81600184815481106111e4576111e3612960565b5b906000526020600020906007020160020154611200919061283d565b600360003373ffffffffffffffffffffffffffffffffffffffff1673ffffffffffffffffffffffffffffffffffffffff1681526020019081526020016000206004015461124d91906127b6565b600360003373ffffffffffffffffffffffffffffffffffffffff1673ffffffffffffffffffffffffffffffffffffffff1681526020019081526020016000206004018190555081600184815481106112a8576112a7612960565b5b9060005260206000209060070201600201819055505b80600184815481106112d3576112d2612960565b5b906000526020600020906007020160040181905550505050565b3373ffffffffffffffffffffffffffffffffffffffff166001828154811061131857611317612960565b5b906000526020600020906007020160000160009054906101000a900473ffffffffffffffffffffffffffffffffffffffff1673ffffffffffffffffffffffffffffffffffffffff16146113a0576040517f08c379a000000000000000000000000000000000000000000000000000000000815260040161139790612638565b60405180910390fd5b60011515600182815481106113b8576113b7612960565b5b906000526020600020906007020160050160019054906101000a900460ff16151514611419576040517f08c379a000000000000000000000000000000000000000000000000000000000815260040161141090612618565b60405180910390fd5b60006001828154811061142f5761142e612960565b5b906000526020600020906007020160050160016101000a81548160ff0219169083151502179055506001818154811061146b5761146a612960565b5b906000526020600020906007020160020154600360003373ffffffffffffffffffffffffffffffffffffffff1673ffffffffffffffffffffffffffffffffffffffff168152602001908152602001600020600401546114ca91906127b6565b600360003373ffffffffffffffffffffffffffffffffffffffff1673ffffffffffffffffffffffffffffffffffffffff1681526020019081526020016000206004018190555050565b60606000600360003373ffffffffffffffffffffffffffffffffffffffff1673ffffffffffffffffffffffffffffffffffffffff1681526020019081526020016000206002018054905067ffffffffffffffff8111156115765761157561298f565b5b6040519080825280602002602001820160405280156115af57816020015b61159c611ff9565b8152602001906001900390816115945790505b50905060005b600360003373ffffffffffffffffffffffffffffffffffffffff1673ffffffffffffffffffffffffffffffffffffffff168152602001908152602001600020600201805490508110156117cf576000600360003373ffffffffffffffffffffffffffffffffffffffff1673ffffffffffffffffffffffffffffffffffffffff168152602001908152602001600020600201828154811061165857611657612960565b5b906000526020600020015490506001818154811061167957611678612960565b5b9060005260206000209060070201604051806101000160405290816000820160009054906101000a900473ffffffffffffffffffffffffffffffffffffffff1673ffffffffffffffffffffffffffffffffffffffff1673ffffffffffffffffffffffffffffffffffffffff1681526020016001820160009054906101000a900473ffffffffffffffffffffffffffffffffffffffff1673ffffffffffffffffffffffffffffffffffffffff1673ffffffffffffffffffffffffffffffffffffffff1681526020016002820154815260200160038201548152602001600482015481526020016005820160009054906101000a900460ff161515151581526020016005820160019054906101000a900460ff161515151581526020016006820154815250508383815181106117b0576117af612960565b5b60200260200101819052505080806117c7906128b9565b9150506115b5565b508091505090565b3373ffffffffffffffffffffffffffffffffffffffff166001828154811061180257611801612960565b5b906000526020600020906007020160010160009054906101000a900473ffffffffffffffffffffffffffffffffffffffff1673ffffffffffffffffffffffffffffffffffffffff161461188a576040517f08c379a0000000000000000000000000000000000000000000000000000000008152600401611881906126d8565b60405180910390fd5b6001818154811061189e5761189d612960565b5b906000526020600020906007020160050160019054906101000a900460ff166118fc576040517f08c379a00000000000000000000000000000000000000000000000000000000081526004016118f3906126f8565b60405180910390fd5b426001828154811061191157611910612960565b5b9060005260206000209060070201600401546001838154811061193757611936612960565b5b90600052602060002090600702016003015461195391906127b6565b10611993576040517f08c379a000000000000000000000000000000000000000000000000000000000815260040161198a90612678565b60405180910390fd5b6000600182815481106119a9576119a8612960565b5b906000526020600020906007020160050160016101000a81548160ff0219169083151502179055503373ffffffffffffffffffffffffffffffffffffffff166108fc600183815481106119ff576119fe612960565b5b9060005260206000209060070201600201549081150290604051600060405180830381858888f19350505050158015611a3c573d6000803e3d6000fd5b5050565b60606000600360003373ffffffffffffffffffffffffffffffffffffffff1673ffffffffffffffffffffffffffffffffffffffff1681526020019081526020016000206001018054905011611aca576040517f08c379a0000000000000000000000000000000000000000000000000000000008152600401611ac1906126b8565b60405180910390fd5b6000600360003373ffffffffffffffffffffffffffffffffffffffff1673ffffffffffffffffffffffffffffffffffffffff1681526020019081526020016000206001018054905067ffffffffffffffff811115611b2b57611b2a61298f565b5b604051908082528060200260200182016040528015611b595781602001602082028036833780820191505090505b50905060005b600360003373ffffffffffffffffffffffffffffffffffffffff1673ffffffffffffffffffffffffffffffffffffffff16815260200190815260200160002060010180549050811015611c91576000600360003373ffffffffffffffffffffffffffffffffffffffff1673ffffffffffffffffffffffffffffffffffffffff1681526020019081526020016000206001018281548110611c0257611c01612960565b5b9060005260206000200160009054906101000a900473ffffffffffffffffffffffffffffffffffffffff16905080838381518110611c4357611c42612960565b5b602002602001019073ffffffffffffffffffffffffffffffffffffffff16908173ffffffffffffffffffffffffffffffffffffffff1681525050508080611c89906128b9565b915050611b5f565b508091505090565b60006001805490509050600360003373ffffffffffffffffffffffffffffffffffffffff1673ffffffffffffffffffffffffffffffffffffffff168152602001908152602001600020600201819080600181540180825580915050600190039060005260206000200160009091909190915055600360008473ffffffffffffffffffffffffffffffffffffffff1673ffffffffffffffffffffffffffffffffffffffff1681526020019081526020016000206003018190806001815401808255809150506001900390600052602060002001600090919091909150556001600080828254611d8791906127b6565b9250508190555060016040518061010001604052803373ffffffffffffffffffffffffffffffffffffffff1681526020018573ffffffffffffffffffffffffffffffffffffffff16815260200134815260200142815260200184815260200160011515815260200160011515815260200183815250908060018154018082558091505060019003906000526020600020906007020160009091909190915060008201518160000160006101000a81548173ffffffffffffffffffffffffffffffffffffffff021916908373ffffffffffffffffffffffffffffffffffffffff16021790555060208201518160010160006101000a81548173ffffffffffffffffffffffffffffffffffffffff021916908373ffffffffffffffffffffffffffffffffffffffff16021790555060408201518160020155606082015181600301556080820151816004015560a08201518160050160006101000a81548160ff02191690831515021790555060c08201518160050160016101000a81548160ff02191690831515021790555060e082015181600601555050505050565b828054828255906000526020600020908101928215611f9b579160200282015b82811115611f9a5782518260006101000a81548173ffffffffffffffffffffffffffffffffffffffff021916908373ffffffffffffffffffffffffffffffffffffffff16021790555091602001919060010190611f42565b5b509050611fa8919061206e565b5090565b828054828255906000526020600020908101928215611fe8579160200282015b82811115611fe7578251825591602001919060010190611fcc565b5b509050611ff5919061206e565b5090565b604051806101000160405280600073ffffffffffffffffffffffffffffffffffffffff168152602001600073ffffffffffffffffffffffffffffffffffffffff168152602001600081526020016000815260200160008152602001600015158152602001600015158152602001600081525090565b5b8082111561208757600081600090555060010161206f565b5090565b60008135905061209a81612d54565b92915050565b6000813590506120af81612d6b565b92915050565b6000602082840312156120cb576120ca6129be565b5b60006120d98482850161208b565b91505092915050565b600080604083850312156120f9576120f86129be565b5b60006121078582860161208b565b9250506020612118858286016120a0565b9150509250929050565b600060208284031215612138576121376129be565b5b6000612146848285016120a0565b91505092915050565b600080600060608486031215612168576121676129be565b5b6000612176868287016120a0565b9350506020612187868287016120a0565b9250506040612198868287016120a0565b9150509250925092565b60006121ae83836121d3565b60208301905092915050565b60006121c68383612474565b6101008301905092915050565b6121dc81612871565b82525050565b60006121ed82612753565b6121f78185612783565b935061220283612733565b8060005b8381101561223357815161221a88826121a2565b975061222583612769565b925050600181019050612206565b5085935050505092915050565b600061224b8261275e565b6122558185612794565b935061226083612743565b8060005b8381101561229157815161227888826121ba565b975061228383612776565b925050600181019050612264565b5085935050505092915050565b6122a781612883565b82525050565b60006122ba6024836127a5565b91506122c5826129c3565b604082019050919050565b60006122dd603a836127a5565b91506122e882612a12565b604082019050919050565b60006123006031836127a5565b915061230b82612a61565b604082019050919050565b6000612323601e836127a5565b915061232e82612ab0565b602082019050919050565b60006123466026836127a5565b915061235182612ad9565b604082019050919050565b60006123696029836127a5565b915061237482612b28565b604082019050919050565b600061238c6041836127a5565b915061239782612b77565b606082019050919050565b60006123af601c836127a5565b91506123ba82612bec565b602082019050919050565b60006123d26023836127a5565b91506123dd82612c15565b604082019050919050565b60006123f5601b836127a5565b915061240082612c64565b602082019050919050565b60006124186017836127a5565b915061242382612c8d565b602082019050919050565b600061243b6027836127a5565b915061244682612cb6565b604082019050919050565b600061245e6030836127a5565b915061246982612d05565b604082019050919050565b6101008201600082015161248b60008501826121d3565b50602082015161249e60208501826121d3565b5060408201516124b16040850182612516565b5060608201516124c46060850182612516565b5060808201516124d76080850182612516565b5060a08201516124ea60a085018261229e565b5060c08201516124fd60c085018261229e565b5060e082015161251060e0850182612516565b50505050565b61251f816128af565b82525050565b61252e816128af565b82525050565b6000602082019050818103600083015261254e81846121e2565b905092915050565b600060208201905081810360008301526125708184612240565b905092915050565b60006020820190508181036000830152612591816122ad565b9050919050565b600060208201905081810360008301526125b1816122d0565b9050919050565b600060208201905081810360008301526125d1816122f3565b9050919050565b600060208201905081810360008301526125f181612316565b9050919050565b6000602082019050818103600083015261261181612339565b9050919050565b600060208201905081810360008301526126318161235c565b9050919050565b600060208201905081810360008301526126518161237f565b9050919050565b60006020820190508181036000830152612671816123a2565b9050919050565b60006020820190508181036000830152612691816123c5565b9050919050565b600060208201905081810360008301526126b1816123e8565b9050919050565b600060208201905081810360008301526126d18161240b565b9050919050565b600060208201905081810360008301526126f18161242e565b9050919050565b6000602082019050818103600083015261271181612451565b9050919050565b600060208201905061272d6000830184612525565b92915050565b6000819050602082019050919050565b6000819050602082019050919050565b600081519050919050565b600081519050919050565b6000602082019050919050565b6000602082019050919050565b600082825260208201905092915050565b600082825260208201905092915050565b600082825260208201905092915050565b60006127c1826128af565b91506127cc836128af565b9250827fffffffffffffffffffffffffffffffffffffffffffffffffffffffffffffffff0382111561280157612800612902565b5b828201905092915050565b6000612817826128af565b9150612822836128af565b92508261283257612831612931565b5b828204905092915050565b6000612848826128af565b9150612853836128af565b92508282101561286657612865612902565b5b828203905092915050565b600061287c8261288f565b9050919050565b60008115159050919050565b600073ffffffffffffffffffffffffffffffffffffffff82169050919050565b6000819050919050565b60006128c4826128af565b91507fffffffffffffffffffffffffffffffffffffffffffffffffffffffffffffffff8214156128f7576128f6612902565b5b600182019050919050565b7f4e487b7100000000000000000000000000000000000000000000000000000000600052601160045260246000fd5b7f4e487b7100000000000000000000000000000000000000000000000000000000600052601260045260246000fd5b7f4e487b7100000000000000000000000000000000000000000000000000000000600052603260045260246000fd5b7f4e487b7100000000000000000000000000000000000000000000000000000000600052604160045260246000fd5b600080fd5b7f596f752068617665206e6f20726563697069656e747320746f20696e7665737460008201527f20746f2e00000000000000000000000000000000000000000000000000000000602082015250565b7f596f752063616e206e6f742073657420616e20696e7665736d656e7420746f2060008201527f62652072656c6173656420696e2061207061737420646174652e000000000000602082015250565b7f596f752063616e206e6f742072657669736520616e20696e7665736d656e742060008201527f796f7520646964206e6f74206d616b652e000000000000000000000000000000602082015250565b7f5468697320697320616e20696e61637469766520696e7665736d656e742e0000600082015250565b7f496e737566666963656e742066756e647320746f2072657669736520696e766560008201527f736d656e742e0000000000000000000000000000000000000000000000000000602082015250565b7f596f752063616e206e6f742063616e63656c20616e20696e616374697665206960008201527f6e7665736d656e742e0000000000000000000000000000000000000000000000602082015250565b7f596f7520617265206e6f742074686520696e766573746f722c206f6e6c79206960008201527f6e766573746f72732063616e2063616e63656c20616e20696e7665736d656e7460208201527f2e00000000000000000000000000000000000000000000000000000000000000604082015250565b7f596f752068617665206e6f2066756e647320746f206469766964652e00000000600082015250565b7f596f752063616e206e6f74207769746864726177207468652066756e6473207960008201527f6574210000000000000000000000000000000000000000000000000000000000602082015250565b7f596f752061726520616c72656164792072656769737465726564210000000000600082015250565b7f4e6f20726563697069656e742072656769737465726564000000000000000000600082015250565b7f5468697320696e7665736d656e74206973206e6f7420666f722074686973206160008201527f6464726573732100000000000000000000000000000000000000000000000000602082015250565b7f596f752063616e206e6f742077697468647261772066726f6d20616e20696e6160008201527f637469766520696e7665736d656e742e00000000000000000000000000000000602082015250565b612d5d81612871565b8114612d6857600080fd5b50565b612d74816128af565b8114612d7f57600080fd5b5056fea26469706673582212205753296ad091d5db04f679caac33ebafa96393d9de4bb1168885496519c87eb764736f6c63430008070033",
  "linkReferences": {},
  "deployedLinkReferences": {}
}