{
  "_format": "hh-sol-artifact-1",
  "contractName": "Transactions",
  "sourceName": "contracts/Transactions.sol",
  "abi": [
    {
      "anonymous": false,
      "inputs": [
        {
          "indexed": false,
          "internalType": "address",
          "name": "invester",
          "type": "address"
        },
        {
          "indexed": false,
          "internalType": "address",
          "name": "receiver",
          "type": "address"
        },
        {
          "indexed": false,
          "internalType": "uint256",
          "name": "amount",
          "type": "uint256"
        },
        {
          "indexed": false,
          "internalType": "uint256",
          "name": "timeOfInvesment",
          "type": "uint256"
        },
        {
          "indexed": false,
          "internalType": "uint256",
          "name": "timeForRelease",
          "type": "uint256"
        },
        {
          "indexed": false,
          "internalType": "uint256",
          "name": "invesmentNo",
          "type": "uint256"
        }
      ],
      "name": "InvesmentInfo",
      "type": "event"
    },
    {
      "anonymous": false,
      "inputs": [
        {
          "indexed": false,
          "internalType": "address",
          "name": "from",
          "type": "address"
        },
        {
          "indexed": false,
          "internalType": "address",
          "name": "receiver",
          "type": "address"
        },
        {
          "indexed": false,
          "internalType": "uint256",
          "name": "amount",
          "type": "uint256"
        },
        {
          "indexed": false,
          "internalType": "uint256",
          "name": "tarih1",
          "type": "uint256"
        },
        {
          "indexed": false,
          "internalType": "uint256",
          "name": "tarih2",
          "type": "uint256"
        },
        {
          "indexed": false,
          "internalType": "bool",
          "name": "isactive",
          "type": "bool"
        },
        {
          "indexed": false,
          "internalType": "bool",
          "name": "test",
          "type": "bool"
        },
        {
          "indexed": false,
          "internalType": "uint256",
          "name": "transactionCount",
          "type": "uint256"
        }
      ],
      "name": "InvesmentiEkle",
      "type": "event"
    },
    {
      "anonymous": false,
      "inputs": [
        {
          "indexed": false,
          "internalType": "address",
          "name": "userAddress",
          "type": "address"
        }
      ],
      "name": "RegisteredUser",
      "type": "event"
    },
    {
      "anonymous": false,
      "inputs": [
        {
          "indexed": false,
          "internalType": "uint256",
          "name": "userNo",
          "type": "uint256"
        }
      ],
      "name": "newRegister",
      "type": "event"
    },
    {
      "inputs": [
        {
          "internalType": "address payable",
          "name": "receiver",
          "type": "address"
        },
        {
          "internalType": "uint256",
          "name": "amount",
          "type": "uint256"
        },
        {
          "internalType": "string",
          "name": "message",
          "type": "string"
        }
      ],
      "name": "addToBlockchain",
      "outputs": [],
      "stateMutability": "nonpayable",
      "type": "function"
    },
    {
      "inputs": [
        {
          "internalType": "uint256",
          "name": "timeForRelease",
          "type": "uint256"
        }
      ],
      "name": "divideToRecipients",
      "outputs": [],
      "stateMutability": "nonpayable",
      "type": "function"
    },
    {
      "inputs": [],
      "name": "getAllinvesments",
      "outputs": [
        {
          "components": [
            {
              "internalType": "address",
              "name": "invester",
              "type": "address"
            },
            {
              "internalType": "address",
              "name": "receiver",
              "type": "address"
            },
            {
              "internalType": "uint256",
              "name": "amount",
              "type": "uint256"
            },
            {
              "internalType": "uint256",
              "name": "timeOfInvesment",
              "type": "uint256"
            },
            {
              "internalType": "uint256",
              "name": "timeForRelease",
              "type": "uint256"
            },
            {
              "internalType": "bool",
              "name": "isReversable",
              "type": "bool"
            },
            {
              "internalType": "bool",
              "name": "isActive",
              "type": "bool"
            },
            {
              "internalType": "uint256",
              "name": "invesmentNo",
              "type": "uint256"
            }
          ],
          "internalType": "struct Transactions.invesment[]",
          "name": "",
          "type": "tuple[]"
        }
      ],
      "stateMutability": "view",
      "type": "function"
    },
    {
      "inputs": [],
      "name": "getRecipients",
      "outputs": [],
      "stateMutability": "nonpayable",
      "type": "function"
    },
    {
      "inputs": [],
      "name": "getTransactionCount",
      "outputs": [
        {
          "internalType": "uint256",
          "name": "",
          "type": "uint256"
        }
      ],
      "stateMutability": "view",
      "type": "function"
    },
    {
      "inputs": [],
      "name": "invesmentsMadeToMe",
      "outputs": [],
      "stateMutability": "nonpayable",
      "type": "function"
    },
    {
      "inputs": [
        {
          "internalType": "address",
          "name": "receiver",
          "type": "address"
        },
        {
          "internalType": "uint256",
          "name": "timeForRelease",
          "type": "uint256"
        }
      ],
      "name": "makeInvesment",
      "outputs": [],
      "stateMutability": "payable",
      "type": "function"
    },
    {
      "inputs": [],
      "name": "myInvesments",
      "outputs": [],
      "stateMutability": "nonpayable",
      "type": "function"
    },
    {
      "inputs": [
        {
          "internalType": "address",
          "name": "userAddress",
          "type": "address"
        }
      ],
      "name": "register",
      "outputs": [],
      "stateMutability": "nonpayable",
      "type": "function"
    },
    {
      "inputs": [
        {
          "internalType": "address",
          "name": "receiver",
          "type": "address"
        }
      ],
      "name": "registerReceiver",
      "outputs": [],
      "stateMutability": "nonpayable",
      "type": "function"
    },
    {
      "inputs": [
        {
          "internalType": "uint256",
          "name": "invesmentNo",
          "type": "uint256"
        }
      ],
      "name": "reverseInvesment",
      "outputs": [],
      "stateMutability": "payable",
      "type": "function"
    },
    {
      "inputs": [
        {
          "internalType": "uint256",
          "name": "invesmentNo",
          "type": "uint256"
        },
        {
          "internalType": "uint256",
          "name": "amount",
          "type": "uint256"
        },
        {
          "internalType": "uint256",
          "name": "timeForRelease",
          "type": "uint256"
        }
      ],
      "name": "reviseInvesment",
      "outputs": [],
      "stateMutability": "nonpayable",
      "type": "function"
    },
    {
      "inputs": [
        {
          "internalType": "uint256",
          "name": "invesmentNo",
          "type": "uint256"
        }
      ],
      "name": "withdrawInvesment",
      "outputs": [],
      "stateMutability": "payable",
      "type": "function"
    }
  ],
  "bytecode": "0x608060405234801561001057600080fd5b50613719806100206000396000f3fe6080604052600436106100c25760003560e01c8063c57b1d791161007f578063cfdd432911610059578063cfdd43291461020b578063d78d610b14610227578063e26e7abd1461023e578063eb12da4a1461025a576100c2565b8063c57b1d79146101af578063cac5bf55146101d8578063cbf8a7cf146101f4576100c2565b80632e7700f0146100c75780633587ce6a146100f257806338a2ec911461011b5780634420e48614610146578063995d5d0a1461016f5780639fa8bdab14610186575b600080fd5b3480156100d357600080fd5b506100dc610283565b6040516100e991906133a8565b60405180910390f35b3480156100fe57600080fd5b50610119600480360381019061011491906129b0565b61028d565b005b34801561012757600080fd5b506101306107bd565b60405161013d91906131c6565b60405180910390f35b34801561015257600080fd5b5061016d600480360381019061016891906128e4565b610927565b005b34801561017b57600080fd5b50610184610b7d565b005b34801561019257600080fd5b506101ad60048036038101906101a891906128e4565b610fe3565b005b3480156101bb57600080fd5b506101d660048036038101906101d191906129d9565b611190565b005b6101f260048036038101906101ed91906129b0565b611797565b005b34801561020057600080fd5b50610209611a54565b005b610225600480360381019061022091906129b0565b611d87565b005b34801561023357600080fd5b5061023c6120d3565b005b61025860048036038101906102539190612974565b6122a2565b005b34801561026657600080fd5b50610281600480360381019061027c919061290d565b612552565b005b6000600154905090565b6000600360003373ffffffffffffffffffffffffffffffffffffffff1673ffffffffffffffffffffffffffffffffffffffff168152602001908152602001600020600401541415610313576040517f08c379a000000000000000000000000000000000000000000000000000000000815260040161030a906132e8565b60405180910390fd5b6000600360003373ffffffffffffffffffffffffffffffffffffffff1673ffffffffffffffffffffffffffffffffffffffff16815260200190815260200160002060010180549050141561039c576040517f08c379a0000000000000000000000000000000000000000000000000000000008152600401610393906131e8565b60405180910390fd5b6000600360003373ffffffffffffffffffffffffffffffffffffffff1673ffffffffffffffffffffffffffffffffffffffff16815260200190815260200160002060010180549050600360003373ffffffffffffffffffffffffffffffffffffffff1673ffffffffffffffffffffffffffffffffffffffff1681526020019081526020016000206004015461043191906134c4565b905060005b600360003373ffffffffffffffffffffffffffffffffffffffff1673ffffffffffffffffffffffffffffffffffffffff168152602001908152602001600020600101805490508110156107b8576000600360003373ffffffffffffffffffffffffffffffffffffffff1673ffffffffffffffffffffffffffffffffffffffff16815260200190815260200160002060010182815481106104ff577f4e487b7100000000000000000000000000000000000000000000000000000000600052603260045260246000fd5b9060005260206000200160009054906101000a900473ffffffffffffffffffffffffffffffffffffffff16905060006001600080549050610540919061346e565b905060006040518061010001604052803373ffffffffffffffffffffffffffffffffffffffff1681526020018473ffffffffffffffffffffffffffffffffffffffff16815260200186815260200142815260200187815260200160011515815260200160011515815260200183815250908060018154018082558091505060019003906000526020600020906007020160009091909190915060008201518160000160006101000a81548173ffffffffffffffffffffffffffffffffffffffff021916908373ffffffffffffffffffffffffffffffffffffffff16021790555060208201518160010160006101000a81548173ffffffffffffffffffffffffffffffffffffffff021916908373ffffffffffffffffffffffffffffffffffffffff16021790555060408201518160020155606082015181600301556080820151816004015560a08201518160050160006101000a81548160ff02191690831515021790555060c08201518160050160016101000a81548160ff02191690831515021790555060e082015181600601555050600360003373ffffffffffffffffffffffffffffffffffffffff1673ffffffffffffffffffffffffffffffffffffffff168152602001908152602001600020600201819080600181540180825580915050600190039060005260206000200160009091909190915055600360008373ffffffffffffffffffffffffffffffffffffffff1673ffffffffffffffffffffffffffffffffffffffff168152602001908152602001600020600301819080600181540180825580915050600190039060005260206000200160009091909190915055505080806107b0906135c8565b915050610436565b505050565b60606000805480602002602001604051908101604052809291908181526020016000905b8282101561091e5783829060005260206000209060070201604051806101000160405290816000820160009054906101000a900473ffffffffffffffffffffffffffffffffffffffff1673ffffffffffffffffffffffffffffffffffffffff1673ffffffffffffffffffffffffffffffffffffffff1681526020016001820160009054906101000a900473ffffffffffffffffffffffffffffffffffffffff1673ffffffffffffffffffffffffffffffffffffffff1673ffffffffffffffffffffffffffffffffffffffff1681526020016002820154815260200160038201548152602001600482015481526020016005820160009054906101000a900460ff161515151581526020016005820160019054906101000a900460ff16151515158152602001600682015481525050815260200190600101906107e1565b50505050905090565b600360008273ffffffffffffffffffffffffffffffffffffffff1673ffffffffffffffffffffffffffffffffffffffff16815260200190815260200160002060050160009054906101000a900460ff16156109b7576040517f08c379a00000000000000000000000000000000000000000000000000000000081526004016109ae90613328565b60405180910390fd5b60608060606000806040518060c001604052808773ffffffffffffffffffffffffffffffffffffffff16815260200186815260200185815260200184815260200183815260200160011515815250905080600360008873ffffffffffffffffffffffffffffffffffffffff1673ffffffffffffffffffffffffffffffffffffffff16815260200190815260200160002060008201518160000160006101000a81548173ffffffffffffffffffffffffffffffffffffffff021916908373ffffffffffffffffffffffffffffffffffffffff1602179055506020820151816001019080519060200190610aaa929190612749565b506040820151816002019080519060200190610ac79291906127d3565b506060820151816003019080519060200190610ae49291906127d3565b506080820151816004015560a08201518160050160006101000a81548160ff0219169083151502179055509050506002869080600181540180825580915050600190039060005260206000200160009091909190916101000a81548173ffffffffffffffffffffffffffffffffffffffff021916908373ffffffffffffffffffffffffffffffffffffffff160217905550505050505050565b6000600360003373ffffffffffffffffffffffffffffffffffffffff1673ffffffffffffffffffffffffffffffffffffffff1681526020019081526020016000206003018054905011610c05576040517f08c379a0000000000000000000000000000000000000000000000000000000008152600401610bfc90613248565b60405180910390fd5b60006001905060005b600360003373ffffffffffffffffffffffffffffffffffffffff1673ffffffffffffffffffffffffffffffffffffffff16815260200190815260200160002060030180549050811015610f9e576000600360003373ffffffffffffffffffffffffffffffffffffffff1673ffffffffffffffffffffffffffffffffffffffff1681526020019081526020016000206003018281548110610cd7577f4e487b7100000000000000000000000000000000000000000000000000000000600052603260045260246000fd5b9060005260206000200154905060008181548110610d1e577f4e487b7100000000000000000000000000000000000000000000000000000000600052603260045260246000fd5b906000526020600020906007020160050160019054906101000a900460ff1615610f8a577f404d0c3fc056af82f6c3daf413b0ea50c0c730ccced2a74136a9472aa7b3513e60008281548110610d9d577f4e487b7100000000000000000000000000000000000000000000000000000000600052603260045260246000fd5b906000526020600020906007020160000160009054906101000a900473ffffffffffffffffffffffffffffffffffffffff1660008381548110610e09577f4e487b7100000000000000000000000000000000000000000000000000000000600052603260045260246000fd5b906000526020600020906007020160010160009054906101000a900473ffffffffffffffffffffffffffffffffffffffff1660008481548110610e75577f4e487b7100000000000000000000000000000000000000000000000000000000600052603260045260246000fd5b90600052602060002090600702016002015460008581548110610ec1577f4e487b7100000000000000000000000000000000000000000000000000000000600052603260045260246000fd5b90600052602060002090600702016003015460008681548110610f0d577f4e487b7100000000000000000000000000000000000000000000000000000000600052603260045260246000fd5b90600052602060002090600702016004015460008781548110610f59577f4e487b7100000000000000000000000000000000000000000000000000000000600052603260045260246000fd5b906000526020600020906007020160060154604051610f7d96959493929190613165565b60405180910390a1600092505b508080610f96906135c8565b915050610c0e565b508015610fe0576040517f08c379a0000000000000000000000000000000000000000000000000000000008152600401610fd790613248565b60405180910390fd5b50565b600360008273ffffffffffffffffffffffffffffffffffffffff1673ffffffffffffffffffffffffffffffffffffffff16815260200190815260200160002060050160009054906101000a900460ff16156110e057600360003373ffffffffffffffffffffffffffffffffffffffff1673ffffffffffffffffffffffffffffffffffffffff168152602001908152602001600020600101819080600181540180825580915050600190039060005260206000200160009091909190916101000a81548173ffffffffffffffffffffffffffffffffffffffff021916908373ffffffffffffffffffffffffffffffffffffffff16021790555061118d565b6110e981610927565b600360003373ffffffffffffffffffffffffffffffffffffffff1673ffffffffffffffffffffffffffffffffffffffff168152602001908152602001600020600101819080600181540180825580915050600190039060005260206000200160009091909190916101000a81548173ffffffffffffffffffffffffffffffffffffffff021916908373ffffffffffffffffffffffffffffffffffffffff1602179055505b50565b3373ffffffffffffffffffffffffffffffffffffffff16600084815481106111e1577f4e487b7100000000000000000000000000000000000000000000000000000000600052603260045260246000fd5b906000526020600020906007020160000160009054906101000a900473ffffffffffffffffffffffffffffffffffffffff1673ffffffffffffffffffffffffffffffffffffffff1614611269576040517f08c379a000000000000000000000000000000000000000000000000000000000815260040161126090613228565b60405180910390fd5b600083815481106112a3577f4e487b7100000000000000000000000000000000000000000000000000000000600052603260045260246000fd5b906000526020600020906007020160050160019054906101000a900460ff16611301576040517f08c379a00000000000000000000000000000000000000000000000000000000081526004016112f890613268565b60405180910390fd5b42816000858154811061133d577f4e487b7100000000000000000000000000000000000000000000000000000000600052603260045260246000fd5b906000526020600020906007020160030154611359919061346e565b101561139a576040517f08c379a000000000000000000000000000000000000000000000000000000000815260040161139190613208565b60405180910390fd5b600083815481106113d4577f4e487b7100000000000000000000000000000000000000000000000000000000600052603260045260246000fd5b9060005260206000209060070201600201548211156116075760008381548110611427577f4e487b7100000000000000000000000000000000000000000000000000000000600052603260045260246000fd5b9060005260206000209060070201600201548261144491906134f5565b600360003373ffffffffffffffffffffffffffffffffffffffff1673ffffffffffffffffffffffffffffffffffffffff1681526020019081526020016000206004015410156114c8576040517f08c379a00000000000000000000000000000000000000000000000000000000081526004016114bf90613288565b60405180910390fd5b8160008481548110611503577f4e487b7100000000000000000000000000000000000000000000000000000000600052603260045260246000fd5b90600052602060002090600702016002015461151f91906134f5565b600360003373ffffffffffffffffffffffffffffffffffffffff1673ffffffffffffffffffffffffffffffffffffffff1681526020019081526020016000206004015461156c91906134f5565b600360003373ffffffffffffffffffffffffffffffffffffffff1673ffffffffffffffffffffffffffffffffffffffff1681526020019081526020016000206004018190555081600084815481106115ed577f4e487b7100000000000000000000000000000000000000000000000000000000600052603260045260246000fd5b906000526020600020906007020160020181905550611742565b8160008481548110611642577f4e487b7100000000000000000000000000000000000000000000000000000000600052603260045260246000fd5b90600052602060002090600702016002015461165e91906134f5565b600360003373ffffffffffffffffffffffffffffffffffffffff1673ffffffffffffffffffffffffffffffffffffffff168152602001908152602001600020600401546116ab919061346e565b600360003373ffffffffffffffffffffffffffffffffffffffff1673ffffffffffffffffffffffffffffffffffffffff16815260200190815260200160002060040181905550816000848154811061172c577f4e487b7100000000000000000000000000000000000000000000000000000000600052603260045260246000fd5b9060005260206000209060070201600201819055505b806000848154811061177d577f4e487b7100000000000000000000000000000000000000000000000000000000600052603260045260246000fd5b906000526020600020906007020160040181905550505050565b3373ffffffffffffffffffffffffffffffffffffffff16600082815481106117e8577f4e487b7100000000000000000000000000000000000000000000000000000000600052603260045260246000fd5b906000526020600020906007020160000160009054906101000a900473ffffffffffffffffffffffffffffffffffffffff1673ffffffffffffffffffffffffffffffffffffffff1614611870576040517f08c379a0000000000000000000000000000000000000000000000000000000008152600401611867906132c8565b60405180910390fd5b60011515600082815481106118ae577f4e487b7100000000000000000000000000000000000000000000000000000000600052603260045260246000fd5b906000526020600020906007020160050160019054906101000a900460ff1615151461190f576040517f08c379a0000000000000000000000000000000000000000000000000000000008152600401611906906132a8565b60405180910390fd5b600080828154811061194a577f4e487b7100000000000000000000000000000000000000000000000000000000600052603260045260246000fd5b906000526020600020906007020160050160016101000a81548160ff021916908315150217905550600081815481106119ac577f4e487b7100000000000000000000000000000000000000000000000000000000600052603260045260246000fd5b906000526020600020906007020160020154600360003373ffffffffffffffffffffffffffffffffffffffff1673ffffffffffffffffffffffffffffffffffffffff16815260200190815260200160002060040154611a0b919061346e565b600360003373ffffffffffffffffffffffffffffffffffffffff1673ffffffffffffffffffffffffffffffffffffffff1681526020019081526020016000206004018190555050565b60005b600360003373ffffffffffffffffffffffffffffffffffffffff1673ffffffffffffffffffffffffffffffffffffffff16815260200190815260200160002060020180549050811015611d84576000600360003373ffffffffffffffffffffffffffffffffffffffff1673ffffffffffffffffffffffffffffffffffffffff1681526020019081526020016000206002018281548110611b20577f4e487b7100000000000000000000000000000000000000000000000000000000600052603260045260246000fd5b906000526020600020015490507f404d0c3fc056af82f6c3daf413b0ea50c0c730ccced2a74136a9472aa7b3513e60008281548110611b88577f4e487b7100000000000000000000000000000000000000000000000000000000600052603260045260246000fd5b906000526020600020906007020160000160009054906101000a900473ffffffffffffffffffffffffffffffffffffffff1660008381548110611bf4577f4e487b7100000000000000000000000000000000000000000000000000000000600052603260045260246000fd5b906000526020600020906007020160010160009054906101000a900473ffffffffffffffffffffffffffffffffffffffff1660008481548110611c60577f4e487b7100000000000000000000000000000000000000000000000000000000600052603260045260246000fd5b90600052602060002090600702016002015460008581548110611cac577f4e487b7100000000000000000000000000000000000000000000000000000000600052603260045260246000fd5b90600052602060002090600702016003015460008681548110611cf8577f4e487b7100000000000000000000000000000000000000000000000000000000600052603260045260246000fd5b90600052602060002090600702016004015460008781548110611d44577f4e487b7100000000000000000000000000000000000000000000000000000000600052603260045260246000fd5b906000526020600020906007020160060154604051611d6896959493929190613165565b60405180910390a1508080611d7c906135c8565b915050611a57565b50565b3373ffffffffffffffffffffffffffffffffffffffff1660008281548110611dd8577f4e487b7100000000000000000000000000000000000000000000000000000000600052603260045260246000fd5b906000526020600020906007020160010160009054906101000a900473ffffffffffffffffffffffffffffffffffffffff1673ffffffffffffffffffffffffffffffffffffffff1614611e60576040517f08c379a0000000000000000000000000000000000000000000000000000000008152600401611e5790613368565b60405180910390fd5b60008181548110611e9a577f4e487b7100000000000000000000000000000000000000000000000000000000600052603260045260246000fd5b906000526020600020906007020160050160019054906101000a900460ff16611ef8576040517f08c379a0000000000000000000000000000000000000000000000000000000008152600401611eef90613388565b60405180910390fd5b4260008281548110611f33577f4e487b7100000000000000000000000000000000000000000000000000000000600052603260045260246000fd5b90600052602060002090600702016004015460008381548110611f7f577f4e487b7100000000000000000000000000000000000000000000000000000000600052603260045260246000fd5b906000526020600020906007020160030154611f9b919061346e565b10611fdb576040517f08c379a0000000000000000000000000000000000000000000000000000000008152600401611fd290613308565b60405180910390fd5b6000808281548110612016577f4e487b7100000000000000000000000000000000000000000000000000000000600052603260045260246000fd5b906000526020600020906007020160050160016101000a81548160ff0219169083151502179055503373ffffffffffffffffffffffffffffffffffffffff166108fc60008381548110612092577f4e487b7100000000000000000000000000000000000000000000000000000000600052603260045260246000fd5b9060005260206000209060070201600201549081150290604051600060405180830381858888f193505050501580156120cf573d6000803e3d6000fd5b5050565b6000600360003373ffffffffffffffffffffffffffffffffffffffff1673ffffffffffffffffffffffffffffffffffffffff168152602001908152602001600020600101805490501161215b576040517f08c379a000000000000000000000000000000000000000000000000000000000815260040161215290613348565b60405180910390fd5b60005b600360003373ffffffffffffffffffffffffffffffffffffffff1673ffffffffffffffffffffffffffffffffffffffff1681526020019081526020016000206001018054905081101561229f576000600360003373ffffffffffffffffffffffffffffffffffffffff1673ffffffffffffffffffffffffffffffffffffffff1681526020019081526020016000206001018281548110612227577f4e487b7100000000000000000000000000000000000000000000000000000000600052603260045260246000fd5b9060005260206000200160009054906101000a900473ffffffffffffffffffffffffffffffffffffffff1690507fbb74e68fafbea9c1a78e7c8ed9d68158f5acc55124596158170e635ff13d271c8160405161228391906130cc565b60405180910390a1508080612297906135c8565b91505061215e565b50565b600080805490509050600360003373ffffffffffffffffffffffffffffffffffffffff1673ffffffffffffffffffffffffffffffffffffffff168152602001908152602001600020600201819080600181540180825580915050600190039060005260206000200160009091909190915055600360008473ffffffffffffffffffffffffffffffffffffffff1673ffffffffffffffffffffffffffffffffffffffff1681526020019081526020016000206003018190806001815401808255809150506001900390600052602060002001600090919091909150557f404d0c3fc056af82f6c3daf413b0ea50c0c730ccced2a74136a9472aa7b3513e3384344286866040516123b696959493929190613165565b60405180910390a160006040518061010001604052803373ffffffffffffffffffffffffffffffffffffffff1681526020018573ffffffffffffffffffffffffffffffffffffffff16815260200134815260200142815260200184815260200160011515815260200160011515815260200183815250908060018154018082558091505060019003906000526020600020906007020160009091909190915060008201518160000160006101000a81548173ffffffffffffffffffffffffffffffffffffffff021916908373ffffffffffffffffffffffffffffffffffffffff16021790555060208201518160010160006101000a81548173ffffffffffffffffffffffffffffffffffffffff021916908373ffffffffffffffffffffffffffffffffffffffff16021790555060408201518160020155606082015181600301556080820151816004015560a08201518160050160006101000a81548160ff02191690831515021790555060c08201518160050160016101000a81548160ff02191690831515021790555060e082015181600601555050505050565b6001806000828254612564919061346e565b9250508190555060006040518061010001604052803373ffffffffffffffffffffffffffffffffffffffff1681526020018573ffffffffffffffffffffffffffffffffffffffff168152602001848152602001428152602001428152602001600015158152602001600115158152602001600154815250908060018154018082558091505060019003906000526020600020906007020160009091909190915060008201518160000160006101000a81548173ffffffffffffffffffffffffffffffffffffffff021916908373ffffffffffffffffffffffffffffffffffffffff16021790555060208201518160010160006101000a81548173ffffffffffffffffffffffffffffffffffffffff021916908373ffffffffffffffffffffffffffffffffffffffff16021790555060408201518160020155606082015181600301556080820151816004015560a08201518160050160006101000a81548160ff02191690831515021790555060c08201518160050160016101000a81548160ff02191690831515021790555060e0820151816006015550507f43ae1dd719252719bbe0f20d8b8df63edbc4a4cf057087cf42d750baff33abad338484424260006001805460405161273c9897969594939291906130e7565b60405180910390a1505050565b8280548282559060005260206000209081019282156127c2579160200282015b828111156127c15782518260006101000a81548173ffffffffffffffffffffffffffffffffffffffff021916908373ffffffffffffffffffffffffffffffffffffffff16021790555091602001919060010190612769565b5b5090506127cf9190612820565b5090565b82805482825590600052602060002090810192821561280f579160200282015b8281111561280e5782518255916020019190600101906127f3565b5b50905061281c9190612820565b5090565b5b80821115612839576000816000905550600101612821565b5090565b600061285061284b846133f4565b6133c3565b90508281526020810184848401111561286857600080fd5b6128738482856135b9565b509392505050565b60008135905061288a8161369e565b92915050565b60008135905061289f816136b5565b92915050565b600082601f8301126128b657600080fd5b81356128c684826020860161283d565b91505092915050565b6000813590506128de816136cc565b92915050565b6000602082840312156128f657600080fd5b60006129048482850161287b565b91505092915050565b60008060006060848603121561292257600080fd5b600061293086828701612890565b9350506020612941868287016128cf565b925050604084013567ffffffffffffffff81111561295e57600080fd5b61296a868287016128a5565b9150509250925092565b6000806040838503121561298757600080fd5b60006129958582860161287b565b92505060206129a6858286016128cf565b9150509250929050565b6000602082840312156129c257600080fd5b60006129d0848285016128cf565b91505092915050565b6000806000606084860312156129ee57600080fd5b60006129fc868287016128cf565b9350506020612a0d868287016128cf565b9250506040612a1e868287016128cf565b9150509250925092565b6000612a34838361300c565b6101008301905092915050565b612a4a81613583565b82525050565b612a5981613529565b82525050565b612a6881613529565b82525050565b6000612a7982613434565b612a83818561344c565b9350612a8e83613424565b8060005b83811015612abf578151612aa68882612a28565b9750612ab18361343f565b925050600181019050612a92565b5085935050505092915050565b612ad58161354d565b82525050565b612ae48161354d565b82525050565b6000612af760248361345d565b91507f596f752068617665206e6f20726563697069656e747320746f20696e7665737460008301527f20746f2e000000000000000000000000000000000000000000000000000000006020830152604082019050919050565b6000612b5d603a8361345d565b91507f596f752063616e206e6f742073657420616e20696e7665736d656e7420746f2060008301527f62652072656c6173656420696e2061207061737420646174652e0000000000006020830152604082019050919050565b6000612bc360318361345d565b91507f596f752063616e206e6f742072657669736520616e20696e7665736d656e742060008301527f796f7520646964206e6f74206d616b652e0000000000000000000000000000006020830152604082019050919050565b6000612c2960248361345d565b91507f546865726520617265206e6f20696e7665736d656e7473206d61646520666f7260008301527f20796f75000000000000000000000000000000000000000000000000000000006020830152604082019050919050565b6000612c8f601e8361345d565b91507f5468697320697320616e20696e61637469766520696e7665736d656e742e00006000830152602082019050919050565b6000612ccf60268361345d565b91507f496e737566666963656e742066756e647320746f2072657669736520696e766560008301527f736d656e742e00000000000000000000000000000000000000000000000000006020830152604082019050919050565b6000612d3560298361345d565b91507f596f752063616e206e6f742063616e63656c20616e20696e616374697665206960008301527f6e7665736d656e742e00000000000000000000000000000000000000000000006020830152604082019050919050565b6000612d9b60418361345d565b91507f596f7520617265206e6f742074686520696e766573746f722c206f6e6c79206960008301527f6e766573746f72732063616e2063616e63656c20616e20696e7665736d656e7460208301527f2e000000000000000000000000000000000000000000000000000000000000006040830152606082019050919050565b6000612e27601c8361345d565b91507f596f752068617665206e6f2066756e647320746f206469766964652e000000006000830152602082019050919050565b6000612e6760238361345d565b91507f596f752063616e206e6f74207769746864726177207468652066756e6473207960008301527f65742100000000000000000000000000000000000000000000000000000000006020830152604082019050919050565b6000612ecd601b8361345d565b91507f596f752061726520616c726561647920726567697374657265642100000000006000830152602082019050919050565b6000612f0d60178361345d565b91507f4e6f20726563697069656e7420726567697374657265640000000000000000006000830152602082019050919050565b6000612f4d60278361345d565b91507f5468697320696e7665736d656e74206973206e6f7420666f722074686973206160008301527f64647265737321000000000000000000000000000000000000000000000000006020830152604082019050919050565b6000612fb360308361345d565b91507f596f752063616e206e6f742077697468647261772066726f6d20616e20696e6160008301527f637469766520696e7665736d656e742e000000000000000000000000000000006020830152604082019050919050565b610100820160008201516130236000850182612a50565b5060208201516130366020850182612a50565b50604082015161304960408501826130ae565b50606082015161305c60608501826130ae565b50608082015161306f60808501826130ae565b5060a082015161308260a0850182612acc565b5060c082015161309560c0850182612acc565b5060e08201516130a860e08501826130ae565b50505050565b6130b781613579565b82525050565b6130c681613579565b82525050565b60006020820190506130e16000830184612a5f565b92915050565b6000610100820190506130fd600083018b612a5f565b61310a602083018a612a41565b61311760408301896130bd565b61312460608301886130bd565b61313160808301876130bd565b61313e60a0830186612adb565b61314b60c0830185612adb565b61315860e08301846130bd565b9998505050505050505050565b600060c08201905061317a6000830189612a5f565b6131876020830188612a5f565b61319460408301876130bd565b6131a160608301866130bd565b6131ae60808301856130bd565b6131bb60a08301846130bd565b979650505050505050565b600060208201905081810360008301526131e08184612a6e565b905092915050565b6000602082019050818103600083015261320181612aea565b9050919050565b6000602082019050818103600083015261322181612b50565b9050919050565b6000602082019050818103600083015261324181612bb6565b9050919050565b6000602082019050818103600083015261326181612c1c565b9050919050565b6000602082019050818103600083015261328181612c82565b9050919050565b600060208201905081810360008301526132a181612cc2565b9050919050565b600060208201905081810360008301526132c181612d28565b9050919050565b600060208201905081810360008301526132e181612d8e565b9050919050565b6000602082019050818103600083015261330181612e1a565b9050919050565b6000602082019050818103600083015261332181612e5a565b9050919050565b6000602082019050818103600083015261334181612ec0565b9050919050565b6000602082019050818103600083015261336181612f00565b9050919050565b6000602082019050818103600083015261338181612f40565b9050919050565b600060208201905081810360008301526133a181612fa6565b9050919050565b60006020820190506133bd60008301846130bd565b92915050565b6000604051905081810181811067ffffffffffffffff821117156133ea576133e961366f565b5b8060405250919050565b600067ffffffffffffffff82111561340f5761340e61366f565b5b601f19601f8301169050602081019050919050565b6000819050602082019050919050565b600081519050919050565b6000602082019050919050565b600082825260208201905092915050565b600082825260208201905092915050565b600061347982613579565b915061348483613579565b9250827fffffffffffffffffffffffffffffffffffffffffffffffffffffffffffffffff038211156134b9576134b8613611565b5b828201905092915050565b60006134cf82613579565b91506134da83613579565b9250826134ea576134e9613640565b5b828204905092915050565b600061350082613579565b915061350b83613579565b92508282101561351e5761351d613611565b5b828203905092915050565b600061353482613559565b9050919050565b600061354682613559565b9050919050565b60008115159050919050565b600073ffffffffffffffffffffffffffffffffffffffff82169050919050565b6000819050919050565b600061358e82613595565b9050919050565b60006135a0826135a7565b9050919050565b60006135b282613559565b9050919050565b82818337600083830152505050565b60006135d382613579565b91507fffffffffffffffffffffffffffffffffffffffffffffffffffffffffffffffff82141561360657613605613611565b5b600182019050919050565b7f4e487b7100000000000000000000000000000000000000000000000000000000600052601160045260246000fd5b7f4e487b7100000000000000000000000000000000000000000000000000000000600052601260045260246000fd5b7f4e487b7100000000000000000000000000000000000000000000000000000000600052604160045260246000fd5b6136a781613529565b81146136b257600080fd5b50565b6136be8161353b565b81146136c957600080fd5b50565b6136d581613579565b81146136e057600080fd5b5056fea2646970667358221220f33c9faf0d8a945ac64f508b50df8f57424af56d066ad3b5e7b2f34d3fa64b5964736f6c63430008000033",
  "linkReferences": {},
  "deployedLinkReferences": {}
}