{
  "_format": "hh-sol-artifact-1",
  "contractName": "Transactions",
  "sourceName": "contracts/Transactions.sol",
  "abi": [
    {
      "inputs": [
        {
          "internalType": "uint256",
          "name": "timeForRelease",
          "type": "uint256"
        }
      ],
      "name": "divideToRecipients",
      "outputs": [],
      "stateMutability": "payable",
      "type": "function"
    },
    {
      "inputs": [],
      "name": "getRecipients",
      "outputs": [
        {
          "internalType": "address[]",
          "name": "",
          "type": "address[]"
        }
      ],
      "stateMutability": "view",
      "type": "function"
    },
    {
      "inputs": [],
      "name": "invesmentsMadeToMe",
      "outputs": [
        {
          "components": [
            {
              "internalType": "string",
              "name": "name",
              "type": "string"
            },
            {
              "internalType": "address",
              "name": "invester",
              "type": "address"
            },
            {
              "internalType": "address",
              "name": "receiver",
              "type": "address"
            },
            {
              "internalType": "uint256",
              "name": "amount",
              "type": "uint256"
            },
            {
              "internalType": "uint256",
              "name": "timeOfInvesment",
              "type": "uint256"
            },
            {
              "internalType": "uint256",
              "name": "timeForRelease",
              "type": "uint256"
            },
            {
              "internalType": "enum Transactions.Status",
              "name": "invesmentStatus",
              "type": "uint8"
            },
            {
              "internalType": "uint256",
              "name": "invesmentNo",
              "type": "uint256"
            }
          ],
          "internalType": "struct Transactions.invesment[]",
          "name": "",
          "type": "tuple[]"
        }
      ],
      "stateMutability": "view",
      "type": "function"
    },
    {
      "inputs": [
        {
          "internalType": "address",
          "name": "receiver",
          "type": "address"
        },
        {
          "internalType": "uint256",
          "name": "timeForRelease",
          "type": "uint256"
        },
        {
          "internalType": "string",
          "name": "name",
          "type": "string"
        }
      ],
      "name": "makeInvesment",
      "outputs": [],
      "stateMutability": "payable",
      "type": "function"
    },
    {
      "inputs": [],
      "name": "myInvesments",
      "outputs": [
        {
          "components": [
            {
              "internalType": "string",
              "name": "name",
              "type": "string"
            },
            {
              "internalType": "address",
              "name": "invester",
              "type": "address"
            },
            {
              "internalType": "address",
              "name": "receiver",
              "type": "address"
            },
            {
              "internalType": "uint256",
              "name": "amount",
              "type": "uint256"
            },
            {
              "internalType": "uint256",
              "name": "timeOfInvesment",
              "type": "uint256"
            },
            {
              "internalType": "uint256",
              "name": "timeForRelease",
              "type": "uint256"
            },
            {
              "internalType": "enum Transactions.Status",
              "name": "invesmentStatus",
              "type": "uint8"
            },
            {
              "internalType": "uint256",
              "name": "invesmentNo",
              "type": "uint256"
            }
          ],
          "internalType": "struct Transactions.invesment[]",
          "name": "",
          "type": "tuple[]"
        }
      ],
      "stateMutability": "view",
      "type": "function"
    },
    {
      "inputs": [
        {
          "internalType": "address",
          "name": "userAddress",
          "type": "address"
        }
      ],
      "name": "register",
      "outputs": [],
      "stateMutability": "nonpayable",
      "type": "function"
    },
    {
      "inputs": [
        {
          "internalType": "address",
          "name": "receiver",
          "type": "address"
        }
      ],
      "name": "registerReceiver",
      "outputs": [],
      "stateMutability": "nonpayable",
      "type": "function"
    },
    {
      "inputs": [
        {
          "internalType": "uint256",
          "name": "invesmentNo",
          "type": "uint256"
        }
      ],
      "name": "reverseInvesment",
      "outputs": [],
      "stateMutability": "payable",
      "type": "function"
    },
    {
      "inputs": [
        {
          "internalType": "uint256",
          "name": "invesmentNo",
          "type": "uint256"
        },
        {
          "internalType": "uint256",
          "name": "amount",
          "type": "uint256"
        },
        {
          "internalType": "uint256",
          "name": "timeForRelease",
          "type": "uint256"
        }
      ],
      "name": "reviseInvesment",
      "outputs": [],
      "stateMutability": "nonpayable",
      "type": "function"
    },
    {
      "inputs": [
        {
          "internalType": "uint256",
          "name": "invesmentNo",
          "type": "uint256"
        }
      ],
      "name": "withdrawInvesment",
      "outputs": [],
      "stateMutability": "payable",
      "type": "function"
    }
  ],
  "bytecode": "0x608060405234801561001057600080fd5b50613197806100206000396000f3fe6080604052600436106100915760003560e01c8063cac5bf5511610059578063cac5bf5514610158578063cbf8a7cf14610174578063cfdd43291461019f578063d78d610b146101bb578063e4d08cf2146101e657610091565b80633587ce6a146100965780634420e486146100b2578063995d5d0a146100db5780639fa8bdab14610106578063c57b1d791461012f575b600080fd5b6100b060048036038101906100ab919061227e565b610202565b005b3480156100be57600080fd5b506100d960048036038101906100d491906121e2565b6106cb565b005b3480156100e757600080fd5b506100f06108be565b6040516100fd919061271f565b60405180910390f35b34801561011257600080fd5b5061012d600480360381019061012891906121e2565b610c65565b005b34801561013b57600080fd5b50610156600480360381019061015191906122ab565b610e12565b005b610172600480360381019061016d919061227e565b611294565b005b34801561018057600080fd5b5061018961149d565b604051610196919061271f565b60405180910390f35b6101b960048036038101906101b4919061227e565b6117f8565b005b3480156101c757600080fd5b506101d0611a67565b6040516101dd91906126fd565b60405180910390f35b61020060048036038101906101fb919061220f565b611cc0565b005b6000341415610246576040517f08c379a000000000000000000000000000000000000000000000000000000000815260040161023d90612841565b60405180910390fd5b6000600360003373ffffffffffffffffffffffffffffffffffffffff1673ffffffffffffffffffffffffffffffffffffffff1681526020019081526020016000206001018054905014156102cf576040517f08c379a00000000000000000000000000000000000000000000000000000000081526004016102c690612741565b60405180910390fd5b6000600360003373ffffffffffffffffffffffffffffffffffffffff1673ffffffffffffffffffffffffffffffffffffffff16815260200190815260200160002060010180549050346103229190612a4c565b905060005b600360003373ffffffffffffffffffffffffffffffffffffffff1673ffffffffffffffffffffffffffffffffffffffff168152602001908152602001600020600101805490508110156106c6576000600360003373ffffffffffffffffffffffffffffffffffffffff1673ffffffffffffffffffffffffffffffffffffffff16815260200190815260200160002060010182815481106103ca576103c9612cbc565b5b9060005260206000200160009054906101000a900473ffffffffffffffffffffffffffffffffffffffff1690506000600180549050905060016040518061010001604052806040518060400160405280601281526020017f4469766964656420696e7665736d656e742e000000000000000000000000000081525081526020013373ffffffffffffffffffffffffffffffffffffffff1681526020018473ffffffffffffffffffffffffffffffffffffffff168152602001868152602001428152602001878152602001600060028111156104a8576104a7612c5e565b5b815260200183815250908060018154018082558091505060019003906000526020600020906008020160009091909190915060008201518160000190805190602001906104f6929190611f4b565b5060208201518160010160006101000a81548173ffffffffffffffffffffffffffffffffffffffff021916908373ffffffffffffffffffffffffffffffffffffffff16021790555060408201518160020160006101000a81548173ffffffffffffffffffffffffffffffffffffffff021916908373ffffffffffffffffffffffffffffffffffffffff160217905550606082015181600301556080820151816004015560a0820151816005015560c08201518160060160006101000a81548160ff021916908360028111156105ce576105cd612c5e565b5b021790555060e082015181600701555050600360003373ffffffffffffffffffffffffffffffffffffffff1673ffffffffffffffffffffffffffffffffffffffff168152602001908152602001600020600201819080600181540180825580915050600190039060005260206000200160009091909190915055600360008373ffffffffffffffffffffffffffffffffffffffff1673ffffffffffffffffffffffffffffffffffffffff168152602001908152602001600020600301819080600181540180825580915050600190039060005260206000200160009091909190915055505080806106be90612bb7565b915050610327565b505050565b600360008273ffffffffffffffffffffffffffffffffffffffff1673ffffffffffffffffffffffffffffffffffffffff16815260200190815260200160002060050160009054906101000a900460ff161561075b576040517f08c379a000000000000000000000000000000000000000000000000000000000815260040161075290612881565b60405180910390fd5b60608060606000806040518060c001604052808773ffffffffffffffffffffffffffffffffffffffff16815260200186815260200185815260200184815260200183815260200160011515815250905080600360008873ffffffffffffffffffffffffffffffffffffffff1673ffffffffffffffffffffffffffffffffffffffff16815260200190815260200160002060008201518160000160006101000a81548173ffffffffffffffffffffffffffffffffffffffff021916908373ffffffffffffffffffffffffffffffffffffffff160217905550602082015181600101908051906020019061084e929190611fd1565b50604082015181600201908051906020019061086b92919061205b565b50606082015181600301908051906020019061088892919061205b565b506080820151816004015560a08201518160050160006101000a81548160ff021916908315150217905550905050505050505050565b60606000600360003373ffffffffffffffffffffffffffffffffffffffff1673ffffffffffffffffffffffffffffffffffffffff1681526020019081526020016000206003018054905067ffffffffffffffff81111561092157610920612ceb565b5b60405190808252806020026020018201604052801561095a57816020015b6109476120a8565b81526020019060019003908161093f5790505b50905060006001905060005b600360003373ffffffffffffffffffffffffffffffffffffffff1673ffffffffffffffffffffffffffffffffffffffff16815260200190815260200160002060030180549050811015610c1b576000600360003373ffffffffffffffffffffffffffffffffffffffff1673ffffffffffffffffffffffffffffffffffffffff1681526020019081526020016000206003018281548110610a0957610a08612cbc565b5b9060005260206000200154905060018181548110610a2a57610a29612cbc565b5b906000526020600020906008020160405180610100016040529081600082018054610a5490612b54565b80601f0160208091040260200160405190810160405280929190818152602001828054610a8090612b54565b8015610acd5780601f10610aa257610100808354040283529160200191610acd565b820191906000526020600020905b815481529060010190602001808311610ab057829003601f168201915b505050505081526020016001820160009054906101000a900473ffffffffffffffffffffffffffffffffffffffff1673ffffffffffffffffffffffffffffffffffffffff1673ffffffffffffffffffffffffffffffffffffffff1681526020016002820160009054906101000a900473ffffffffffffffffffffffffffffffffffffffff1673ffffffffffffffffffffffffffffffffffffffff1673ffffffffffffffffffffffffffffffffffffffff1681526020016003820154815260200160048201548152602001600582015481526020016006820160009054906101000a900460ff166002811115610bc557610bc4612c5e565b5b6002811115610bd757610bd6612c5e565b5b8152602001600782015481525050848381518110610bf857610bf7612cbc565b5b602002602001018190525060009250508080610c1390612bb7565b915050610966565b508015610c5d576040517f08c379a0000000000000000000000000000000000000000000000000000000008152600401610c54906127a1565b60405180910390fd5b819250505090565b600360008273ffffffffffffffffffffffffffffffffffffffff1673ffffffffffffffffffffffffffffffffffffffff16815260200190815260200160002060050160009054906101000a900460ff1615610d6257600360003373ffffffffffffffffffffffffffffffffffffffff1673ffffffffffffffffffffffffffffffffffffffff168152602001908152602001600020600101819080600181540180825580915050600190039060005260206000200160009091909190916101000a81548173ffffffffffffffffffffffffffffffffffffffff021916908373ffffffffffffffffffffffffffffffffffffffff160217905550610e0f565b610d6b816106cb565b600360003373ffffffffffffffffffffffffffffffffffffffff1673ffffffffffffffffffffffffffffffffffffffff168152602001908152602001600020600101819080600181540180825580915050600190039060005260206000200160009091909190916101000a81548173ffffffffffffffffffffffffffffffffffffffff021916908373ffffffffffffffffffffffffffffffffffffffff1602179055505b50565b3373ffffffffffffffffffffffffffffffffffffffff1660018481548110610e3d57610e3c612cbc565b5b906000526020600020906008020160010160009054906101000a900473ffffffffffffffffffffffffffffffffffffffff1673ffffffffffffffffffffffffffffffffffffffff1614610ec5576040517f08c379a0000000000000000000000000000000000000000000000000000000008152600401610ebc90612781565b60405180910390fd5b60006002811115610ed957610ed8612c5e565b5b60018481548110610eed57610eec612cbc565b5b906000526020600020906008020160060160009054906101000a900460ff166002811115610f1e57610f1d612c5e565b5b14610f5e576040517f08c379a0000000000000000000000000000000000000000000000000000000008152600401610f55906127c1565b60405180910390fd5b42811015610fa1576040517f08c379a0000000000000000000000000000000000000000000000000000000008152600401610f9890612761565b60405180910390fd5b60018381548110610fb557610fb4612cbc565b5b9060005260206000209060080201600301548211156111765760018381548110610fe257610fe1612cbc565b5b90600052602060002090600802016003015482610fff9190612a7d565b600360003373ffffffffffffffffffffffffffffffffffffffff1673ffffffffffffffffffffffffffffffffffffffff168152602001908152602001600020600401541015611083576040517f08c379a000000000000000000000000000000000000000000000000000000000815260040161107a906127e1565b60405180910390fd5b816001848154811061109857611097612cbc565b5b9060005260206000209060080201600301546110b49190612a7d565b600360003373ffffffffffffffffffffffffffffffffffffffff1673ffffffffffffffffffffffffffffffffffffffff168152602001908152602001600020600401546111019190612a7d565b600360003373ffffffffffffffffffffffffffffffffffffffff1673ffffffffffffffffffffffffffffffffffffffff16815260200190815260200160002060040181905550816001848154811061115c5761115b612cbc565b5b906000526020600020906008020160030181905550611265565b816001848154811061118b5761118a612cbc565b5b9060005260206000209060080201600301546111a79190612a7d565b600360003373ffffffffffffffffffffffffffffffffffffffff1673ffffffffffffffffffffffffffffffffffffffff168152602001908152602001600020600401546111f491906129f6565b600360003373ffffffffffffffffffffffffffffffffffffffff1673ffffffffffffffffffffffffffffffffffffffff16815260200190815260200160002060040181905550816001848154811061124f5761124e612cbc565b5b9060005260206000209060080201600301819055505b806001848154811061127a57611279612cbc565b5b906000526020600020906008020160050181905550505050565b3373ffffffffffffffffffffffffffffffffffffffff16600182815481106112bf576112be612cbc565b5b906000526020600020906008020160010160009054906101000a900473ffffffffffffffffffffffffffffffffffffffff1673ffffffffffffffffffffffffffffffffffffffff1614611347576040517f08c379a000000000000000000000000000000000000000000000000000000000815260040161133e90612821565b60405180910390fd5b6000600281111561135b5761135a612c5e565b5b6001828154811061136f5761136e612cbc565b5b906000526020600020906008020160060160009054906101000a900460ff1660028111156113a05761139f612c5e565b5b146113e0576040517f08c379a00000000000000000000000000000000000000000000000000000000081526004016113d790612801565b60405180910390fd5b6002600182815481106113f6576113f5612cbc565b5b906000526020600020906008020160060160006101000a81548160ff0219169083600281111561142957611428612c5e565b5b02179055503373ffffffffffffffffffffffffffffffffffffffff166108fc6001838154811061145c5761145b612cbc565b5b9060005260206000209060080201600301549081150290604051600060405180830381858888f19350505050158015611499573d6000803e3d6000fd5b5050565b60606000600360003373ffffffffffffffffffffffffffffffffffffffff1673ffffffffffffffffffffffffffffffffffffffff1681526020019081526020016000206002018054905067ffffffffffffffff811115611500576114ff612ceb565b5b60405190808252806020026020018201604052801561153957816020015b6115266120a8565b81526020019060019003908161151e5790505b50905060005b600360003373ffffffffffffffffffffffffffffffffffffffff1673ffffffffffffffffffffffffffffffffffffffff168152602001908152602001600020600201805490508110156117f0576000600360003373ffffffffffffffffffffffffffffffffffffffff1673ffffffffffffffffffffffffffffffffffffffff16815260200190815260200160002060020182815481106115e2576115e1612cbc565b5b906000526020600020015490506001818154811061160357611602612cbc565b5b90600052602060002090600802016040518061010001604052908160008201805461162d90612b54565b80601f016020809104026020016040519081016040528092919081815260200182805461165990612b54565b80156116a65780601f1061167b576101008083540402835291602001916116a6565b820191906000526020600020905b81548152906001019060200180831161168957829003601f168201915b505050505081526020016001820160009054906101000a900473ffffffffffffffffffffffffffffffffffffffff1673ffffffffffffffffffffffffffffffffffffffff1673ffffffffffffffffffffffffffffffffffffffff1681526020016002820160009054906101000a900473ffffffffffffffffffffffffffffffffffffffff1673ffffffffffffffffffffffffffffffffffffffff1673ffffffffffffffffffffffffffffffffffffffff1681526020016003820154815260200160048201548152602001600582015481526020016006820160009054906101000a900460ff16600281111561179e5761179d612c5e565b5b60028111156117b0576117af612c5e565b5b81526020016007820154815250508383815181106117d1576117d0612cbc565b5b60200260200101819052505080806117e890612bb7565b91505061153f565b508091505090565b3373ffffffffffffffffffffffffffffffffffffffff166001828154811061182357611822612cbc565b5b906000526020600020906008020160020160009054906101000a900473ffffffffffffffffffffffffffffffffffffffff1673ffffffffffffffffffffffffffffffffffffffff16146118ab576040517f08c379a00000000000000000000000000000000000000000000000000000000081526004016118a2906128c1565b60405180910390fd5b600060028111156118bf576118be612c5e565b5b600182815481106118d3576118d2612cbc565b5b906000526020600020906008020160060160009054906101000a900460ff16600281111561190457611903612c5e565b5b14611944576040517f08c379a000000000000000000000000000000000000000000000000000000000815260040161193b906128e1565b60405180910390fd5b426001828154811061195957611958612cbc565b5b906000526020600020906008020160050154106119ab576040517f08c379a00000000000000000000000000000000000000000000000000000000081526004016119a290612861565b60405180910390fd5b60018082815481106119c0576119bf612cbc565b5b906000526020600020906008020160060160006101000a81548160ff021916908360028111156119f3576119f2612c5e565b5b02179055503373ffffffffffffffffffffffffffffffffffffffff166108fc60018381548110611a2657611a25612cbc565b5b9060005260206000209060080201600301549081150290604051600060405180830381858888f19350505050158015611a63573d6000803e3d6000fd5b5050565b60606000600360003373ffffffffffffffffffffffffffffffffffffffff1673ffffffffffffffffffffffffffffffffffffffff1681526020019081526020016000206001018054905011611af1576040517f08c379a0000000000000000000000000000000000000000000000000000000008152600401611ae8906128a1565b60405180910390fd5b6000600360003373ffffffffffffffffffffffffffffffffffffffff1673ffffffffffffffffffffffffffffffffffffffff1681526020019081526020016000206001018054905067ffffffffffffffff811115611b5257611b51612ceb565b5b604051908082528060200260200182016040528015611b805781602001602082028036833780820191505090505b50905060005b600360003373ffffffffffffffffffffffffffffffffffffffff1673ffffffffffffffffffffffffffffffffffffffff16815260200190815260200160002060010180549050811015611cb8576000600360003373ffffffffffffffffffffffffffffffffffffffff1673ffffffffffffffffffffffffffffffffffffffff1681526020019081526020016000206001018281548110611c2957611c28612cbc565b5b9060005260206000200160009054906101000a900473ffffffffffffffffffffffffffffffffffffffff16905080838381518110611c6a57611c69612cbc565b5b602002602001019073ffffffffffffffffffffffffffffffffffffffff16908173ffffffffffffffffffffffffffffffffffffffff1681525050508080611cb090612bb7565b915050611b86565b508091505090565b60006001805490509050600360003373ffffffffffffffffffffffffffffffffffffffff1673ffffffffffffffffffffffffffffffffffffffff168152602001908152602001600020600201819080600181540180825580915050600190039060005260206000200160009091909190915055600360008573ffffffffffffffffffffffffffffffffffffffff1673ffffffffffffffffffffffffffffffffffffffff16815260200190815260200160002060030181908060018154018082558091505060019003906000526020600020016000909190919091505560016040518061010001604052808481526020013373ffffffffffffffffffffffffffffffffffffffff1681526020018673ffffffffffffffffffffffffffffffffffffffff16815260200134815260200142815260200185815260200160006002811115611e0e57611e0d612c5e565b5b81526020018381525090806001815401808255809150506001900390600052602060002090600802016000909190919091506000820151816000019080519060200190611e5c929190611f4b565b5060208201518160010160006101000a81548173ffffffffffffffffffffffffffffffffffffffff021916908373ffffffffffffffffffffffffffffffffffffffff16021790555060408201518160020160006101000a81548173ffffffffffffffffffffffffffffffffffffffff021916908373ffffffffffffffffffffffffffffffffffffffff160217905550606082015181600301556080820151816004015560a0820151816005015560c08201518160060160006101000a81548160ff02191690836002811115611f3457611f33612c5e565b5b021790555060e08201518160070155505050505050565b828054611f5790612b54565b90600052602060002090601f016020900481019282611f795760008555611fc0565b82601f10611f9257805160ff1916838001178555611fc0565b82800160010185558215611fc0579182015b82811115611fbf578251825591602001919060010190611fa4565b5b509050611fcd919061212b565b5090565b82805482825590600052602060002090810192821561204a579160200282015b828111156120495782518260006101000a81548173ffffffffffffffffffffffffffffffffffffffff021916908373ffffffffffffffffffffffffffffffffffffffff16021790555091602001919060010190611ff1565b5b509050612057919061212b565b5090565b828054828255906000526020600020908101928215612097579160200282015b8281111561209657825182559160200191906001019061207b565b5b5090506120a4919061212b565b5090565b60405180610100016040528060608152602001600073ffffffffffffffffffffffffffffffffffffffff168152602001600073ffffffffffffffffffffffffffffffffffffffff1681526020016000815260200160008152602001600081526020016000600281111561211e5761211d612c5e565b5b8152602001600081525090565b5b8082111561214457600081600090555060010161212c565b5090565b600061215b61215684612926565b612901565b90508281526020810184848401111561217757612176612d1f565b5b612182848285612b12565b509392505050565b60008135905061219981613133565b92915050565b600082601f8301126121b4576121b3612d1a565b5b81356121c4848260208601612148565b91505092915050565b6000813590506121dc8161314a565b92915050565b6000602082840312156121f8576121f7612d29565b5b60006122068482850161218a565b91505092915050565b60008060006060848603121561222857612227612d29565b5b60006122368682870161218a565b9350506020612247868287016121cd565b925050604084013567ffffffffffffffff81111561226857612267612d24565b5b6122748682870161219f565b9150509250925092565b60006020828403121561229457612293612d29565b5b60006122a2848285016121cd565b91505092915050565b6000806000606084860312156122c4576122c3612d29565b5b60006122d2868287016121cd565b93505060206122e3868287016121cd565b92505060406122f4868287016121cd565b9150509250925092565b600061230a838361232a565b60208301905092915050565b6000612322838361263e565b905092915050565b61233381612ab1565b82525050565b600061234482612977565b61234e81856129b2565b935061235983612957565b8060005b8381101561238a57815161237188826122fe565b975061237c83612998565b92505060018101905061235d565b5085935050505092915050565b60006123a282612982565b6123ac81856129c3565b9350836020820285016123be85612967565b8060005b858110156123fa57848403895281516123db8582612316565b94506123e6836129a5565b925060208a019950506001810190506123c2565b50829750879550505050505092915050565b61241581612b00565b82525050565b60006124268261298d565b61243081856129d4565b9350612440818560208601612b21565b61244981612d2e565b840191505092915050565b60006124616024836129e5565b915061246c82612d3f565b604082019050919050565b6000612484603a836129e5565b915061248f82612d8e565b604082019050919050565b60006124a76031836129e5565b91506124b282612ddd565b604082019050919050565b60006124ca6024836129e5565b91506124d582612e2c565b604082019050919050565b60006124ed601e836129e5565b91506124f882612e7b565b602082019050919050565b60006125106026836129e5565b915061251b82612ea4565b604082019050919050565b60006125336029836129e5565b915061253e82612ef3565b604082019050919050565b60006125566041836129e5565b915061256182612f42565b606082019050919050565b6000612579601c836129e5565b915061258482612fb7565b602082019050919050565b600061259c6023836129e5565b91506125a782612fe0565b604082019050919050565b60006125bf601b836129e5565b91506125ca8261302f565b602082019050919050565b60006125e26017836129e5565b91506125ed82613058565b602082019050919050565b60006126056027836129e5565b915061261082613081565b604082019050919050565b60006126286030836129e5565b9150612633826130d0565b604082019050919050565b600061010083016000830151848203600086015261265c828261241b565b9150506020830151612671602086018261232a565b506040830151612684604086018261232a565b50606083015161269760608601826126ee565b5060808301516126aa60808601826126ee565b5060a08301516126bd60a08601826126ee565b5060c08301516126d060c086018261240c565b5060e08301516126e360e08601826126ee565b508091505092915050565b6126f781612af6565b82525050565b600060208201905081810360008301526127178184612339565b905092915050565b600060208201905081810360008301526127398184612397565b905092915050565b6000602082019050818103600083015261275a81612454565b9050919050565b6000602082019050818103600083015261277a81612477565b9050919050565b6000602082019050818103600083015261279a8161249a565b9050919050565b600060208201905081810360008301526127ba816124bd565b9050919050565b600060208201905081810360008301526127da816124e0565b9050919050565b600060208201905081810360008301526127fa81612503565b9050919050565b6000602082019050818103600083015261281a81612526565b9050919050565b6000602082019050818103600083015261283a81612549565b9050919050565b6000602082019050818103600083015261285a8161256c565b9050919050565b6000602082019050818103600083015261287a8161258f565b9050919050565b6000602082019050818103600083015261289a816125b2565b9050919050565b600060208201905081810360008301526128ba816125d5565b9050919050565b600060208201905081810360008301526128da816125f8565b9050919050565b600060208201905081810360008301526128fa8161261b565b9050919050565b600061290b61291c565b90506129178282612b86565b919050565b6000604051905090565b600067ffffffffffffffff82111561294157612940612ceb565b5b61294a82612d2e565b9050602081019050919050565b6000819050602082019050919050565b6000819050602082019050919050565b600081519050919050565b600081519050919050565b600081519050919050565b6000602082019050919050565b6000602082019050919050565b600082825260208201905092915050565b600082825260208201905092915050565b600082825260208201905092915050565b600082825260208201905092915050565b6000612a0182612af6565b9150612a0c83612af6565b9250827fffffffffffffffffffffffffffffffffffffffffffffffffffffffffffffffff03821115612a4157612a40612c00565b5b828201905092915050565b6000612a5782612af6565b9150612a6283612af6565b925082612a7257612a71612c2f565b5b828204905092915050565b6000612a8882612af6565b9150612a9383612af6565b925082821015612aa657612aa5612c00565b5b828203905092915050565b6000612abc82612ad6565b9050919050565b6000819050612ad18261311f565b919050565b600073ffffffffffffffffffffffffffffffffffffffff82169050919050565b6000819050919050565b6000612b0b82612ac3565b9050919050565b82818337600083830152505050565b60005b83811015612b3f578082015181840152602081019050612b24565b83811115612b4e576000848401525b50505050565b60006002820490506001821680612b6c57607f821691505b60208210811415612b8057612b7f612c8d565b5b50919050565b612b8f82612d2e565b810181811067ffffffffffffffff82111715612bae57612bad612ceb565b5b80604052505050565b6000612bc282612af6565b91507fffffffffffffffffffffffffffffffffffffffffffffffffffffffffffffffff821415612bf557612bf4612c00565b5b600182019050919050565b7f4e487b7100000000000000000000000000000000000000000000000000000000600052601160045260246000fd5b7f4e487b7100000000000000000000000000000000000000000000000000000000600052601260045260246000fd5b7f4e487b7100000000000000000000000000000000000000000000000000000000600052602160045260246000fd5b7f4e487b7100000000000000000000000000000000000000000000000000000000600052602260045260246000fd5b7f4e487b7100000000000000000000000000000000000000000000000000000000600052603260045260246000fd5b7f4e487b7100000000000000000000000000000000000000000000000000000000600052604160045260246000fd5b600080fd5b600080fd5b600080fd5b600080fd5b6000601f19601f8301169050919050565b7f596f752068617665206e6f20726563697069656e747320746f20696e7665737460008201527f20746f2e00000000000000000000000000000000000000000000000000000000602082015250565b7f596f752063616e206e6f742073657420616e20696e7665736d656e7420746f2060008201527f62652072656c6173656420696e2061207061737420646174652e000000000000602082015250565b7f596f752063616e206e6f742072657669736520616e20696e7665736d656e742060008201527f796f7520646964206e6f74206d616b652e000000000000000000000000000000602082015250565b7f546865726520617265206e6f20696e7665736d656e7473206d61646520666f7260008201527f20796f7500000000000000000000000000000000000000000000000000000000602082015250565b7f5468697320697320616e20696e61637469766520696e7665736d656e742e0000600082015250565b7f496e737566666963656e742066756e647320746f2072657669736520696e766560008201527f736d656e742e0000000000000000000000000000000000000000000000000000602082015250565b7f596f752063616e206e6f742063616e63656c20616e20696e616374697665206960008201527f6e7665736d656e742e0000000000000000000000000000000000000000000000602082015250565b7f596f7520617265206e6f742074686520696e766573746f722c206f6e6c79206960008201527f6e766573746f72732063616e2063616e63656c20616e20696e7665736d656e7460208201527f2e00000000000000000000000000000000000000000000000000000000000000604082015250565b7f596f752068617665206e6f2066756e647320746f206469766964652e00000000600082015250565b7f596f752063616e206e6f74207769746864726177207468652066756e6473207960008201527f6574210000000000000000000000000000000000000000000000000000000000602082015250565b7f596f752061726520616c72656164792072656769737465726564210000000000600082015250565b7f4e6f20726563697069656e742072656769737465726564000000000000000000600082015250565b7f5468697320696e7665736d656e74206973206e6f7420666f722074686973206160008201527f6464726573732100000000000000000000000000000000000000000000000000602082015250565b7f596f752063616e206e6f742077697468647261772066726f6d20616e20696e6160008201527f637469766520696e7665736d656e742e00000000000000000000000000000000602082015250565b600381106131305761312f612c5e565b5b50565b61313c81612ab1565b811461314757600080fd5b50565b61315381612af6565b811461315e57600080fd5b5056fea264697066735822122045a781a266133ca64419afa3303831564dd6fd19267331c9165d415b3c03accb64736f6c63430008070033",
  "linkReferences": {},
  "deployedLinkReferences": {}
}