{
  "_format": "hh-sol-artifact-1",
  "contractName": "Transactions",
  "sourceName": "contracts/Transactions.sol",
  "abi": [
    {
      "anonymous": false,
      "inputs": [
        {
          "indexed": false,
          "internalType": "uint256",
          "name": "userNo",
          "type": "uint256"
        }
      ],
      "name": "newRegister",
      "type": "event"
    },
    {
      "inputs": [
        {
          "internalType": "uint256",
          "name": "timeForRelease",
          "type": "uint256"
        }
      ],
      "name": "divideToRecipients",
      "outputs": [],
      "stateMutability": "nonpayable",
      "type": "function"
    },
    {
      "inputs": [],
      "name": "getRecipients",
      "outputs": [
        {
          "internalType": "address[]",
          "name": "",
          "type": "address[]"
        }
      ],
      "stateMutability": "view",
      "type": "function"
    },
    {
      "inputs": [],
      "name": "invesmentsMadeToMe",
      "outputs": [
        {
          "components": [
            {
              "internalType": "address",
              "name": "invester",
              "type": "address"
            },
            {
              "internalType": "address",
              "name": "receiver",
              "type": "address"
            },
            {
              "internalType": "uint256",
              "name": "amount",
              "type": "uint256"
            },
            {
              "internalType": "uint256",
              "name": "timeOfInvesment",
              "type": "uint256"
            },
            {
              "internalType": "uint256",
              "name": "timeForRelease",
              "type": "uint256"
            },
            {
              "internalType": "bool",
              "name": "isReversable",
              "type": "bool"
            },
            {
              "internalType": "bool",
              "name": "isActive",
              "type": "bool"
            },
            {
              "internalType": "uint256",
              "name": "invesmentNo",
              "type": "uint256"
            }
          ],
          "internalType": "struct Transactions.invesment[]",
          "name": "",
          "type": "tuple[]"
        }
      ],
      "stateMutability": "view",
      "type": "function"
    },
    {
      "inputs": [
        {
          "internalType": "address",
          "name": "receiver",
          "type": "address"
        },
        {
          "internalType": "uint256",
          "name": "timeForRelease",
          "type": "uint256"
        }
      ],
      "name": "makeInvesment",
      "outputs": [],
      "stateMutability": "payable",
      "type": "function"
    },
    {
      "inputs": [],
      "name": "myInvesments",
      "outputs": [
        {
          "components": [
            {
              "internalType": "address",
              "name": "invester",
              "type": "address"
            },
            {
              "internalType": "address",
              "name": "receiver",
              "type": "address"
            },
            {
              "internalType": "uint256",
              "name": "amount",
              "type": "uint256"
            },
            {
              "internalType": "uint256",
              "name": "timeOfInvesment",
              "type": "uint256"
            },
            {
              "internalType": "uint256",
              "name": "timeForRelease",
              "type": "uint256"
            },
            {
              "internalType": "bool",
              "name": "isReversable",
              "type": "bool"
            },
            {
              "internalType": "bool",
              "name": "isActive",
              "type": "bool"
            },
            {
              "internalType": "uint256",
              "name": "invesmentNo",
              "type": "uint256"
            }
          ],
          "internalType": "struct Transactions.invesment[]",
          "name": "",
          "type": "tuple[]"
        }
      ],
      "stateMutability": "view",
      "type": "function"
    },
    {
      "inputs": [
        {
          "internalType": "address",
          "name": "userAddress",
          "type": "address"
        }
      ],
      "name": "register",
      "outputs": [],
      "stateMutability": "nonpayable",
      "type": "function"
    },
    {
      "inputs": [
        {
          "internalType": "address",
          "name": "receiver",
          "type": "address"
        }
      ],
      "name": "registerReceiver",
      "outputs": [],
      "stateMutability": "nonpayable",
      "type": "function"
    },
    {
      "inputs": [
        {
          "internalType": "uint256",
          "name": "invesmentNo",
          "type": "uint256"
        }
      ],
      "name": "reverseInvesment",
      "outputs": [],
      "stateMutability": "payable",
      "type": "function"
    },
    {
      "inputs": [
        {
          "internalType": "uint256",
          "name": "invesmentNo",
          "type": "uint256"
        },
        {
          "internalType": "uint256",
          "name": "amount",
          "type": "uint256"
        },
        {
          "internalType": "uint256",
          "name": "timeForRelease",
          "type": "uint256"
        }
      ],
      "name": "reviseInvesment",
      "outputs": [],
      "stateMutability": "nonpayable",
      "type": "function"
    },
    {
      "inputs": [
        {
          "internalType": "uint256",
          "name": "invesmentNo",
          "type": "uint256"
        }
      ],
      "name": "withdrawInvesment",
      "outputs": [],
      "stateMutability": "payable",
      "type": "function"
    }
  ],
  "bytecode": "0x608060405234801561001057600080fd5b50612e8f806100206000396000f3fe6080604052600436106100915760003560e01c8063cac5bf5511610059578063cac5bf5514610165578063cbf8a7cf14610181578063cfdd4329146101ac578063d78d610b146101c8578063e26e7abd146101f357610091565b80633587ce6a146100965780634420e486146100bf578063995d5d0a146100e85780639fa8bdab14610113578063c57b1d791461013c575b600080fd5b3480156100a257600080fd5b506100bd60048036038101906100b89190612191565b61020f565b005b3480156100cb57600080fd5b506100e660048036038101906100e19190612124565b610719565b005b3480156100f457600080fd5b506100fd61096f565b60405161010a91906125d9565b60405180910390f35b34801561011f57600080fd5b5061013a60048036038101906101359190612124565b610d40565b005b34801561014857600080fd5b50610163600480360381019061015e91906121be565b610eed565b005b61017f600480360381019061017a9190612191565b611378565b005b34801561018d57600080fd5b5061019661159d565b6040516101a391906125d9565b60405180910390f35b6101c660048036038101906101c19190612191565b611861565b005b3480156101d457600080fd5b506101dd611ac9565b6040516101ea91906125b7565b60405180910390f35b61020d60048036038101906102089190612151565b611d22565b005b6000600260003373ffffffffffffffffffffffffffffffffffffffff1673ffffffffffffffffffffffffffffffffffffffff168152602001908152602001600020600401541415610295576040517f08c379a000000000000000000000000000000000000000000000000000000000815260040161028c906126fb565b60405180910390fd5b6000600260003373ffffffffffffffffffffffffffffffffffffffff1673ffffffffffffffffffffffffffffffffffffffff16815260200190815260200160002060010180549050141561031e576040517f08c379a0000000000000000000000000000000000000000000000000000000008152600401610315906125fb565b60405180910390fd5b6000600260003373ffffffffffffffffffffffffffffffffffffffff1673ffffffffffffffffffffffffffffffffffffffff16815260200190815260200160002060010180549050600260003373ffffffffffffffffffffffffffffffffffffffff1673ffffffffffffffffffffffffffffffffffffffff168152602001908152602001600020600401546103b39190612894565b905060005b600260003373ffffffffffffffffffffffffffffffffffffffff1673ffffffffffffffffffffffffffffffffffffffff16815260200190815260200160002060010180549050811015610714576000600260003373ffffffffffffffffffffffffffffffffffffffff1673ffffffffffffffffffffffffffffffffffffffff168152602001908152602001600020600101828154811061045b5761045a6129e8565b5b9060005260206000200160009054906101000a900473ffffffffffffffffffffffffffffffffffffffff1690506000600160008054905061049c919061283e565b905060006040518061010001604052803373ffffffffffffffffffffffffffffffffffffffff1681526020018473ffffffffffffffffffffffffffffffffffffffff16815260200186815260200142815260200187815260200160011515815260200160011515815260200183815250908060018154018082558091505060019003906000526020600020906007020160009091909190915060008201518160000160006101000a81548173ffffffffffffffffffffffffffffffffffffffff021916908373ffffffffffffffffffffffffffffffffffffffff16021790555060208201518160010160006101000a81548173ffffffffffffffffffffffffffffffffffffffff021916908373ffffffffffffffffffffffffffffffffffffffff16021790555060408201518160020155606082015181600301556080820151816004015560a08201518160050160006101000a81548160ff02191690831515021790555060c08201518160050160016101000a81548160ff02191690831515021790555060e082015181600601555050600260003373ffffffffffffffffffffffffffffffffffffffff1673ffffffffffffffffffffffffffffffffffffffff168152602001908152602001600020600201819080600181540180825580915050600190039060005260206000200160009091909190915055600260008373ffffffffffffffffffffffffffffffffffffffff1673ffffffffffffffffffffffffffffffffffffffff1681526020019081526020016000206003018190806001815401808255809150506001900390600052602060002001600090919091909150555050808061070c90612941565b9150506103b8565b505050565b600260008273ffffffffffffffffffffffffffffffffffffffff1673ffffffffffffffffffffffffffffffffffffffff16815260200190815260200160002060050160009054906101000a900460ff16156107a9576040517f08c379a00000000000000000000000000000000000000000000000000000000081526004016107a09061273b565b60405180910390fd5b60608060606000806040518060c001604052808773ffffffffffffffffffffffffffffffffffffffff16815260200186815260200185815260200184815260200183815260200160011515815250905080600260008873ffffffffffffffffffffffffffffffffffffffff1673ffffffffffffffffffffffffffffffffffffffff16815260200190815260200160002060008201518160000160006101000a81548173ffffffffffffffffffffffffffffffffffffffff021916908373ffffffffffffffffffffffffffffffffffffffff160217905550602082015181600101908051906020019061089c929190611f91565b5060408201518160020190805190602001906108b992919061201b565b5060608201518160030190805190602001906108d692919061201b565b506080820151816004015560a08201518160050160006101000a81548160ff0219169083151502179055509050506001869080600181540180825580915050600190039060005260206000200160009091909190916101000a81548173ffffffffffffffffffffffffffffffffffffffff021916908373ffffffffffffffffffffffffffffffffffffffff160217905550505050505050565b60606000600260003373ffffffffffffffffffffffffffffffffffffffff1673ffffffffffffffffffffffffffffffffffffffff16815260200190815260200160002060030180549050116109f9576040517f08c379a00000000000000000000000000000000000000000000000000000000081526004016109f09061265b565b60405180910390fd5b6000600260003373ffffffffffffffffffffffffffffffffffffffff1673ffffffffffffffffffffffffffffffffffffffff1681526020019081526020016000206003018054905067ffffffffffffffff811115610a5a57610a59612a17565b5b604051908082528060200260200182016040528015610a9357816020015b610a80612068565b815260200190600190039081610a785790505b50905060006001905060005b600260003373ffffffffffffffffffffffffffffffffffffffff1673ffffffffffffffffffffffffffffffffffffffff16815260200190815260200160002060030180549050811015610cf6576000600260003373ffffffffffffffffffffffffffffffffffffffff1673ffffffffffffffffffffffffffffffffffffffff1681526020019081526020016000206003018281548110610b4257610b416129e8565b5b9060005260206000200154905060008181548110610b6357610b626129e8565b5b9060005260206000209060070201604051806101000160405290816000820160009054906101000a900473ffffffffffffffffffffffffffffffffffffffff1673ffffffffffffffffffffffffffffffffffffffff1673ffffffffffffffffffffffffffffffffffffffff1681526020016001820160009054906101000a900473ffffffffffffffffffffffffffffffffffffffff1673ffffffffffffffffffffffffffffffffffffffff1673ffffffffffffffffffffffffffffffffffffffff1681526020016002820154815260200160038201548152602001600482015481526020016005820160009054906101000a900460ff161515151581526020016005820160019054906101000a900460ff16151515158152602001600682015481525050848381518110610c9a57610c996129e8565b5b602002602001018190525060008181548110610cb957610cb86129e8565b5b906000526020600020906007020160050160019054906101000a900460ff1615610ce257600092505b508080610cee90612941565b915050610a9f565b508015610d38576040517f08c379a0000000000000000000000000000000000000000000000000000000008152600401610d2f9061265b565b60405180910390fd5b819250505090565b600260008273ffffffffffffffffffffffffffffffffffffffff1673ffffffffffffffffffffffffffffffffffffffff16815260200190815260200160002060050160009054906101000a900460ff1615610e3d57600260003373ffffffffffffffffffffffffffffffffffffffff1673ffffffffffffffffffffffffffffffffffffffff168152602001908152602001600020600101819080600181540180825580915050600190039060005260206000200160009091909190916101000a81548173ffffffffffffffffffffffffffffffffffffffff021916908373ffffffffffffffffffffffffffffffffffffffff160217905550610eea565b610e4681610719565b600260003373ffffffffffffffffffffffffffffffffffffffff1673ffffffffffffffffffffffffffffffffffffffff168152602001908152602001600020600101819080600181540180825580915050600190039060005260206000200160009091909190916101000a81548173ffffffffffffffffffffffffffffffffffffffff021916908373ffffffffffffffffffffffffffffffffffffffff1602179055505b50565b3373ffffffffffffffffffffffffffffffffffffffff1660008481548110610f1857610f176129e8565b5b906000526020600020906007020160000160009054906101000a900473ffffffffffffffffffffffffffffffffffffffff1673ffffffffffffffffffffffffffffffffffffffff1614610fa0576040517f08c379a0000000000000000000000000000000000000000000000000000000008152600401610f979061263b565b60405180910390fd5b60008381548110610fb457610fb36129e8565b5b906000526020600020906007020160050160019054906101000a900460ff16611012576040517f08c379a00000000000000000000000000000000000000000000000000000000081526004016110099061267b565b60405180910390fd5b428160008581548110611028576110276129e8565b5b906000526020600020906007020160030154611044919061283e565b1015611085576040517f08c379a000000000000000000000000000000000000000000000000000000000815260040161107c9061261b565b60405180910390fd5b60008381548110611099576110986129e8565b5b90600052602060002090600702016002015482111561125a57600083815481106110c6576110c56129e8565b5b906000526020600020906007020160020154826110e391906128c5565b600260003373ffffffffffffffffffffffffffffffffffffffff1673ffffffffffffffffffffffffffffffffffffffff168152602001908152602001600020600401541015611167576040517f08c379a000000000000000000000000000000000000000000000000000000000815260040161115e9061269b565b60405180910390fd5b816000848154811061117c5761117b6129e8565b5b90600052602060002090600702016002015461119891906128c5565b600260003373ffffffffffffffffffffffffffffffffffffffff1673ffffffffffffffffffffffffffffffffffffffff168152602001908152602001600020600401546111e591906128c5565b600260003373ffffffffffffffffffffffffffffffffffffffff1673ffffffffffffffffffffffffffffffffffffffff1681526020019081526020016000206004018190555081600084815481106112405761123f6129e8565b5b906000526020600020906007020160020181905550611349565b816000848154811061126f5761126e6129e8565b5b90600052602060002090600702016002015461128b91906128c5565b600260003373ffffffffffffffffffffffffffffffffffffffff1673ffffffffffffffffffffffffffffffffffffffff168152602001908152602001600020600401546112d8919061283e565b600260003373ffffffffffffffffffffffffffffffffffffffff1673ffffffffffffffffffffffffffffffffffffffff168152602001908152602001600020600401819055508160008481548110611333576113326129e8565b5b9060005260206000209060070201600201819055505b806000848154811061135e5761135d6129e8565b5b906000526020600020906007020160040181905550505050565b3373ffffffffffffffffffffffffffffffffffffffff16600082815481106113a3576113a26129e8565b5b906000526020600020906007020160000160009054906101000a900473ffffffffffffffffffffffffffffffffffffffff1673ffffffffffffffffffffffffffffffffffffffff161461142b576040517f08c379a0000000000000000000000000000000000000000000000000000000008152600401611422906126db565b60405180910390fd5b6001151560008281548110611443576114426129e8565b5b906000526020600020906007020160050160019054906101000a900460ff161515146114a4576040517f08c379a000000000000000000000000000000000000000000000000000000000815260040161149b906126bb565b60405180910390fd5b60008082815481106114b9576114b86129e8565b5b906000526020600020906007020160050160016101000a81548160ff021916908315150217905550600081815481106114f5576114f46129e8565b5b906000526020600020906007020160020154600260003373ffffffffffffffffffffffffffffffffffffffff1673ffffffffffffffffffffffffffffffffffffffff16815260200190815260200160002060040154611554919061283e565b600260003373ffffffffffffffffffffffffffffffffffffffff1673ffffffffffffffffffffffffffffffffffffffff1681526020019081526020016000206004018190555050565b60606000600260003373ffffffffffffffffffffffffffffffffffffffff1673ffffffffffffffffffffffffffffffffffffffff1681526020019081526020016000206002018054905067ffffffffffffffff811115611600576115ff612a17565b5b60405190808252806020026020018201604052801561163957816020015b611626612068565b81526020019060019003908161161e5790505b50905060005b600260003373ffffffffffffffffffffffffffffffffffffffff1673ffffffffffffffffffffffffffffffffffffffff16815260200190815260200160002060020180549050811015611859576000600260003373ffffffffffffffffffffffffffffffffffffffff1673ffffffffffffffffffffffffffffffffffffffff16815260200190815260200160002060020182815481106116e2576116e16129e8565b5b9060005260206000200154905060008181548110611703576117026129e8565b5b9060005260206000209060070201604051806101000160405290816000820160009054906101000a900473ffffffffffffffffffffffffffffffffffffffff1673ffffffffffffffffffffffffffffffffffffffff1673ffffffffffffffffffffffffffffffffffffffff1681526020016001820160009054906101000a900473ffffffffffffffffffffffffffffffffffffffff1673ffffffffffffffffffffffffffffffffffffffff1673ffffffffffffffffffffffffffffffffffffffff1681526020016002820154815260200160038201548152602001600482015481526020016005820160009054906101000a900460ff161515151581526020016005820160019054906101000a900460ff1615151515815260200160068201548152505083838151811061183a576118396129e8565b5b602002602001018190525050808061185190612941565b91505061163f565b508091505090565b3373ffffffffffffffffffffffffffffffffffffffff166000828154811061188c5761188b6129e8565b5b906000526020600020906007020160010160009054906101000a900473ffffffffffffffffffffffffffffffffffffffff1673ffffffffffffffffffffffffffffffffffffffff1614611914576040517f08c379a000000000000000000000000000000000000000000000000000000000815260040161190b9061277b565b60405180910390fd5b60008181548110611928576119276129e8565b5b906000526020600020906007020160050160019054906101000a900460ff16611986576040517f08c379a000000000000000000000000000000000000000000000000000000000815260040161197d9061279b565b60405180910390fd5b426000828154811061199b5761199a6129e8565b5b906000526020600020906007020160040154600083815481106119c1576119c06129e8565b5b9060005260206000209060070201600301546119dd919061283e565b10611a1d576040517f08c379a0000000000000000000000000000000000000000000000000000000008152600401611a149061271b565b60405180910390fd5b6000808281548110611a3257611a316129e8565b5b906000526020600020906007020160050160016101000a81548160ff0219169083151502179055503373ffffffffffffffffffffffffffffffffffffffff166108fc60008381548110611a8857611a876129e8565b5b9060005260206000209060070201600201549081150290604051600060405180830381858888f19350505050158015611ac5573d6000803e3d6000fd5b5050565b60606000600260003373ffffffffffffffffffffffffffffffffffffffff1673ffffffffffffffffffffffffffffffffffffffff1681526020019081526020016000206001018054905011611b53576040517f08c379a0000000000000000000000000000000000000000000000000000000008152600401611b4a9061275b565b60405180910390fd5b6000600260003373ffffffffffffffffffffffffffffffffffffffff1673ffffffffffffffffffffffffffffffffffffffff1681526020019081526020016000206001018054905067ffffffffffffffff811115611bb457611bb3612a17565b5b604051908082528060200260200182016040528015611be25781602001602082028036833780820191505090505b50905060005b600260003373ffffffffffffffffffffffffffffffffffffffff1673ffffffffffffffffffffffffffffffffffffffff16815260200190815260200160002060010180549050811015611d1a576000600260003373ffffffffffffffffffffffffffffffffffffffff1673ffffffffffffffffffffffffffffffffffffffff1681526020019081526020016000206001018281548110611c8b57611c8a6129e8565b5b9060005260206000200160009054906101000a900473ffffffffffffffffffffffffffffffffffffffff16905080838381518110611ccc57611ccb6129e8565b5b602002602001019073ffffffffffffffffffffffffffffffffffffffff16908173ffffffffffffffffffffffffffffffffffffffff1681525050508080611d1290612941565b915050611be8565b508091505090565b600080805490509050600260003373ffffffffffffffffffffffffffffffffffffffff1673ffffffffffffffffffffffffffffffffffffffff168152602001908152602001600020600201819080600181540180825580915050600190039060005260206000200160009091909190915055600260008473ffffffffffffffffffffffffffffffffffffffff1673ffffffffffffffffffffffffffffffffffffffff16815260200190815260200160002060030181908060018154018082558091505060019003906000526020600020016000909190919091505560006040518061010001604052803373ffffffffffffffffffffffffffffffffffffffff1681526020018573ffffffffffffffffffffffffffffffffffffffff16815260200134815260200142815260200184815260200160011515815260200160011515815260200183815250908060018154018082558091505060019003906000526020600020906007020160009091909190915060008201518160000160006101000a81548173ffffffffffffffffffffffffffffffffffffffff021916908373ffffffffffffffffffffffffffffffffffffffff16021790555060208201518160010160006101000a81548173ffffffffffffffffffffffffffffffffffffffff021916908373ffffffffffffffffffffffffffffffffffffffff16021790555060408201518160020155606082015181600301556080820151816004015560a08201518160050160006101000a81548160ff02191690831515021790555060c08201518160050160016101000a81548160ff02191690831515021790555060e082015181600601555050505050565b82805482825590600052602060002090810192821561200a579160200282015b828111156120095782518260006101000a81548173ffffffffffffffffffffffffffffffffffffffff021916908373ffffffffffffffffffffffffffffffffffffffff16021790555091602001919060010190611fb1565b5b50905061201791906120dd565b5090565b828054828255906000526020600020908101928215612057579160200282015b8281111561205657825182559160200191906001019061203b565b5b50905061206491906120dd565b5090565b604051806101000160405280600073ffffffffffffffffffffffffffffffffffffffff168152602001600073ffffffffffffffffffffffffffffffffffffffff168152602001600081526020016000815260200160008152602001600015158152602001600015158152602001600081525090565b5b808211156120f65760008160009055506001016120de565b5090565b60008135905061210981612e2b565b92915050565b60008135905061211e81612e42565b92915050565b60006020828403121561213a57612139612a46565b5b6000612148848285016120fa565b91505092915050565b6000806040838503121561216857612167612a46565b5b6000612176858286016120fa565b92505060206121878582860161210f565b9150509250929050565b6000602082840312156121a7576121a6612a46565b5b60006121b58482850161210f565b91505092915050565b6000806000606084860312156121d7576121d6612a46565b5b60006121e58682870161210f565b93505060206121f68682870161210f565b92505060406122078682870161210f565b9150509250925092565b600061221d8383612242565b60208301905092915050565b60006122358383612506565b6101008301905092915050565b61224b816128f9565b82525050565b600061225c826127db565b612266818561280b565b9350612271836127bb565b8060005b838110156122a25781516122898882612211565b9750612294836127f1565b925050600181019050612275565b5085935050505092915050565b60006122ba826127e6565b6122c4818561281c565b93506122cf836127cb565b8060005b838110156123005781516122e78882612229565b97506122f2836127fe565b9250506001810190506122d3565b5085935050505092915050565b6123168161290b565b82525050565b600061232960248361282d565b915061233482612a4b565b604082019050919050565b600061234c603a8361282d565b915061235782612a9a565b604082019050919050565b600061236f60318361282d565b915061237a82612ae9565b604082019050919050565b600061239260248361282d565b915061239d82612b38565b604082019050919050565b60006123b5601e8361282d565b91506123c082612b87565b602082019050919050565b60006123d860268361282d565b91506123e382612bb0565b604082019050919050565b60006123fb60298361282d565b915061240682612bff565b604082019050919050565b600061241e60418361282d565b915061242982612c4e565b606082019050919050565b6000612441601c8361282d565b915061244c82612cc3565b602082019050919050565b600061246460238361282d565b915061246f82612cec565b604082019050919050565b6000612487601b8361282d565b915061249282612d3b565b602082019050919050565b60006124aa60178361282d565b91506124b582612d64565b602082019050919050565b60006124cd60278361282d565b91506124d882612d8d565b604082019050919050565b60006124f060308361282d565b91506124fb82612ddc565b604082019050919050565b6101008201600082015161251d6000850182612242565b5060208201516125306020850182612242565b50604082015161254360408501826125a8565b50606082015161255660608501826125a8565b50608082015161256960808501826125a8565b5060a082015161257c60a085018261230d565b5060c082015161258f60c085018261230d565b5060e08201516125a260e08501826125a8565b50505050565b6125b181612937565b82525050565b600060208201905081810360008301526125d18184612251565b905092915050565b600060208201905081810360008301526125f381846122af565b905092915050565b600060208201905081810360008301526126148161231c565b9050919050565b600060208201905081810360008301526126348161233f565b9050919050565b6000602082019050818103600083015261265481612362565b9050919050565b6000602082019050818103600083015261267481612385565b9050919050565b60006020820190508181036000830152612694816123a8565b9050919050565b600060208201905081810360008301526126b4816123cb565b9050919050565b600060208201905081810360008301526126d4816123ee565b9050919050565b600060208201905081810360008301526126f481612411565b9050919050565b6000602082019050818103600083015261271481612434565b9050919050565b6000602082019050818103600083015261273481612457565b9050919050565b600060208201905081810360008301526127548161247a565b9050919050565b600060208201905081810360008301526127748161249d565b9050919050565b60006020820190508181036000830152612794816124c0565b9050919050565b600060208201905081810360008301526127b4816124e3565b9050919050565b6000819050602082019050919050565b6000819050602082019050919050565b600081519050919050565b600081519050919050565b6000602082019050919050565b6000602082019050919050565b600082825260208201905092915050565b600082825260208201905092915050565b600082825260208201905092915050565b600061284982612937565b915061285483612937565b9250827fffffffffffffffffffffffffffffffffffffffffffffffffffffffffffffffff038211156128895761288861298a565b5b828201905092915050565b600061289f82612937565b91506128aa83612937565b9250826128ba576128b96129b9565b5b828204905092915050565b60006128d082612937565b91506128db83612937565b9250828210156128ee576128ed61298a565b5b828203905092915050565b600061290482612917565b9050919050565b60008115159050919050565b600073ffffffffffffffffffffffffffffffffffffffff82169050919050565b6000819050919050565b600061294c82612937565b91507fffffffffffffffffffffffffffffffffffffffffffffffffffffffffffffffff82141561297f5761297e61298a565b5b600182019050919050565b7f4e487b7100000000000000000000000000000000000000000000000000000000600052601160045260246000fd5b7f4e487b7100000000000000000000000000000000000000000000000000000000600052601260045260246000fd5b7f4e487b7100000000000000000000000000000000000000000000000000000000600052603260045260246000fd5b7f4e487b7100000000000000000000000000000000000000000000000000000000600052604160045260246000fd5b600080fd5b7f596f752068617665206e6f20726563697069656e747320746f20696e7665737460008201527f20746f2e00000000000000000000000000000000000000000000000000000000602082015250565b7f596f752063616e206e6f742073657420616e20696e7665736d656e7420746f2060008201527f62652072656c6173656420696e2061207061737420646174652e000000000000602082015250565b7f596f752063616e206e6f742072657669736520616e20696e7665736d656e742060008201527f796f7520646964206e6f74206d616b652e000000000000000000000000000000602082015250565b7f546865726520617265206e6f20696e7665736d656e7473206d61646520666f7260008201527f20796f7500000000000000000000000000000000000000000000000000000000602082015250565b7f5468697320697320616e20696e61637469766520696e7665736d656e742e0000600082015250565b7f496e737566666963656e742066756e647320746f2072657669736520696e766560008201527f736d656e742e0000000000000000000000000000000000000000000000000000602082015250565b7f596f752063616e206e6f742063616e63656c20616e20696e616374697665206960008201527f6e7665736d656e742e0000000000000000000000000000000000000000000000602082015250565b7f596f7520617265206e6f742074686520696e766573746f722c206f6e6c79206960008201527f6e766573746f72732063616e2063616e63656c20616e20696e7665736d656e7460208201527f2e00000000000000000000000000000000000000000000000000000000000000604082015250565b7f596f752068617665206e6f2066756e647320746f206469766964652e00000000600082015250565b7f596f752063616e206e6f74207769746864726177207468652066756e6473207960008201527f6574210000000000000000000000000000000000000000000000000000000000602082015250565b7f596f752061726520616c72656164792072656769737465726564210000000000600082015250565b7f4e6f20726563697069656e742072656769737465726564000000000000000000600082015250565b7f5468697320696e7665736d656e74206973206e6f7420666f722074686973206160008201527f6464726573732100000000000000000000000000000000000000000000000000602082015250565b7f596f752063616e206e6f742077697468647261772066726f6d20616e20696e6160008201527f637469766520696e7665736d656e742e00000000000000000000000000000000602082015250565b612e34816128f9565b8114612e3f57600080fd5b50565b612e4b81612937565b8114612e5657600080fd5b5056fea264697066735822122039ebb809598784f03689377eef411ff99f7b8624aafee3d587c764ac3acc1cfa64736f6c63430008070033",
  "linkReferences": {},
  "deployedLinkReferences": {}
}