{
  "_format": "hh-sol-artifact-1",
  "contractName": "Transactions",
  "sourceName": "contracts/Transactions.sol",
  "abi": [
    {
      "inputs": [
        {
          "internalType": "uint256",
          "name": "timeForRelease",
          "type": "uint256"
        }
      ],
      "name": "divideToRecipients",
      "outputs": [],
      "stateMutability": "payable",
      "type": "function"
    },
    {
      "inputs": [],
      "name": "getRecipients",
      "outputs": [
        {
          "internalType": "address[]",
          "name": "",
          "type": "address[]"
        }
      ],
      "stateMutability": "view",
      "type": "function"
    },
    {
      "inputs": [],
      "name": "getTransactionCount",
      "outputs": [
        {
          "internalType": "uint256",
          "name": "",
          "type": "uint256"
        }
      ],
      "stateMutability": "view",
      "type": "function"
    },
    {
      "inputs": [],
      "name": "invesmentsMadeToMe",
      "outputs": [
        {
          "components": [
            {
              "internalType": "string",
              "name": "name",
              "type": "string"
            },
            {
              "internalType": "address",
              "name": "invester",
              "type": "address"
            },
            {
              "internalType": "address",
              "name": "receiver",
              "type": "address"
            },
            {
              "internalType": "uint256",
              "name": "amount",
              "type": "uint256"
            },
            {
              "internalType": "uint256",
              "name": "timeOfInvesment",
              "type": "uint256"
            },
            {
              "internalType": "uint256",
              "name": "timeForRelease",
              "type": "uint256"
            },
            {
              "internalType": "enum Transactions.Status",
              "name": "invesmentStatus",
              "type": "uint8"
            },
            {
              "internalType": "uint256",
              "name": "invesmentNo",
              "type": "uint256"
            }
          ],
          "internalType": "struct Transactions.invesment[]",
          "name": "",
          "type": "tuple[]"
        }
      ],
      "stateMutability": "view",
      "type": "function"
    },
    {
      "inputs": [
        {
          "internalType": "address",
          "name": "receiver",
          "type": "address"
        },
        {
          "internalType": "uint256",
          "name": "timeForRelease",
          "type": "uint256"
        },
        {
          "internalType": "string",
          "name": "name",
          "type": "string"
        }
      ],
      "name": "makeInvesment",
      "outputs": [],
      "stateMutability": "payable",
      "type": "function"
    },
    {
      "inputs": [],
      "name": "myInvesments",
      "outputs": [
        {
          "components": [
            {
              "internalType": "string",
              "name": "name",
              "type": "string"
            },
            {
              "internalType": "address",
              "name": "invester",
              "type": "address"
            },
            {
              "internalType": "address",
              "name": "receiver",
              "type": "address"
            },
            {
              "internalType": "uint256",
              "name": "amount",
              "type": "uint256"
            },
            {
              "internalType": "uint256",
              "name": "timeOfInvesment",
              "type": "uint256"
            },
            {
              "internalType": "uint256",
              "name": "timeForRelease",
              "type": "uint256"
            },
            {
              "internalType": "enum Transactions.Status",
              "name": "invesmentStatus",
              "type": "uint8"
            },
            {
              "internalType": "uint256",
              "name": "invesmentNo",
              "type": "uint256"
            }
          ],
          "internalType": "struct Transactions.invesment[]",
          "name": "",
          "type": "tuple[]"
        }
      ],
      "stateMutability": "view",
      "type": "function"
    },
    {
      "inputs": [
        {
          "internalType": "address",
          "name": "userAddress",
          "type": "address"
        }
      ],
      "name": "register",
      "outputs": [],
      "stateMutability": "nonpayable",
      "type": "function"
    },
    {
      "inputs": [
        {
          "internalType": "address",
          "name": "receiver",
          "type": "address"
        }
      ],
      "name": "registerReceiver",
      "outputs": [],
      "stateMutability": "nonpayable",
      "type": "function"
    },
    {
      "inputs": [
        {
          "internalType": "uint256",
          "name": "invesmentNo",
          "type": "uint256"
        }
      ],
      "name": "reverseInvesment",
      "outputs": [],
      "stateMutability": "payable",
      "type": "function"
    },
    {
      "inputs": [
        {
          "internalType": "uint256",
          "name": "invesmentNo",
          "type": "uint256"
        },
        {
          "internalType": "uint256",
          "name": "amount",
          "type": "uint256"
        },
        {
          "internalType": "uint256",
          "name": "timeForRelease",
          "type": "uint256"
        }
      ],
      "name": "reviseInvesment",
      "outputs": [],
      "stateMutability": "nonpayable",
      "type": "function"
    },
    {
      "inputs": [
        {
          "internalType": "uint256",
          "name": "invesmentNo",
          "type": "uint256"
        }
      ],
      "name": "withdrawInvesment",
      "outputs": [],
      "stateMutability": "payable",
      "type": "function"
    }
  ],
  "bytecode": "0x608060405234801561001057600080fd5b50613219806100206000396000f3fe60806040526004361061009c5760003560e01c8063c57b1d7911610064578063c57b1d7914610165578063cac5bf551461018e578063cbf8a7cf146101aa578063cfdd4329146101d5578063d78d610b146101f1578063e4d08cf21461021c5761009c565b80632e7700f0146100a15780633587ce6a146100cc5780634420e486146100e8578063995d5d0a146101115780639fa8bdab1461013c575b600080fd5b3480156100ad57600080fd5b506100b6610238565b6040516100c39190612968565b60405180910390f35b6100e660048036038101906100e191906122d6565b610241565b005b3480156100f457600080fd5b5061010f600480360381019061010a919061223a565b61070a565b005b34801561011d57600080fd5b506101266108fd565b6040516101339190612786565b60405180910390f35b34801561014857600080fd5b50610163600480360381019061015e919061223a565b610ca4565b005b34801561017157600080fd5b5061018c60048036038101906101879190612303565b610e51565b005b6101a860048036038101906101a391906122d6565b6112d3565b005b3480156101b657600080fd5b506101bf6114dc565b6040516101cc9190612786565b60405180910390f35b6101ef60048036038101906101ea91906122d6565b611837565b005b3480156101fd57600080fd5b50610206611aa6565b6040516102139190612764565b60405180910390f35b61023660048036038101906102319190612267565b611cff565b005b60008054905090565b6000341415610285576040517f08c379a000000000000000000000000000000000000000000000000000000000815260040161027c906128a8565b60405180910390fd5b6000600360003373ffffffffffffffffffffffffffffffffffffffff1673ffffffffffffffffffffffffffffffffffffffff16815260200190815260200160002060010180549050141561030e576040517f08c379a0000000000000000000000000000000000000000000000000000000008152600401610305906127a8565b60405180910390fd5b6000600360003373ffffffffffffffffffffffffffffffffffffffff1673ffffffffffffffffffffffffffffffffffffffff16815260200190815260200160002060010180549050346103619190612ace565b905060005b600360003373ffffffffffffffffffffffffffffffffffffffff1673ffffffffffffffffffffffffffffffffffffffff16815260200190815260200160002060010180549050811015610705576000600360003373ffffffffffffffffffffffffffffffffffffffff1673ffffffffffffffffffffffffffffffffffffffff168152602001908152602001600020600101828154811061040957610408612d3e565b5b9060005260206000200160009054906101000a900473ffffffffffffffffffffffffffffffffffffffff1690506000600180549050905060016040518061010001604052806040518060400160405280601281526020017f4469766964656420696e7665736d656e742e000000000000000000000000000081525081526020013373ffffffffffffffffffffffffffffffffffffffff1681526020018473ffffffffffffffffffffffffffffffffffffffff168152602001868152602001428152602001878152602001600060028111156104e7576104e6612ce0565b5b81526020018381525090806001815401808255809150506001900390600052602060002090600802016000909190919091506000820151816000019080519060200190610535929190611fa3565b5060208201518160010160006101000a81548173ffffffffffffffffffffffffffffffffffffffff021916908373ffffffffffffffffffffffffffffffffffffffff16021790555060408201518160020160006101000a81548173ffffffffffffffffffffffffffffffffffffffff021916908373ffffffffffffffffffffffffffffffffffffffff160217905550606082015181600301556080820151816004015560a0820151816005015560c08201518160060160006101000a81548160ff0219169083600281111561060d5761060c612ce0565b5b021790555060e082015181600701555050600360003373ffffffffffffffffffffffffffffffffffffffff1673ffffffffffffffffffffffffffffffffffffffff168152602001908152602001600020600201819080600181540180825580915050600190039060005260206000200160009091909190915055600360008373ffffffffffffffffffffffffffffffffffffffff1673ffffffffffffffffffffffffffffffffffffffff168152602001908152602001600020600301819080600181540180825580915050600190039060005260206000200160009091909190915055505080806106fd90612c39565b915050610366565b505050565b600360008273ffffffffffffffffffffffffffffffffffffffff1673ffffffffffffffffffffffffffffffffffffffff16815260200190815260200160002060050160009054906101000a900460ff161561079a576040517f08c379a0000000000000000000000000000000000000000000000000000000008152600401610791906128e8565b60405180910390fd5b60608060606000806040518060c001604052808773ffffffffffffffffffffffffffffffffffffffff16815260200186815260200185815260200184815260200183815260200160011515815250905080600360008873ffffffffffffffffffffffffffffffffffffffff1673ffffffffffffffffffffffffffffffffffffffff16815260200190815260200160002060008201518160000160006101000a81548173ffffffffffffffffffffffffffffffffffffffff021916908373ffffffffffffffffffffffffffffffffffffffff160217905550602082015181600101908051906020019061088d929190612029565b5060408201518160020190805190602001906108aa9291906120b3565b5060608201518160030190805190602001906108c79291906120b3565b506080820151816004015560a08201518160050160006101000a81548160ff021916908315150217905550905050505050505050565b60606000600360003373ffffffffffffffffffffffffffffffffffffffff1673ffffffffffffffffffffffffffffffffffffffff1681526020019081526020016000206003018054905067ffffffffffffffff8111156109605761095f612d6d565b5b60405190808252806020026020018201604052801561099957816020015b610986612100565b81526020019060019003908161097e5790505b50905060006001905060005b600360003373ffffffffffffffffffffffffffffffffffffffff1673ffffffffffffffffffffffffffffffffffffffff16815260200190815260200160002060030180549050811015610c5a576000600360003373ffffffffffffffffffffffffffffffffffffffff1673ffffffffffffffffffffffffffffffffffffffff1681526020019081526020016000206003018281548110610a4857610a47612d3e565b5b9060005260206000200154905060018181548110610a6957610a68612d3e565b5b906000526020600020906008020160405180610100016040529081600082018054610a9390612bd6565b80601f0160208091040260200160405190810160405280929190818152602001828054610abf90612bd6565b8015610b0c5780601f10610ae157610100808354040283529160200191610b0c565b820191906000526020600020905b815481529060010190602001808311610aef57829003601f168201915b505050505081526020016001820160009054906101000a900473ffffffffffffffffffffffffffffffffffffffff1673ffffffffffffffffffffffffffffffffffffffff1673ffffffffffffffffffffffffffffffffffffffff1681526020016002820160009054906101000a900473ffffffffffffffffffffffffffffffffffffffff1673ffffffffffffffffffffffffffffffffffffffff1673ffffffffffffffffffffffffffffffffffffffff1681526020016003820154815260200160048201548152602001600582015481526020016006820160009054906101000a900460ff166002811115610c0457610c03612ce0565b5b6002811115610c1657610c15612ce0565b5b8152602001600782015481525050848381518110610c3757610c36612d3e565b5b602002602001018190525060009250508080610c5290612c39565b9150506109a5565b508015610c9c576040517f08c379a0000000000000000000000000000000000000000000000000000000008152600401610c9390612808565b60405180910390fd5b819250505090565b600360008273ffffffffffffffffffffffffffffffffffffffff1673ffffffffffffffffffffffffffffffffffffffff16815260200190815260200160002060050160009054906101000a900460ff1615610da157600360003373ffffffffffffffffffffffffffffffffffffffff1673ffffffffffffffffffffffffffffffffffffffff168152602001908152602001600020600101819080600181540180825580915050600190039060005260206000200160009091909190916101000a81548173ffffffffffffffffffffffffffffffffffffffff021916908373ffffffffffffffffffffffffffffffffffffffff160217905550610e4e565b610daa8161070a565b600360003373ffffffffffffffffffffffffffffffffffffffff1673ffffffffffffffffffffffffffffffffffffffff168152602001908152602001600020600101819080600181540180825580915050600190039060005260206000200160009091909190916101000a81548173ffffffffffffffffffffffffffffffffffffffff021916908373ffffffffffffffffffffffffffffffffffffffff1602179055505b50565b3373ffffffffffffffffffffffffffffffffffffffff1660018481548110610e7c57610e7b612d3e565b5b906000526020600020906008020160010160009054906101000a900473ffffffffffffffffffffffffffffffffffffffff1673ffffffffffffffffffffffffffffffffffffffff1614610f04576040517f08c379a0000000000000000000000000000000000000000000000000000000008152600401610efb906127e8565b60405180910390fd5b60006002811115610f1857610f17612ce0565b5b60018481548110610f2c57610f2b612d3e565b5b906000526020600020906008020160060160009054906101000a900460ff166002811115610f5d57610f5c612ce0565b5b14610f9d576040517f08c379a0000000000000000000000000000000000000000000000000000000008152600401610f9490612828565b60405180910390fd5b42811015610fe0576040517f08c379a0000000000000000000000000000000000000000000000000000000008152600401610fd7906127c8565b60405180910390fd5b60018381548110610ff457610ff3612d3e565b5b9060005260206000209060080201600301548211156111b5576001838154811061102157611020612d3e565b5b9060005260206000209060080201600301548261103e9190612aff565b600360003373ffffffffffffffffffffffffffffffffffffffff1673ffffffffffffffffffffffffffffffffffffffff1681526020019081526020016000206004015410156110c2576040517f08c379a00000000000000000000000000000000000000000000000000000000081526004016110b990612848565b60405180910390fd5b81600184815481106110d7576110d6612d3e565b5b9060005260206000209060080201600301546110f39190612aff565b600360003373ffffffffffffffffffffffffffffffffffffffff1673ffffffffffffffffffffffffffffffffffffffff168152602001908152602001600020600401546111409190612aff565b600360003373ffffffffffffffffffffffffffffffffffffffff1673ffffffffffffffffffffffffffffffffffffffff16815260200190815260200160002060040181905550816001848154811061119b5761119a612d3e565b5b9060005260206000209060080201600301819055506112a4565b81600184815481106111ca576111c9612d3e565b5b9060005260206000209060080201600301546111e69190612aff565b600360003373ffffffffffffffffffffffffffffffffffffffff1673ffffffffffffffffffffffffffffffffffffffff168152602001908152602001600020600401546112339190612a78565b600360003373ffffffffffffffffffffffffffffffffffffffff1673ffffffffffffffffffffffffffffffffffffffff16815260200190815260200160002060040181905550816001848154811061128e5761128d612d3e565b5b9060005260206000209060080201600301819055505b80600184815481106112b9576112b8612d3e565b5b906000526020600020906008020160050181905550505050565b3373ffffffffffffffffffffffffffffffffffffffff16600182815481106112fe576112fd612d3e565b5b906000526020600020906008020160010160009054906101000a900473ffffffffffffffffffffffffffffffffffffffff1673ffffffffffffffffffffffffffffffffffffffff1614611386576040517f08c379a000000000000000000000000000000000000000000000000000000000815260040161137d90612888565b60405180910390fd5b6000600281111561139a57611399612ce0565b5b600182815481106113ae576113ad612d3e565b5b906000526020600020906008020160060160009054906101000a900460ff1660028111156113df576113de612ce0565b5b1461141f576040517f08c379a000000000000000000000000000000000000000000000000000000000815260040161141690612868565b60405180910390fd5b60026001828154811061143557611434612d3e565b5b906000526020600020906008020160060160006101000a81548160ff0219169083600281111561146857611467612ce0565b5b02179055503373ffffffffffffffffffffffffffffffffffffffff166108fc6001838154811061149b5761149a612d3e565b5b9060005260206000209060080201600301549081150290604051600060405180830381858888f193505050501580156114d8573d6000803e3d6000fd5b5050565b60606000600360003373ffffffffffffffffffffffffffffffffffffffff1673ffffffffffffffffffffffffffffffffffffffff1681526020019081526020016000206002018054905067ffffffffffffffff81111561153f5761153e612d6d565b5b60405190808252806020026020018201604052801561157857816020015b611565612100565b81526020019060019003908161155d5790505b50905060005b600360003373ffffffffffffffffffffffffffffffffffffffff1673ffffffffffffffffffffffffffffffffffffffff1681526020019081526020016000206002018054905081101561182f576000600360003373ffffffffffffffffffffffffffffffffffffffff1673ffffffffffffffffffffffffffffffffffffffff168152602001908152602001600020600201828154811061162157611620612d3e565b5b906000526020600020015490506001818154811061164257611641612d3e565b5b90600052602060002090600802016040518061010001604052908160008201805461166c90612bd6565b80601f016020809104026020016040519081016040528092919081815260200182805461169890612bd6565b80156116e55780601f106116ba576101008083540402835291602001916116e5565b820191906000526020600020905b8154815290600101906020018083116116c857829003601f168201915b505050505081526020016001820160009054906101000a900473ffffffffffffffffffffffffffffffffffffffff1673ffffffffffffffffffffffffffffffffffffffff1673ffffffffffffffffffffffffffffffffffffffff1681526020016002820160009054906101000a900473ffffffffffffffffffffffffffffffffffffffff1673ffffffffffffffffffffffffffffffffffffffff1673ffffffffffffffffffffffffffffffffffffffff1681526020016003820154815260200160048201548152602001600582015481526020016006820160009054906101000a900460ff1660028111156117dd576117dc612ce0565b5b60028111156117ef576117ee612ce0565b5b81526020016007820154815250508383815181106118105761180f612d3e565b5b602002602001018190525050808061182790612c39565b91505061157e565b508091505090565b3373ffffffffffffffffffffffffffffffffffffffff166001828154811061186257611861612d3e565b5b906000526020600020906008020160020160009054906101000a900473ffffffffffffffffffffffffffffffffffffffff1673ffffffffffffffffffffffffffffffffffffffff16146118ea576040517f08c379a00000000000000000000000000000000000000000000000000000000081526004016118e190612928565b60405180910390fd5b600060028111156118fe576118fd612ce0565b5b6001828154811061191257611911612d3e565b5b906000526020600020906008020160060160009054906101000a900460ff16600281111561194357611942612ce0565b5b14611983576040517f08c379a000000000000000000000000000000000000000000000000000000000815260040161197a90612948565b60405180910390fd5b426001828154811061199857611997612d3e565b5b906000526020600020906008020160050154106119ea576040517f08c379a00000000000000000000000000000000000000000000000000000000081526004016119e1906128c8565b60405180910390fd5b60018082815481106119ff576119fe612d3e565b5b906000526020600020906008020160060160006101000a81548160ff02191690836002811115611a3257611a31612ce0565b5b02179055503373ffffffffffffffffffffffffffffffffffffffff166108fc60018381548110611a6557611a64612d3e565b5b9060005260206000209060080201600301549081150290604051600060405180830381858888f19350505050158015611aa2573d6000803e3d6000fd5b5050565b60606000600360003373ffffffffffffffffffffffffffffffffffffffff1673ffffffffffffffffffffffffffffffffffffffff1681526020019081526020016000206001018054905011611b30576040517f08c379a0000000000000000000000000000000000000000000000000000000008152600401611b2790612908565b60405180910390fd5b6000600360003373ffffffffffffffffffffffffffffffffffffffff1673ffffffffffffffffffffffffffffffffffffffff1681526020019081526020016000206001018054905067ffffffffffffffff811115611b9157611b90612d6d565b5b604051908082528060200260200182016040528015611bbf5781602001602082028036833780820191505090505b50905060005b600360003373ffffffffffffffffffffffffffffffffffffffff1673ffffffffffffffffffffffffffffffffffffffff16815260200190815260200160002060010180549050811015611cf7576000600360003373ffffffffffffffffffffffffffffffffffffffff1673ffffffffffffffffffffffffffffffffffffffff1681526020019081526020016000206001018281548110611c6857611c67612d3e565b5b9060005260206000200160009054906101000a900473ffffffffffffffffffffffffffffffffffffffff16905080838381518110611ca957611ca8612d3e565b5b602002602001019073ffffffffffffffffffffffffffffffffffffffff16908173ffffffffffffffffffffffffffffffffffffffff1681525050508080611cef90612c39565b915050611bc5565b508091505090565b60006001805490509050600360003373ffffffffffffffffffffffffffffffffffffffff1673ffffffffffffffffffffffffffffffffffffffff168152602001908152602001600020600201819080600181540180825580915050600190039060005260206000200160009091909190915055600360008573ffffffffffffffffffffffffffffffffffffffff1673ffffffffffffffffffffffffffffffffffffffff1681526020019081526020016000206003018190806001815401808255809150506001900390600052602060002001600090919091909150556001600080828254611ded9190612a78565b9250508190555060016040518061010001604052808481526020013373ffffffffffffffffffffffffffffffffffffffff1681526020018673ffffffffffffffffffffffffffffffffffffffff16815260200134815260200142815260200185815260200160006002811115611e6657611e65612ce0565b5b81526020018381525090806001815401808255809150506001900390600052602060002090600802016000909190919091506000820151816000019080519060200190611eb4929190611fa3565b5060208201518160010160006101000a81548173ffffffffffffffffffffffffffffffffffffffff021916908373ffffffffffffffffffffffffffffffffffffffff16021790555060408201518160020160006101000a81548173ffffffffffffffffffffffffffffffffffffffff021916908373ffffffffffffffffffffffffffffffffffffffff160217905550606082015181600301556080820151816004015560a0820151816005015560c08201518160060160006101000a81548160ff02191690836002811115611f8c57611f8b612ce0565b5b021790555060e08201518160070155505050505050565b828054611faf90612bd6565b90600052602060002090601f016020900481019282611fd15760008555612018565b82601f10611fea57805160ff1916838001178555612018565b82800160010185558215612018579182015b82811115612017578251825591602001919060010190611ffc565b5b5090506120259190612183565b5090565b8280548282559060005260206000209081019282156120a2579160200282015b828111156120a15782518260006101000a81548173ffffffffffffffffffffffffffffffffffffffff021916908373ffffffffffffffffffffffffffffffffffffffff16021790555091602001919060010190612049565b5b5090506120af9190612183565b5090565b8280548282559060005260206000209081019282156120ef579160200282015b828111156120ee5782518255916020019190600101906120d3565b5b5090506120fc9190612183565b5090565b60405180610100016040528060608152602001600073ffffffffffffffffffffffffffffffffffffffff168152602001600073ffffffffffffffffffffffffffffffffffffffff1681526020016000815260200160008152602001600081526020016000600281111561217657612175612ce0565b5b8152602001600081525090565b5b8082111561219c576000816000905550600101612184565b5090565b60006121b36121ae846129a8565b612983565b9050828152602081018484840111156121cf576121ce612da1565b5b6121da848285612b94565b509392505050565b6000813590506121f1816131b5565b92915050565b600082601f83011261220c5761220b612d9c565b5b813561221c8482602086016121a0565b91505092915050565b600081359050612234816131cc565b92915050565b6000602082840312156122505761224f612dab565b5b600061225e848285016121e2565b91505092915050565b6000806000606084860312156122805761227f612dab565b5b600061228e868287016121e2565b935050602061229f86828701612225565b925050604084013567ffffffffffffffff8111156122c0576122bf612da6565b5b6122cc868287016121f7565b9150509250925092565b6000602082840312156122ec576122eb612dab565b5b60006122fa84828501612225565b91505092915050565b60008060006060848603121561231c5761231b612dab565b5b600061232a86828701612225565b935050602061233b86828701612225565b925050604061234c86828701612225565b9150509250925092565b60006123628383612382565b60208301905092915050565b600061237a8383612696565b905092915050565b61238b81612b33565b82525050565b600061239c826129f9565b6123a68185612a34565b93506123b1836129d9565b8060005b838110156123e25781516123c98882612356565b97506123d483612a1a565b9250506001810190506123b5565b5085935050505092915050565b60006123fa82612a04565b6124048185612a45565b935083602082028501612416856129e9565b8060005b858110156124525784840389528151612433858261236e565b945061243e83612a27565b925060208a0199505060018101905061241a565b50829750879550505050505092915050565b61246d81612b82565b82525050565b600061247e82612a0f565b6124888185612a56565b9350612498818560208601612ba3565b6124a181612db0565b840191505092915050565b60006124b9602483612a67565b91506124c482612dc1565b604082019050919050565b60006124dc603a83612a67565b91506124e782612e10565b604082019050919050565b60006124ff603183612a67565b915061250a82612e5f565b604082019050919050565b6000612522602483612a67565b915061252d82612eae565b604082019050919050565b6000612545601e83612a67565b915061255082612efd565b602082019050919050565b6000612568602683612a67565b915061257382612f26565b604082019050919050565b600061258b602983612a67565b915061259682612f75565b604082019050919050565b60006125ae604183612a67565b91506125b982612fc4565b606082019050919050565b60006125d1601c83612a67565b91506125dc82613039565b602082019050919050565b60006125f4602383612a67565b91506125ff82613062565b604082019050919050565b6000612617601b83612a67565b9150612622826130b1565b602082019050919050565b600061263a601783612a67565b9150612645826130da565b602082019050919050565b600061265d602783612a67565b915061266882613103565b604082019050919050565b6000612680603083612a67565b915061268b82613152565b604082019050919050565b60006101008301600083015184820360008601526126b48282612473565b91505060208301516126c96020860182612382565b5060408301516126dc6040860182612382565b5060608301516126ef6060860182612746565b5060808301516127026080860182612746565b5060a083015161271560a0860182612746565b5060c083015161272860c0860182612464565b5060e083015161273b60e0860182612746565b508091505092915050565b61274f81612b78565b82525050565b61275e81612b78565b82525050565b6000602082019050818103600083015261277e8184612391565b905092915050565b600060208201905081810360008301526127a081846123ef565b905092915050565b600060208201905081810360008301526127c1816124ac565b9050919050565b600060208201905081810360008301526127e1816124cf565b9050919050565b60006020820190508181036000830152612801816124f2565b9050919050565b6000602082019050818103600083015261282181612515565b9050919050565b6000602082019050818103600083015261284181612538565b9050919050565b600060208201905081810360008301526128618161255b565b9050919050565b600060208201905081810360008301526128818161257e565b9050919050565b600060208201905081810360008301526128a1816125a1565b9050919050565b600060208201905081810360008301526128c1816125c4565b9050919050565b600060208201905081810360008301526128e1816125e7565b9050919050565b600060208201905081810360008301526129018161260a565b9050919050565b600060208201905081810360008301526129218161262d565b9050919050565b6000602082019050818103600083015261294181612650565b9050919050565b6000602082019050818103600083015261296181612673565b9050919050565b600060208201905061297d6000830184612755565b92915050565b600061298d61299e565b90506129998282612c08565b919050565b6000604051905090565b600067ffffffffffffffff8211156129c3576129c2612d6d565b5b6129cc82612db0565b9050602081019050919050565b6000819050602082019050919050565b6000819050602082019050919050565b600081519050919050565b600081519050919050565b600081519050919050565b6000602082019050919050565b6000602082019050919050565b600082825260208201905092915050565b600082825260208201905092915050565b600082825260208201905092915050565b600082825260208201905092915050565b6000612a8382612b78565b9150612a8e83612b78565b9250827fffffffffffffffffffffffffffffffffffffffffffffffffffffffffffffffff03821115612ac357612ac2612c82565b5b828201905092915050565b6000612ad982612b78565b9150612ae483612b78565b925082612af457612af3612cb1565b5b828204905092915050565b6000612b0a82612b78565b9150612b1583612b78565b925082821015612b2857612b27612c82565b5b828203905092915050565b6000612b3e82612b58565b9050919050565b6000819050612b53826131a1565b919050565b600073ffffffffffffffffffffffffffffffffffffffff82169050919050565b6000819050919050565b6000612b8d82612b45565b9050919050565b82818337600083830152505050565b60005b83811015612bc1578082015181840152602081019050612ba6565b83811115612bd0576000848401525b50505050565b60006002820490506001821680612bee57607f821691505b60208210811415612c0257612c01612d0f565b5b50919050565b612c1182612db0565b810181811067ffffffffffffffff82111715612c3057612c2f612d6d565b5b80604052505050565b6000612c4482612b78565b91507fffffffffffffffffffffffffffffffffffffffffffffffffffffffffffffffff821415612c7757612c76612c82565b5b600182019050919050565b7f4e487b7100000000000000000000000000000000000000000000000000000000600052601160045260246000fd5b7f4e487b7100000000000000000000000000000000000000000000000000000000600052601260045260246000fd5b7f4e487b7100000000000000000000000000000000000000000000000000000000600052602160045260246000fd5b7f4e487b7100000000000000000000000000000000000000000000000000000000600052602260045260246000fd5b7f4e487b7100000000000000000000000000000000000000000000000000000000600052603260045260246000fd5b7f4e487b7100000000000000000000000000000000000000000000000000000000600052604160045260246000fd5b600080fd5b600080fd5b600080fd5b600080fd5b6000601f19601f8301169050919050565b7f596f752068617665206e6f20726563697069656e747320746f20696e7665737460008201527f20746f2e00000000000000000000000000000000000000000000000000000000602082015250565b7f596f752063616e206e6f742073657420616e20696e7665736d656e7420746f2060008201527f62652072656c6173656420696e2061207061737420646174652e000000000000602082015250565b7f596f752063616e206e6f742072657669736520616e20696e7665736d656e742060008201527f796f7520646964206e6f74206d616b652e000000000000000000000000000000602082015250565b7f546865726520617265206e6f20696e7665736d656e7473206d61646520666f7260008201527f20796f7500000000000000000000000000000000000000000000000000000000602082015250565b7f5468697320697320616e20696e61637469766520696e7665736d656e742e0000600082015250565b7f496e737566666963656e742066756e647320746f2072657669736520696e766560008201527f736d656e742e0000000000000000000000000000000000000000000000000000602082015250565b7f596f752063616e206e6f742063616e63656c20616e20696e616374697665206960008201527f6e7665736d656e742e0000000000000000000000000000000000000000000000602082015250565b7f596f7520617265206e6f742074686520696e766573746f722c206f6e6c79206960008201527f6e766573746f72732063616e2063616e63656c20616e20696e7665736d656e7460208201527f2e00000000000000000000000000000000000000000000000000000000000000604082015250565b7f596f752068617665206e6f2066756e647320746f206469766964652e00000000600082015250565b7f596f752063616e206e6f74207769746864726177207468652066756e6473207960008201527f6574210000000000000000000000000000000000000000000000000000000000602082015250565b7f596f752061726520616c72656164792072656769737465726564210000000000600082015250565b7f4e6f20726563697069656e742072656769737465726564000000000000000000600082015250565b7f5468697320696e7665736d656e74206973206e6f7420666f722074686973206160008201527f6464726573732100000000000000000000000000000000000000000000000000602082015250565b7f596f752063616e206e6f742077697468647261772066726f6d20616e20696e6160008201527f637469766520696e7665736d656e742e00000000000000000000000000000000602082015250565b600381106131b2576131b1612ce0565b5b50565b6131be81612b33565b81146131c957600080fd5b50565b6131d581612b78565b81146131e057600080fd5b5056fea26469706673582212201cf653f35dbda3f58c679c4d4fdeb97c8124acdb7513de51dbc218d832c93a6864736f6c63430008070033",
  "linkReferences": {},
  "deployedLinkReferences": {}
}