{
  "_format": "hh-sol-artifact-1",
  "contractName": "Transactions",
  "sourceName": "contracts/Transactions.sol",
  "abi": [
    {
      "anonymous": false,
      "inputs": [
        {
          "indexed": false,
          "internalType": "uint256",
          "name": "userNo",
          "type": "uint256"
        }
      ],
      "name": "newRegister",
      "type": "event"
    },
    {
      "inputs": [
        {
          "internalType": "uint256",
          "name": "index",
          "type": "uint256"
        }
      ],
      "name": "dateTimeOfWithdraw",
      "outputs": [
        {
          "internalType": "uint256",
          "name": "dateTimeOfWithdrawint",
          "type": "uint256"
        }
      ],
      "stateMutability": "view",
      "type": "function"
    },
    {
      "inputs": [
        {
          "internalType": "uint256",
          "name": "timeForRelease",
          "type": "uint256"
        }
      ],
      "name": "divideToRecipients",
      "outputs": [],
      "stateMutability": "nonpayable",
      "type": "function"
    },
    {
      "inputs": [],
      "name": "getRecipients",
      "outputs": [
        {
          "internalType": "address[]",
          "name": "",
          "type": "address[]"
        }
      ],
      "stateMutability": "view",
      "type": "function"
    },
    {
      "inputs": [],
      "name": "getTransactionCount",
      "outputs": [
        {
          "internalType": "uint256",
          "name": "",
          "type": "uint256"
        }
      ],
      "stateMutability": "view",
      "type": "function"
    },
    {
      "inputs": [],
      "name": "invesmentsMadeToMe",
      "outputs": [
        {
          "components": [
            {
              "internalType": "address",
              "name": "invester",
              "type": "address"
            },
            {
              "internalType": "address",
              "name": "receiver",
              "type": "address"
            },
            {
              "internalType": "uint256",
              "name": "amount",
              "type": "uint256"
            },
            {
              "internalType": "uint256",
              "name": "timeOfInvesment",
              "type": "uint256"
            },
            {
              "internalType": "uint256",
              "name": "timeForRelease",
              "type": "uint256"
            },
            {
              "internalType": "bool",
              "name": "isReversable",
              "type": "bool"
            },
            {
              "internalType": "bool",
              "name": "isActive",
              "type": "bool"
            },
            {
              "internalType": "uint256",
              "name": "invesmentNo",
              "type": "uint256"
            }
          ],
          "internalType": "struct Transactions.invesment[]",
          "name": "",
          "type": "tuple[]"
        }
      ],
      "stateMutability": "view",
      "type": "function"
    },
    {
      "inputs": [
        {
          "internalType": "address",
          "name": "receiver",
          "type": "address"
        },
        {
          "internalType": "uint256",
          "name": "timeForRelease",
          "type": "uint256"
        }
      ],
      "name": "makeInvesment",
      "outputs": [],
      "stateMutability": "payable",
      "type": "function"
    },
    {
      "inputs": [],
      "name": "myInvesments",
      "outputs": [
        {
          "components": [
            {
              "internalType": "address",
              "name": "invester",
              "type": "address"
            },
            {
              "internalType": "address",
              "name": "receiver",
              "type": "address"
            },
            {
              "internalType": "uint256",
              "name": "amount",
              "type": "uint256"
            },
            {
              "internalType": "uint256",
              "name": "timeOfInvesment",
              "type": "uint256"
            },
            {
              "internalType": "uint256",
              "name": "timeForRelease",
              "type": "uint256"
            },
            {
              "internalType": "bool",
              "name": "isReversable",
              "type": "bool"
            },
            {
              "internalType": "bool",
              "name": "isActive",
              "type": "bool"
            },
            {
              "internalType": "uint256",
              "name": "invesmentNo",
              "type": "uint256"
            }
          ],
          "internalType": "struct Transactions.invesment[]",
          "name": "",
          "type": "tuple[]"
        }
      ],
      "stateMutability": "view",
      "type": "function"
    },
    {
      "inputs": [
        {
          "internalType": "address",
          "name": "userAddress",
          "type": "address"
        }
      ],
      "name": "register",
      "outputs": [],
      "stateMutability": "nonpayable",
      "type": "function"
    },
    {
      "inputs": [
        {
          "internalType": "address",
          "name": "receiver",
          "type": "address"
        }
      ],
      "name": "registerReceiver",
      "outputs": [],
      "stateMutability": "nonpayable",
      "type": "function"
    },
    {
      "inputs": [
        {
          "internalType": "uint256",
          "name": "invesmentNo",
          "type": "uint256"
        }
      ],
      "name": "reverseInvesment",
      "outputs": [],
      "stateMutability": "payable",
      "type": "function"
    },
    {
      "inputs": [
        {
          "internalType": "uint256",
          "name": "invesmentNo",
          "type": "uint256"
        },
        {
          "internalType": "uint256",
          "name": "amount",
          "type": "uint256"
        },
        {
          "internalType": "uint256",
          "name": "timeForRelease",
          "type": "uint256"
        }
      ],
      "name": "reviseInvesment",
      "outputs": [],
      "stateMutability": "nonpayable",
      "type": "function"
    },
    {
      "inputs": [
        {
          "internalType": "uint256",
          "name": "invesmentNo",
          "type": "uint256"
        }
      ],
      "name": "withdrawInvesment",
      "outputs": [],
      "stateMutability": "payable",
      "type": "function"
    }
  ],
  "bytecode": "0x608060405234801561001057600080fd5b50612dff806100206000396000f3fe6080604052600436106100a75760003560e01c8063c57b1d7911610064578063c57b1d79146101ba578063cac5bf55146101e3578063cbf8a7cf146101ff578063cfdd43291461022a578063d78d610b14610246578063e26e7abd14610271576100a7565b80632e7700f0146100ac5780633587ce6a146100d75780634420e4861461010057806357d268a714610129578063995d5d0a146101665780639fa8bdab14610191575b600080fd5b3480156100b857600080fd5b506100c161028d565b6040516100ce919061275f565b60405180910390f35b3480156100e357600080fd5b506100fe60048036038101906100f99190612169565b610296565b005b34801561010c57600080fd5b50610127600480360381019061012291906120fc565b61079f565b005b34801561013557600080fd5b50610150600480360381019061014b9190612169565b6109f5565b60405161015d919061275f565b60405180910390f35b34801561017257600080fd5b5061017b610a24565b604051610188919061259d565b60405180910390f35b34801561019d57600080fd5b506101b860048036038101906101b391906120fc565b610d2c565b005b3480156101c657600080fd5b506101e160048036038101906101dc9190612196565b610ed9565b005b6101fd60048036038101906101f89190612169565b611364565b005b34801561020b57600080fd5b5061021461158a565b604051610221919061259d565b60405180910390f35b610244600480360381019061023f9190612169565b61184e565b005b34801561025257600080fd5b5061025b611a87565b604051610268919061257b565b60405180910390f35b61028b60048036038101906102869190612129565b611ce0565b005b60008054905090565b6000600360003373ffffffffffffffffffffffffffffffffffffffff1673ffffffffffffffffffffffffffffffffffffffff16815260200190815260200160002060040154141561031c576040517f08c379a00000000000000000000000000000000000000000000000000000000081526004016103139061269f565b60405180910390fd5b6000600360003373ffffffffffffffffffffffffffffffffffffffff1673ffffffffffffffffffffffffffffffffffffffff1681526020019081526020016000206001018054905014156103a5576040517f08c379a000000000000000000000000000000000000000000000000000000000815260040161039c906125bf565b60405180910390fd5b6000600360003373ffffffffffffffffffffffffffffffffffffffff1673ffffffffffffffffffffffffffffffffffffffff16815260200190815260200160002060010180549050600360003373ffffffffffffffffffffffffffffffffffffffff1673ffffffffffffffffffffffffffffffffffffffff1681526020019081526020016000206004015461043a9190612853565b905060005b600360003373ffffffffffffffffffffffffffffffffffffffff1673ffffffffffffffffffffffffffffffffffffffff1681526020019081526020016000206001018054905081101561079a576000600360003373ffffffffffffffffffffffffffffffffffffffff1673ffffffffffffffffffffffffffffffffffffffff16815260200190815260200160002060010182815481106104e2576104e16129a7565b5b9060005260206000200160009054906101000a900473ffffffffffffffffffffffffffffffffffffffff16905060006001808054905061052291906127fd565b905060016040518061010001604052803373ffffffffffffffffffffffffffffffffffffffff1681526020018473ffffffffffffffffffffffffffffffffffffffff16815260200186815260200142815260200187815260200160011515815260200160011515815260200183815250908060018154018082558091505060019003906000526020600020906007020160009091909190915060008201518160000160006101000a81548173ffffffffffffffffffffffffffffffffffffffff021916908373ffffffffffffffffffffffffffffffffffffffff16021790555060208201518160010160006101000a81548173ffffffffffffffffffffffffffffffffffffffff021916908373ffffffffffffffffffffffffffffffffffffffff16021790555060408201518160020155606082015181600301556080820151816004015560a08201518160050160006101000a81548160ff02191690831515021790555060c08201518160050160016101000a81548160ff02191690831515021790555060e082015181600601555050600360003373ffffffffffffffffffffffffffffffffffffffff1673ffffffffffffffffffffffffffffffffffffffff168152602001908152602001600020600201819080600181540180825580915050600190039060005260206000200160009091909190915055600360008373ffffffffffffffffffffffffffffffffffffffff1673ffffffffffffffffffffffffffffffffffffffff1681526020019081526020016000206003018190806001815401808255809150506001900390600052602060002001600090919091909150555050808061079290612900565b91505061043f565b505050565b600360008273ffffffffffffffffffffffffffffffffffffffff1673ffffffffffffffffffffffffffffffffffffffff16815260200190815260200160002060050160009054906101000a900460ff161561082f576040517f08c379a0000000000000000000000000000000000000000000000000000000008152600401610826906126df565b60405180910390fd5b60608060606000806040518060c001604052808773ffffffffffffffffffffffffffffffffffffffff16815260200186815260200185815260200184815260200183815260200160011515815250905080600360008873ffffffffffffffffffffffffffffffffffffffff1673ffffffffffffffffffffffffffffffffffffffff16815260200190815260200160002060008201518160000160006101000a81548173ffffffffffffffffffffffffffffffffffffffff021916908373ffffffffffffffffffffffffffffffffffffffff1602179055506020820151816001019080519060200190610922929190611f69565b50604082015181600201908051906020019061093f929190611ff3565b50606082015181600301908051906020019061095c929190611ff3565b506080820151816004015560a08201518160050160006101000a81548160ff0219169083151502179055509050506002869080600181540180825580915050600190039060005260206000200160009091909190916101000a81548173ffffffffffffffffffffffffffffffffffffffff021916908373ffffffffffffffffffffffffffffffffffffffff160217905550505050505050565b600060018281548110610a0b57610a0a6129a7565b5b9060005260206000209060070201600401549050919050565b60606000600360003373ffffffffffffffffffffffffffffffffffffffff1673ffffffffffffffffffffffffffffffffffffffff1681526020019081526020016000206003018054905067ffffffffffffffff811115610a8757610a866129d6565b5b604051908082528060200260200182016040528015610ac057816020015b610aad612040565b815260200190600190039081610aa55790505b50905060006001905060005b600360003373ffffffffffffffffffffffffffffffffffffffff1673ffffffffffffffffffffffffffffffffffffffff16815260200190815260200160002060030180549050811015610d23576000600360003373ffffffffffffffffffffffffffffffffffffffff1673ffffffffffffffffffffffffffffffffffffffff1681526020019081526020016000206003018281548110610b6f57610b6e6129a7565b5b9060005260206000200154905060018181548110610b9057610b8f6129a7565b5b9060005260206000209060070201604051806101000160405290816000820160009054906101000a900473ffffffffffffffffffffffffffffffffffffffff1673ffffffffffffffffffffffffffffffffffffffff1673ffffffffffffffffffffffffffffffffffffffff1681526020016001820160009054906101000a900473ffffffffffffffffffffffffffffffffffffffff1673ffffffffffffffffffffffffffffffffffffffff1673ffffffffffffffffffffffffffffffffffffffff1681526020016002820154815260200160038201548152602001600482015481526020016005820160009054906101000a900460ff161515151581526020016005820160019054906101000a900460ff16151515158152602001600682015481525050848381518110610cc757610cc66129a7565b5b602002602001018190525060018181548110610ce657610ce56129a7565b5b906000526020600020906007020160050160019054906101000a900460ff1615610d0f57600092505b508080610d1b90612900565b915050610acc565b50819250505090565b600360008273ffffffffffffffffffffffffffffffffffffffff1673ffffffffffffffffffffffffffffffffffffffff16815260200190815260200160002060050160009054906101000a900460ff1615610e2957600360003373ffffffffffffffffffffffffffffffffffffffff1673ffffffffffffffffffffffffffffffffffffffff168152602001908152602001600020600101819080600181540180825580915050600190039060005260206000200160009091909190916101000a81548173ffffffffffffffffffffffffffffffffffffffff021916908373ffffffffffffffffffffffffffffffffffffffff160217905550610ed6565b610e328161079f565b600360003373ffffffffffffffffffffffffffffffffffffffff1673ffffffffffffffffffffffffffffffffffffffff168152602001908152602001600020600101819080600181540180825580915050600190039060005260206000200160009091909190916101000a81548173ffffffffffffffffffffffffffffffffffffffff021916908373ffffffffffffffffffffffffffffffffffffffff1602179055505b50565b3373ffffffffffffffffffffffffffffffffffffffff1660018481548110610f0457610f036129a7565b5b906000526020600020906007020160000160009054906101000a900473ffffffffffffffffffffffffffffffffffffffff1673ffffffffffffffffffffffffffffffffffffffff1614610f8c576040517f08c379a0000000000000000000000000000000000000000000000000000000008152600401610f83906125ff565b60405180910390fd5b60018381548110610fa057610f9f6129a7565b5b906000526020600020906007020160050160019054906101000a900460ff16610ffe576040517f08c379a0000000000000000000000000000000000000000000000000000000008152600401610ff59061261f565b60405180910390fd5b428160018581548110611014576110136129a7565b5b90600052602060002090600702016003015461103091906127fd565b1015611071576040517f08c379a0000000000000000000000000000000000000000000000000000000008152600401611068906125df565b60405180910390fd5b60018381548110611085576110846129a7565b5b90600052602060002090600702016002015482111561124657600183815481106110b2576110b16129a7565b5b906000526020600020906007020160020154826110cf9190612884565b600360003373ffffffffffffffffffffffffffffffffffffffff1673ffffffffffffffffffffffffffffffffffffffff168152602001908152602001600020600401541015611153576040517f08c379a000000000000000000000000000000000000000000000000000000000815260040161114a9061263f565b60405180910390fd5b8160018481548110611168576111676129a7565b5b9060005260206000209060070201600201546111849190612884565b600360003373ffffffffffffffffffffffffffffffffffffffff1673ffffffffffffffffffffffffffffffffffffffff168152602001908152602001600020600401546111d19190612884565b600360003373ffffffffffffffffffffffffffffffffffffffff1673ffffffffffffffffffffffffffffffffffffffff16815260200190815260200160002060040181905550816001848154811061122c5761122b6129a7565b5b906000526020600020906007020160020181905550611335565b816001848154811061125b5761125a6129a7565b5b9060005260206000209060070201600201546112779190612884565b600360003373ffffffffffffffffffffffffffffffffffffffff1673ffffffffffffffffffffffffffffffffffffffff168152602001908152602001600020600401546112c491906127fd565b600360003373ffffffffffffffffffffffffffffffffffffffff1673ffffffffffffffffffffffffffffffffffffffff16815260200190815260200160002060040181905550816001848154811061131f5761131e6129a7565b5b9060005260206000209060070201600201819055505b806001848154811061134a576113496129a7565b5b906000526020600020906007020160040181905550505050565b3373ffffffffffffffffffffffffffffffffffffffff166001828154811061138f5761138e6129a7565b5b906000526020600020906007020160000160009054906101000a900473ffffffffffffffffffffffffffffffffffffffff1673ffffffffffffffffffffffffffffffffffffffff1614611417576040517f08c379a000000000000000000000000000000000000000000000000000000000815260040161140e9061267f565b60405180910390fd5b600115156001828154811061142f5761142e6129a7565b5b906000526020600020906007020160050160019054906101000a900460ff16151514611490576040517f08c379a00000000000000000000000000000000000000000000000000000000081526004016114879061265f565b60405180910390fd5b6000600182815481106114a6576114a56129a7565b5b906000526020600020906007020160050160016101000a81548160ff021916908315150217905550600181815481106114e2576114e16129a7565b5b906000526020600020906007020160020154600360003373ffffffffffffffffffffffffffffffffffffffff1673ffffffffffffffffffffffffffffffffffffffff1681526020019081526020016000206004015461154191906127fd565b600360003373ffffffffffffffffffffffffffffffffffffffff1673ffffffffffffffffffffffffffffffffffffffff1681526020019081526020016000206004018190555050565b60606000600360003373ffffffffffffffffffffffffffffffffffffffff1673ffffffffffffffffffffffffffffffffffffffff1681526020019081526020016000206002018054905067ffffffffffffffff8111156115ed576115ec6129d6565b5b60405190808252806020026020018201604052801561162657816020015b611613612040565b81526020019060019003908161160b5790505b50905060005b600360003373ffffffffffffffffffffffffffffffffffffffff1673ffffffffffffffffffffffffffffffffffffffff16815260200190815260200160002060020180549050811015611846576000600360003373ffffffffffffffffffffffffffffffffffffffff1673ffffffffffffffffffffffffffffffffffffffff16815260200190815260200160002060020182815481106116cf576116ce6129a7565b5b90600052602060002001549050600181815481106116f0576116ef6129a7565b5b9060005260206000209060070201604051806101000160405290816000820160009054906101000a900473ffffffffffffffffffffffffffffffffffffffff1673ffffffffffffffffffffffffffffffffffffffff1673ffffffffffffffffffffffffffffffffffffffff1681526020016001820160009054906101000a900473ffffffffffffffffffffffffffffffffffffffff1673ffffffffffffffffffffffffffffffffffffffff1673ffffffffffffffffffffffffffffffffffffffff1681526020016002820154815260200160038201548152602001600482015481526020016005820160009054906101000a900460ff161515151581526020016005820160019054906101000a900460ff16151515158152602001600682015481525050838381518110611827576118266129a7565b5b602002602001018190525050808061183e90612900565b91505061162c565b508091505090565b3373ffffffffffffffffffffffffffffffffffffffff1660018281548110611879576118786129a7565b5b906000526020600020906007020160010160009054906101000a900473ffffffffffffffffffffffffffffffffffffffff1673ffffffffffffffffffffffffffffffffffffffff1614611901576040517f08c379a00000000000000000000000000000000000000000000000000000000081526004016118f89061271f565b60405180910390fd5b60018181548110611915576119146129a7565b5b906000526020600020906007020160050160019054906101000a900460ff16611973576040517f08c379a000000000000000000000000000000000000000000000000000000000815260040161196a9061273f565b60405180910390fd5b4260018281548110611988576119876129a7565b5b906000526020600020906007020160040154106119da576040517f08c379a00000000000000000000000000000000000000000000000000000000081526004016119d1906126bf565b60405180910390fd5b6000600182815481106119f0576119ef6129a7565b5b906000526020600020906007020160050160016101000a81548160ff0219169083151502179055503373ffffffffffffffffffffffffffffffffffffffff166108fc60018381548110611a4657611a456129a7565b5b9060005260206000209060070201600201549081150290604051600060405180830381858888f19350505050158015611a83573d6000803e3d6000fd5b5050565b60606000600360003373ffffffffffffffffffffffffffffffffffffffff1673ffffffffffffffffffffffffffffffffffffffff1681526020019081526020016000206001018054905011611b11576040517f08c379a0000000000000000000000000000000000000000000000000000000008152600401611b08906126ff565b60405180910390fd5b6000600360003373ffffffffffffffffffffffffffffffffffffffff1673ffffffffffffffffffffffffffffffffffffffff1681526020019081526020016000206001018054905067ffffffffffffffff811115611b7257611b716129d6565b5b604051908082528060200260200182016040528015611ba05781602001602082028036833780820191505090505b50905060005b600360003373ffffffffffffffffffffffffffffffffffffffff1673ffffffffffffffffffffffffffffffffffffffff16815260200190815260200160002060010180549050811015611cd8576000600360003373ffffffffffffffffffffffffffffffffffffffff1673ffffffffffffffffffffffffffffffffffffffff1681526020019081526020016000206001018281548110611c4957611c486129a7565b5b9060005260206000200160009054906101000a900473ffffffffffffffffffffffffffffffffffffffff16905080838381518110611c8a57611c896129a7565b5b602002602001019073ffffffffffffffffffffffffffffffffffffffff16908173ffffffffffffffffffffffffffffffffffffffff1681525050508080611cd090612900565b915050611ba6565b508091505090565b60006001805490509050600360003373ffffffffffffffffffffffffffffffffffffffff1673ffffffffffffffffffffffffffffffffffffffff168152602001908152602001600020600201819080600181540180825580915050600190039060005260206000200160009091909190915055600360008473ffffffffffffffffffffffffffffffffffffffff1673ffffffffffffffffffffffffffffffffffffffff1681526020019081526020016000206003018190806001815401808255809150506001900390600052602060002001600090919091909150556001600080828254611dce91906127fd565b9250508190555060016040518061010001604052803373ffffffffffffffffffffffffffffffffffffffff1681526020018573ffffffffffffffffffffffffffffffffffffffff16815260200134815260200142815260200184815260200160011515815260200160011515815260200183815250908060018154018082558091505060019003906000526020600020906007020160009091909190915060008201518160000160006101000a81548173ffffffffffffffffffffffffffffffffffffffff021916908373ffffffffffffffffffffffffffffffffffffffff16021790555060208201518160010160006101000a81548173ffffffffffffffffffffffffffffffffffffffff021916908373ffffffffffffffffffffffffffffffffffffffff16021790555060408201518160020155606082015181600301556080820151816004015560a08201518160050160006101000a81548160ff02191690831515021790555060c08201518160050160016101000a81548160ff02191690831515021790555060e082015181600601555050505050565b828054828255906000526020600020908101928215611fe2579160200282015b82811115611fe15782518260006101000a81548173ffffffffffffffffffffffffffffffffffffffff021916908373ffffffffffffffffffffffffffffffffffffffff16021790555091602001919060010190611f89565b5b509050611fef91906120b5565b5090565b82805482825590600052602060002090810192821561202f579160200282015b8281111561202e578251825591602001919060010190612013565b5b50905061203c91906120b5565b5090565b604051806101000160405280600073ffffffffffffffffffffffffffffffffffffffff168152602001600073ffffffffffffffffffffffffffffffffffffffff168152602001600081526020016000815260200160008152602001600015158152602001600015158152602001600081525090565b5b808211156120ce5760008160009055506001016120b6565b5090565b6000813590506120e181612d9b565b92915050565b6000813590506120f681612db2565b92915050565b60006020828403121561211257612111612a05565b5b6000612120848285016120d2565b91505092915050565b600080604083850312156121405761213f612a05565b5b600061214e858286016120d2565b925050602061215f858286016120e7565b9150509250929050565b60006020828403121561217f5761217e612a05565b5b600061218d848285016120e7565b91505092915050565b6000806000606084860312156121af576121ae612a05565b5b60006121bd868287016120e7565b93505060206121ce868287016120e7565b92505060406121df868287016120e7565b9150509250925092565b60006121f5838361221a565b60208301905092915050565b600061220d83836124bb565b6101008301905092915050565b612223816128b8565b82525050565b60006122348261279a565b61223e81856127ca565b93506122498361277a565b8060005b8381101561227a57815161226188826121e9565b975061226c836127b0565b92505060018101905061224d565b5085935050505092915050565b6000612292826127a5565b61229c81856127db565b93506122a78361278a565b8060005b838110156122d85781516122bf8882612201565b97506122ca836127bd565b9250506001810190506122ab565b5085935050505092915050565b6122ee816128ca565b82525050565b60006123016024836127ec565b915061230c82612a0a565b604082019050919050565b6000612324603a836127ec565b915061232f82612a59565b604082019050919050565b60006123476031836127ec565b915061235282612aa8565b604082019050919050565b600061236a601e836127ec565b915061237582612af7565b602082019050919050565b600061238d6026836127ec565b915061239882612b20565b604082019050919050565b60006123b06029836127ec565b91506123bb82612b6f565b604082019050919050565b60006123d36041836127ec565b91506123de82612bbe565b606082019050919050565b60006123f6601c836127ec565b915061240182612c33565b602082019050919050565b60006124196023836127ec565b915061242482612c5c565b604082019050919050565b600061243c601b836127ec565b915061244782612cab565b602082019050919050565b600061245f6017836127ec565b915061246a82612cd4565b602082019050919050565b60006124826027836127ec565b915061248d82612cfd565b604082019050919050565b60006124a56030836127ec565b91506124b082612d4c565b604082019050919050565b610100820160008201516124d2600085018261221a565b5060208201516124e5602085018261221a565b5060408201516124f8604085018261255d565b50606082015161250b606085018261255d565b50608082015161251e608085018261255d565b5060a082015161253160a08501826122e5565b5060c082015161254460c08501826122e5565b5060e082015161255760e085018261255d565b50505050565b612566816128f6565b82525050565b612575816128f6565b82525050565b600060208201905081810360008301526125958184612229565b905092915050565b600060208201905081810360008301526125b78184612287565b905092915050565b600060208201905081810360008301526125d8816122f4565b9050919050565b600060208201905081810360008301526125f881612317565b9050919050565b600060208201905081810360008301526126188161233a565b9050919050565b600060208201905081810360008301526126388161235d565b9050919050565b6000602082019050818103600083015261265881612380565b9050919050565b60006020820190508181036000830152612678816123a3565b9050919050565b60006020820190508181036000830152612698816123c6565b9050919050565b600060208201905081810360008301526126b8816123e9565b9050919050565b600060208201905081810360008301526126d88161240c565b9050919050565b600060208201905081810360008301526126f88161242f565b9050919050565b6000602082019050818103600083015261271881612452565b9050919050565b6000602082019050818103600083015261273881612475565b9050919050565b6000602082019050818103600083015261275881612498565b9050919050565b6000602082019050612774600083018461256c565b92915050565b6000819050602082019050919050565b6000819050602082019050919050565b600081519050919050565b600081519050919050565b6000602082019050919050565b6000602082019050919050565b600082825260208201905092915050565b600082825260208201905092915050565b600082825260208201905092915050565b6000612808826128f6565b9150612813836128f6565b9250827fffffffffffffffffffffffffffffffffffffffffffffffffffffffffffffffff0382111561284857612847612949565b5b828201905092915050565b600061285e826128f6565b9150612869836128f6565b92508261287957612878612978565b5b828204905092915050565b600061288f826128f6565b915061289a836128f6565b9250828210156128ad576128ac612949565b5b828203905092915050565b60006128c3826128d6565b9050919050565b60008115159050919050565b600073ffffffffffffffffffffffffffffffffffffffff82169050919050565b6000819050919050565b600061290b826128f6565b91507fffffffffffffffffffffffffffffffffffffffffffffffffffffffffffffffff82141561293e5761293d612949565b5b600182019050919050565b7f4e487b7100000000000000000000000000000000000000000000000000000000600052601160045260246000fd5b7f4e487b7100000000000000000000000000000000000000000000000000000000600052601260045260246000fd5b7f4e487b7100000000000000000000000000000000000000000000000000000000600052603260045260246000fd5b7f4e487b7100000000000000000000000000000000000000000000000000000000600052604160045260246000fd5b600080fd5b7f596f752068617665206e6f20726563697069656e747320746f20696e7665737460008201527f20746f2e00000000000000000000000000000000000000000000000000000000602082015250565b7f596f752063616e206e6f742073657420616e20696e7665736d656e7420746f2060008201527f62652072656c6173656420696e2061207061737420646174652e000000000000602082015250565b7f596f752063616e206e6f742072657669736520616e20696e7665736d656e742060008201527f796f7520646964206e6f74206d616b652e000000000000000000000000000000602082015250565b7f5468697320697320616e20696e61637469766520696e7665736d656e742e0000600082015250565b7f496e737566666963656e742066756e647320746f2072657669736520696e766560008201527f736d656e742e0000000000000000000000000000000000000000000000000000602082015250565b7f596f752063616e206e6f742063616e63656c20616e20696e616374697665206960008201527f6e7665736d656e742e0000000000000000000000000000000000000000000000602082015250565b7f596f7520617265206e6f742074686520696e766573746f722c206f6e6c79206960008201527f6e766573746f72732063616e2063616e63656c20616e20696e7665736d656e7460208201527f2e00000000000000000000000000000000000000000000000000000000000000604082015250565b7f596f752068617665206e6f2066756e647320746f206469766964652e00000000600082015250565b7f596f752063616e206e6f74207769746864726177207468652066756e6473207960008201527f6574210000000000000000000000000000000000000000000000000000000000602082015250565b7f596f752061726520616c72656164792072656769737465726564210000000000600082015250565b7f4e6f20726563697069656e742072656769737465726564000000000000000000600082015250565b7f5468697320696e7665736d656e74206973206e6f7420666f722074686973206160008201527f6464726573732100000000000000000000000000000000000000000000000000602082015250565b7f596f752063616e206e6f742077697468647261772066726f6d20616e20696e6160008201527f637469766520696e7665736d656e742e00000000000000000000000000000000602082015250565b612da4816128b8565b8114612daf57600080fd5b50565b612dbb816128f6565b8114612dc657600080fd5b5056fea264697066735822122019a00824330a8eed43ee9fe8fdac21d5ce91e07958bc9a32ed324e290fcf9be464736f6c63430008070033",
  "linkReferences": {},
  "deployedLinkReferences": {}
}